{
	"pratice.sol": {
		"Test": {
			"abi": [
				{
					"anonymous": false,
					"inputs": [
						{
							"indexed": true,
							"internalType": "bytes",
							"name": "rawPassword",
							"type": "bytes"
						}
					],
					"name": "Gc",
					"type": "event"
				},
				{
					"anonymous": false,
					"inputs": [
						{
							"indexed": false,
							"internalType": "bytes",
							"name": "_to",
							"type": "bytes"
						},
						{
							"indexed": false,
							"internalType": "bytes",
							"name": "amount",
							"type": "bytes"
						}
					],
					"name": "Log",
					"type": "event"
				},
				{
					"inputs": [],
					"name": "decodePassword",
					"outputs": [
						{
							"internalType": "bytes32",
							"name": "",
							"type": "bytes32"
						}
					],
					"stateMutability": "pure",
					"type": "function"
				},
				{
					"inputs": [],
					"name": "encodeStringBytes",
					"outputs": [
						{
							"internalType": "bytes",
							"name": "",
							"type": "bytes"
						}
					],
					"stateMutability": "pure",
					"type": "function"
				},
				{
					"inputs": [],
					"name": "encodeStringPacked",
					"outputs": [
						{
							"internalType": "bytes",
							"name": "",
							"type": "bytes"
						}
					],
					"stateMutability": "pure",
					"type": "function"
				},
				{
					"inputs": [],
					"name": "getRawPassword",
					"outputs": [],
					"stateMutability": "nonpayable",
					"type": "function"
				},
				{
					"inputs": [
						{
							"internalType": "address",
							"name": "_to",
							"type": "address"
						},
						{
							"internalType": "uint256",
							"name": "_amount",
							"type": "uint256"
						}
					],
					"name": "transfer",
					"outputs": [],
					"stateMutability": "nonpayable",
					"type": "function"
				}
			],
			"devdoc": {
				"kind": "dev",
				"methods": {},
				"version": 1
			},
			"evm": {
				"assembly": "    /* \"pratice.sol\":58:1498  contract Test {... */\n  mstore(0x40, 0x80)\n  callvalue\n  dup1\n  iszero\n  tag_1\n  jumpi\n  0x00\n  dup1\n  revert\ntag_1:\n  pop\n  dataSize(sub_0)\n  dup1\n  dataOffset(sub_0)\n  0x00\n  codecopy\n  0x00\n  return\nstop\n\nsub_0: assembly {\n        /* \"pratice.sol\":58:1498  contract Test {... */\n      mstore(0x40, 0x80)\n      callvalue\n      dup1\n      iszero\n      tag_1\n      jumpi\n      0x00\n      dup1\n      revert\n    tag_1:\n      pop\n      jumpi(tag_2, lt(calldatasize, 0x04))\n      shr(0xe0, calldataload(0x00))\n      dup1\n      0x13d0ae13\n      eq\n      tag_3\n      jumpi\n      dup1\n      0x2085f4b9\n      eq\n      tag_4\n      jumpi\n      dup1\n      0x406ec9f2\n      eq\n      tag_5\n      jumpi\n      dup1\n      0xa9059cbb\n      eq\n      tag_6\n      jumpi\n      dup1\n      0xe1059398\n      eq\n      tag_7\n      jumpi\n    tag_2:\n      0x00\n      dup1\n      revert\n        /* \"pratice.sol\":716:950  function getRawPassword() external {... */\n    tag_3:\n      tag_8\n      tag_9\n      jump\t// in\n    tag_8:\n      stop\n        /* \"pratice.sol\":378:544  function encodeStringPacked() public pure returns (bytes memory) {... */\n    tag_4:\n      tag_10\n      tag_11\n      jump\t// in\n    tag_10:\n      mload(0x40)\n      tag_12\n      swap2\n      swap1\n      tag_13\n      jump\t// in\n    tag_12:\n      mload(0x40)\n      dup1\n      swap2\n      sub\n      swap1\n      return\n        /* \"pratice.sol\":550:704  function encodeStringBytes() public pure returns (bytes memory) {... */\n    tag_5:\n      tag_14\n      tag_15\n      jump\t// in\n    tag_14:\n      mload(0x40)\n      tag_16\n      swap2\n      swap1\n      tag_13\n      jump\t// in\n    tag_16:\n      mload(0x40)\n      dup1\n      swap2\n      sub\n      swap1\n      return\n        /* \"pratice.sol\":160:372  function transfer(address _to, uint256 _amount) external {... */\n    tag_6:\n      tag_17\n      0x04\n      dup1\n      calldatasize\n      sub\n      dup2\n      add\n      swap1\n      tag_18\n      swap2\n      swap1\n      tag_19\n      jump\t// in\n    tag_18:\n      tag_20\n      jump\t// in\n    tag_17:\n      stop\n        /* \"pratice.sol\":1044:1496  function decodePassword() external pure returns(bytes32) {... */\n    tag_7:\n      tag_21\n      tag_22\n      jump\t// in\n    tag_21:\n      mload(0x40)\n      tag_23\n      swap2\n      swap1\n      tag_24\n      jump\t// in\n    tag_23:\n      mload(0x40)\n      dup1\n      swap2\n      sub\n      swap1\n      return\n        /* \"pratice.sol\":716:950  function getRawPassword() external {... */\n    tag_9:\n        /* \"pratice.sol\":761:771  address tc */\n      0x00\n        /* \"pratice.sol\":774:816  0xDe495DaD76502b1f1B733162be2eb01A29c3F68a */\n      0xde495dad76502b1f1b733162be2eb01a29c3f68a\n        /* \"pratice.sol\":761:816  address tc = 0xDe495DaD76502b1f1B733162be2eb01A29c3F68a */\n      swap1\n      pop\n        /* \"pratice.sol\":829:853  bytes memory rawPassword */\n      0x00\n        /* \"pratice.sol\":857:859  tc */\n      dup2\n        /* \"pratice.sol\":857:864  tc.call */\n      0xffffffffffffffffffffffffffffffffffffffff\n      and\n        /* \"pratice.sol\":865:911  abi.encodeWithSignature(\"getEncodePassword()\") */\n      add(0x24, mload(0x40))\n      mload(0x40)\n      0x20\n      dup2\n      dup4\n      sub\n      sub\n      dup2\n      mstore\n      swap1\n      0x40\n      mstore\n      and(not(0xffffffffffffffffffffffffffffffffffffffffffffffffffffffff), 0x9ebb9b7c00000000000000000000000000000000000000000000000000000000)\n      0x20\n      dup3\n      add\n      dup1\n      mload\n      0xffffffffffffffffffffffffffffffffffffffffffffffffffffffff\n      dup4\n      dup2\n      dup4\n      and\n      or\n      dup4\n      mstore\n      pop\n      pop\n      pop\n      pop\n        /* \"pratice.sol\":857:912  tc.call(abi.encodeWithSignature(\"getEncodePassword()\")) */\n      mload(0x40)\n      tag_26\n      swap2\n      swap1\n      tag_27\n      jump\t// in\n    tag_26:\n      0x00\n      mload(0x40)\n      dup1\n      dup4\n      sub\n      dup2\n      0x00\n      dup7\n      gas\n      call\n      swap2\n      pop\n      pop\n      returndatasize\n      dup1\n      0x00\n      dup2\n      eq\n      tag_30\n      jumpi\n      mload(0x40)\n      swap2\n      pop\n      and(add(returndatasize, 0x3f), not(0x1f))\n      dup3\n      add\n      0x40\n      mstore\n      returndatasize\n      dup3\n      mstore\n      returndatasize\n      0x00\n      0x20\n      dup5\n      add\n      returndatacopy\n      jump(tag_29)\n    tag_30:\n      0x60\n      swap2\n      pop\n    tag_29:\n      pop\n        /* \"pratice.sol\":826:912  (, bytes memory rawPassword) = tc.call(abi.encodeWithSignature(\"getEncodePassword()\")) */\n      swap2\n      pop\n      pop\n        /* \"pratice.sol\":931:942  rawPassword */\n      dup1\n        /* \"pratice.sol\":928:943  Gc(rawPassword) */\n      mload(0x40)\n      tag_31\n      swap2\n      swap1\n      tag_27\n      jump\t// in\n    tag_31:\n      mload(0x40)\n      dup1\n      swap2\n      sub\n      swap1\n      keccak256\n      0xe34034414a8e6b97416d029f8355498e835909aa7a85fb9372d37d1a8fc09b59\n      mload(0x40)\n      mload(0x40)\n      dup1\n      swap2\n      sub\n      swap1\n      log2\n        /* \"pratice.sol\":751:950  {... */\n      pop\n      pop\n        /* \"pratice.sol\":716:950  function getRawPassword() external {... */\n      jump\t// out\n        /* \"pratice.sol\":378:544  function encodeStringPacked() public pure returns (bytes memory) {... */\n    tag_11:\n        /* \"pratice.sol\":429:441  bytes memory */\n      0x60\n        /* \"pratice.sol\":453:476  bytes memory someString */\n      0x00\n        /* \"pratice.sol\":479:510  abi.encodePacked(\"some string\") */\n      add(0x20, mload(0x40))\n      tag_33\n      swap1\n      tag_34\n      jump\t// in\n    tag_33:\n      mload(0x40)\n      0x20\n      dup2\n      dup4\n      sub\n      sub\n      dup2\n      mstore\n      swap1\n      0x40\n      mstore\n        /* \"pratice.sol\":453:510  bytes memory someString = abi.encodePacked(\"some string\") */\n      swap1\n      pop\n        /* \"pratice.sol\":527:537  someString */\n      dup1\n        /* \"pratice.sol\":520:537  return someString */\n      swap2\n      pop\n      pop\n        /* \"pratice.sol\":378:544  function encodeStringPacked() public pure returns (bytes memory) {... */\n      swap1\n      jump\t// out\n        /* \"pratice.sol\":550:704  function encodeStringBytes() public pure returns (bytes memory) {... */\n    tag_15:\n        /* \"pratice.sol\":600:612  bytes memory */\n      0x60\n        /* \"pratice.sol\":624:647  bytes memory someString */\n      0x00\n        /* \"pratice.sol\":650:670  bytes(\"some string\") */\n      mload(0x40)\n      dup1\n      0x40\n      add\n      0x40\n      mstore\n      dup1\n      0x0b\n      dup2\n      mstore\n      0x20\n      add\n      0x736f6d6520737472696e67000000000000000000000000000000000000000000\n      dup2\n      mstore\n      pop\n        /* \"pratice.sol\":624:670  bytes memory someString = bytes(\"some string\") */\n      swap1\n      pop\n        /* \"pratice.sol\":687:697  someString */\n      dup1\n        /* \"pratice.sol\":680:697  return someString */\n      swap2\n      pop\n      pop\n        /* \"pratice.sol\":550:704  function encodeStringBytes() public pure returns (bytes memory) {... */\n      swap1\n      jump\t// out\n        /* \"pratice.sol\":160:372  function transfer(address _to, uint256 _amount) external {... */\n    tag_20:\n        /* \"pratice.sol\":227:248  bytes memory encodeTo */\n      0x00\n        /* \"pratice.sol\":262:265  _to */\n      dup3\n        /* \"pratice.sol\":251:266  abi.encode(_to) */\n      add(0x20, mload(0x40))\n      tag_37\n      swap2\n      swap1\n      tag_38\n      jump\t// in\n    tag_37:\n      mload(0x40)\n      0x20\n      dup2\n      dup4\n      sub\n      sub\n      dup2\n      mstore\n      swap1\n      0x40\n      mstore\n        /* \"pratice.sol\":227:266  bytes memory encodeTo = abi.encode(_to) */\n      swap1\n      pop\n        /* \"pratice.sol\":276:301  bytes memory encodeAmount */\n      0x00\n        /* \"pratice.sol\":315:322  _amount */\n      dup3\n        /* \"pratice.sol\":304:323  abi.encode(_amount) */\n      add(0x20, mload(0x40))\n      tag_39\n      swap2\n      swap1\n      tag_40\n      jump\t// in\n    tag_39:\n      mload(0x40)\n      0x20\n      dup2\n      dup4\n      sub\n      sub\n      dup2\n      mstore\n      swap1\n      0x40\n      mstore\n        /* \"pratice.sol\":276:323  bytes memory encodeAmount = abi.encode(_amount) */\n      swap1\n      pop\n        /* \"pratice.sol\":338:365  Log(encodeTo, encodeAmount) */\n      0x57404065c4cd836656ea7db89edb5e96fa981d269b0ed0530bd4fa1b24d43c08\n        /* \"pratice.sol\":342:350  encodeTo */\n      dup3\n        /* \"pratice.sol\":352:364  encodeAmount */\n      dup3\n        /* \"pratice.sol\":338:365  Log(encodeTo, encodeAmount) */\n      mload(0x40)\n      tag_41\n      swap3\n      swap2\n      swap1\n      tag_42\n      jump\t// in\n    tag_41:\n      mload(0x40)\n      dup1\n      swap2\n      sub\n      swap1\n      log1\n        /* \"pratice.sol\":217:372  {... */\n      pop\n      pop\n        /* \"pratice.sol\":160:372  function transfer(address _to, uint256 _amount) external {... */\n      pop\n      pop\n      jump\t// out\n        /* \"pratice.sol\":1044:1496  function decodePassword() external pure returns(bytes32) {... */\n    tag_22:\n        /* \"pratice.sol\":1092:1099  bytes32 */\n      0x00\n        /* \"pratice.sol\":1111:1135  bytes memory rawPassword */\n      dup1\n        /* \"pratice.sol\":1111:1206  bytes memory rawPassword = \"0xc5d2460186f7233c927e7db2dcc703c0e500b653ca82273b7bfad8045d85a470\" */\n      mload(0x40)\n      dup1\n      0x80\n      add\n      0x40\n      mstore\n      dup1\n      0x42\n      dup2\n      mstore\n      0x20\n      add\n      data_e166801d00a45901e2b3ca692a6a95e367d4a976218b485546a2da464b6c88b5\n      0x42\n      swap2\n      codecopy\n      swap1\n      pop\n        /* \"pratice.sol\":1216:1238  bytes32 encodePassword */\n      0x00\n        /* \"pratice.sol\":1252:1263  rawPassword */\n      dup2\n        /* \"pratice.sol\":1241:1275  abi.decode(rawPassword, (bytes32)) */\n      dup1\n      0x20\n      add\n      swap1\n      mload\n      dup2\n      add\n      swap1\n      tag_44\n      swap2\n      swap1\n      tag_45\n      jump\t// in\n    tag_44:\n        /* \"pratice.sol\":1216:1275  bytes32 encodePassword = abi.decode(rawPassword, (bytes32)) */\n      swap1\n      pop\n        /* \"pratice.sol\":1292:1306  encodePassword */\n      dup1\n        /* \"pratice.sol\":1285:1306  return encodePassword */\n      swap3\n      pop\n      pop\n      pop\n        /* \"pratice.sol\":1044:1496  function decodePassword() external pure returns(bytes32) {... */\n      swap1\n      jump\t// out\n        /* \"#utility.yul\":7:105   */\n    tag_46:\n        /* \"#utility.yul\":58:64   */\n      0x00\n        /* \"#utility.yul\":92:97   */\n      dup2\n        /* \"#utility.yul\":86:98   */\n      mload\n        /* \"#utility.yul\":76:98   */\n      swap1\n      pop\n        /* \"#utility.yul\":7:105   */\n      swap2\n      swap1\n      pop\n      jump\t// out\n        /* \"#utility.yul\":111:279   */\n    tag_47:\n        /* \"#utility.yul\":194:205   */\n      0x00\n        /* \"#utility.yul\":228:234   */\n      dup3\n        /* \"#utility.yul\":223:226   */\n      dup3\n        /* \"#utility.yul\":216:235   */\n      mstore\n        /* \"#utility.yul\":268:272   */\n      0x20\n        /* \"#utility.yul\":263:266   */\n      dup3\n        /* \"#utility.yul\":259:273   */\n      add\n        /* \"#utility.yul\":244:273   */\n      swap1\n      pop\n        /* \"#utility.yul\":111:279   */\n      swap3\n      swap2\n      pop\n      pop\n      jump\t// out\n        /* \"#utility.yul\":285:531   */\n    tag_48:\n        /* \"#utility.yul\":366:367   */\n      0x00\n        /* \"#utility.yul\":376:489   */\n    tag_76:\n        /* \"#utility.yul\":390:396   */\n      dup4\n        /* \"#utility.yul\":387:388   */\n      dup2\n        /* \"#utility.yul\":384:397   */\n      lt\n        /* \"#utility.yul\":376:489   */\n      iszero\n      tag_78\n      jumpi\n        /* \"#utility.yul\":475:476   */\n      dup1\n        /* \"#utility.yul\":470:473   */\n      dup3\n        /* \"#utility.yul\":466:477   */\n      add\n        /* \"#utility.yul\":460:478   */\n      mload\n        /* \"#utility.yul\":456:457   */\n      dup2\n        /* \"#utility.yul\":451:454   */\n      dup5\n        /* \"#utility.yul\":447:458   */\n      add\n        /* \"#utility.yul\":440:479   */\n      mstore\n        /* \"#utility.yul\":412:414   */\n      0x20\n        /* \"#utility.yul\":409:410   */\n      dup2\n        /* \"#utility.yul\":405:415   */\n      add\n        /* \"#utility.yul\":400:415   */\n      swap1\n      pop\n        /* \"#utility.yul\":376:489   */\n      jump(tag_76)\n    tag_78:\n        /* \"#utility.yul\":523:524   */\n      0x00\n        /* \"#utility.yul\":514:520   */\n      dup5\n        /* \"#utility.yul\":509:512   */\n      dup5\n        /* \"#utility.yul\":505:521   */\n      add\n        /* \"#utility.yul\":498:525   */\n      mstore\n        /* \"#utility.yul\":347:531   */\n      pop\n        /* \"#utility.yul\":285:531   */\n      pop\n      pop\n      pop\n      jump\t// out\n        /* \"#utility.yul\":537:639   */\n    tag_49:\n        /* \"#utility.yul\":578:584   */\n      0x00\n        /* \"#utility.yul\":629:631   */\n      0x1f\n        /* \"#utility.yul\":625:632   */\n      not\n        /* \"#utility.yul\":620:622   */\n      0x1f\n        /* \"#utility.yul\":613:618   */\n      dup4\n        /* \"#utility.yul\":609:623   */\n      add\n        /* \"#utility.yul\":605:633   */\n      and\n        /* \"#utility.yul\":595:633   */\n      swap1\n      pop\n        /* \"#utility.yul\":537:639   */\n      swap2\n      swap1\n      pop\n      jump\t// out\n        /* \"#utility.yul\":645:1018   */\n    tag_50:\n        /* \"#utility.yul\":731:734   */\n      0x00\n        /* \"#utility.yul\":759:797   */\n      tag_81\n        /* \"#utility.yul\":791:796   */\n      dup3\n        /* \"#utility.yul\":759:797   */\n      tag_46\n      jump\t// in\n    tag_81:\n        /* \"#utility.yul\":813:883   */\n      tag_82\n        /* \"#utility.yul\":876:882   */\n      dup2\n        /* \"#utility.yul\":871:874   */\n      dup6\n        /* \"#utility.yul\":813:883   */\n      tag_47\n      jump\t// in\n    tag_82:\n        /* \"#utility.yul\":806:883   */\n      swap4\n      pop\n        /* \"#utility.yul\":892:957   */\n      tag_83\n        /* \"#utility.yul\":950:956   */\n      dup2\n        /* \"#utility.yul\":945:948   */\n      dup6\n        /* \"#utility.yul\":938:942   */\n      0x20\n        /* \"#utility.yul\":931:936   */\n      dup7\n        /* \"#utility.yul\":927:943   */\n      add\n        /* \"#utility.yul\":892:957   */\n      tag_48\n      jump\t// in\n    tag_83:\n        /* \"#utility.yul\":982:1011   */\n      tag_84\n        /* \"#utility.yul\":1004:1010   */\n      dup2\n        /* \"#utility.yul\":982:1011   */\n      tag_49\n      jump\t// in\n    tag_84:\n        /* \"#utility.yul\":977:980   */\n      dup5\n        /* \"#utility.yul\":973:1012   */\n      add\n        /* \"#utility.yul\":966:1012   */\n      swap2\n      pop\n        /* \"#utility.yul\":735:1018   */\n      pop\n        /* \"#utility.yul\":645:1018   */\n      swap3\n      swap2\n      pop\n      pop\n      jump\t// out\n        /* \"#utility.yul\":1024:1333   */\n    tag_13:\n        /* \"#utility.yul\":1135:1139   */\n      0x00\n        /* \"#utility.yul\":1173:1175   */\n      0x20\n        /* \"#utility.yul\":1162:1171   */\n      dup3\n        /* \"#utility.yul\":1158:1176   */\n      add\n        /* \"#utility.yul\":1150:1176   */\n      swap1\n      pop\n        /* \"#utility.yul\":1222:1231   */\n      dup2\n        /* \"#utility.yul\":1216:1220   */\n      dup2\n        /* \"#utility.yul\":1212:1232   */\n      sub\n        /* \"#utility.yul\":1208:1209   */\n      0x00\n        /* \"#utility.yul\":1197:1206   */\n      dup4\n        /* \"#utility.yul\":1193:1210   */\n      add\n        /* \"#utility.yul\":1186:1233   */\n      mstore\n        /* \"#utility.yul\":1250:1326   */\n      tag_86\n        /* \"#utility.yul\":1321:1325   */\n      dup2\n        /* \"#utility.yul\":1312:1318   */\n      dup5\n        /* \"#utility.yul\":1250:1326   */\n      tag_50\n      jump\t// in\n    tag_86:\n        /* \"#utility.yul\":1242:1326   */\n      swap1\n      pop\n        /* \"#utility.yul\":1024:1333   */\n      swap3\n      swap2\n      pop\n      pop\n      jump\t// out\n        /* \"#utility.yul\":1420:1537   */\n    tag_52:\n        /* \"#utility.yul\":1529:1530   */\n      0x00\n        /* \"#utility.yul\":1526:1527   */\n      dup1\n        /* \"#utility.yul\":1519:1531   */\n      revert\n        /* \"#utility.yul\":1666:1792   */\n    tag_54:\n        /* \"#utility.yul\":1703:1710   */\n      0x00\n        /* \"#utility.yul\":1743:1785   */\n      0xffffffffffffffffffffffffffffffffffffffff\n        /* \"#utility.yul\":1736:1741   */\n      dup3\n        /* \"#utility.yul\":1732:1786   */\n      and\n        /* \"#utility.yul\":1721:1786   */\n      swap1\n      pop\n        /* \"#utility.yul\":1666:1792   */\n      swap2\n      swap1\n      pop\n      jump\t// out\n        /* \"#utility.yul\":1798:1894   */\n    tag_55:\n        /* \"#utility.yul\":1835:1842   */\n      0x00\n        /* \"#utility.yul\":1864:1888   */\n      tag_92\n        /* \"#utility.yul\":1882:1887   */\n      dup3\n        /* \"#utility.yul\":1864:1888   */\n      tag_54\n      jump\t// in\n    tag_92:\n        /* \"#utility.yul\":1853:1888   */\n      swap1\n      pop\n        /* \"#utility.yul\":1798:1894   */\n      swap2\n      swap1\n      pop\n      jump\t// out\n        /* \"#utility.yul\":1900:2022   */\n    tag_56:\n        /* \"#utility.yul\":1973:1997   */\n      tag_94\n        /* \"#utility.yul\":1991:1996   */\n      dup2\n        /* \"#utility.yul\":1973:1997   */\n      tag_55\n      jump\t// in\n    tag_94:\n        /* \"#utility.yul\":1966:1971   */\n      dup2\n        /* \"#utility.yul\":1963:1998   */\n      eq\n        /* \"#utility.yul\":1953:2016   */\n      tag_95\n      jumpi\n        /* \"#utility.yul\":2012:2013   */\n      0x00\n        /* \"#utility.yul\":2009:2010   */\n      dup1\n        /* \"#utility.yul\":2002:2014   */\n      revert\n        /* \"#utility.yul\":1953:2016   */\n    tag_95:\n        /* \"#utility.yul\":1900:2022   */\n      pop\n      jump\t// out\n        /* \"#utility.yul\":2028:2167   */\n    tag_57:\n        /* \"#utility.yul\":2074:2079   */\n      0x00\n        /* \"#utility.yul\":2112:2118   */\n      dup2\n        /* \"#utility.yul\":2099:2119   */\n      calldataload\n        /* \"#utility.yul\":2090:2119   */\n      swap1\n      pop\n        /* \"#utility.yul\":2128:2161   */\n      tag_97\n        /* \"#utility.yul\":2155:2160   */\n      dup2\n        /* \"#utility.yul\":2128:2161   */\n      tag_56\n      jump\t// in\n    tag_97:\n        /* \"#utility.yul\":2028:2167   */\n      swap3\n      swap2\n      pop\n      pop\n      jump\t// out\n        /* \"#utility.yul\":2173:2250   */\n    tag_58:\n        /* \"#utility.yul\":2210:2217   */\n      0x00\n        /* \"#utility.yul\":2239:2244   */\n      dup2\n        /* \"#utility.yul\":2228:2244   */\n      swap1\n      pop\n        /* \"#utility.yul\":2173:2250   */\n      swap2\n      swap1\n      pop\n      jump\t// out\n        /* \"#utility.yul\":2256:2378   */\n    tag_59:\n        /* \"#utility.yul\":2329:2353   */\n      tag_100\n        /* \"#utility.yul\":2347:2352   */\n      dup2\n        /* \"#utility.yul\":2329:2353   */\n      tag_58\n      jump\t// in\n    tag_100:\n        /* \"#utility.yul\":2322:2327   */\n      dup2\n        /* \"#utility.yul\":2319:2354   */\n      eq\n        /* \"#utility.yul\":2309:2372   */\n      tag_101\n      jumpi\n        /* \"#utility.yul\":2368:2369   */\n      0x00\n        /* \"#utility.yul\":2365:2366   */\n      dup1\n        /* \"#utility.yul\":2358:2370   */\n      revert\n        /* \"#utility.yul\":2309:2372   */\n    tag_101:\n        /* \"#utility.yul\":2256:2378   */\n      pop\n      jump\t// out\n        /* \"#utility.yul\":2384:2523   */\n    tag_60:\n        /* \"#utility.yul\":2430:2435   */\n      0x00\n        /* \"#utility.yul\":2468:2474   */\n      dup2\n        /* \"#utility.yul\":2455:2475   */\n      calldataload\n        /* \"#utility.yul\":2446:2475   */\n      swap1\n      pop\n        /* \"#utility.yul\":2484:2517   */\n      tag_103\n        /* \"#utility.yul\":2511:2516   */\n      dup2\n        /* \"#utility.yul\":2484:2517   */\n      tag_59\n      jump\t// in\n    tag_103:\n        /* \"#utility.yul\":2384:2523   */\n      swap3\n      swap2\n      pop\n      pop\n      jump\t// out\n        /* \"#utility.yul\":2529:3003   */\n    tag_19:\n        /* \"#utility.yul\":2597:2603   */\n      0x00\n        /* \"#utility.yul\":2605:2611   */\n      dup1\n        /* \"#utility.yul\":2654:2656   */\n      0x40\n        /* \"#utility.yul\":2642:2651   */\n      dup4\n        /* \"#utility.yul\":2633:2640   */\n      dup6\n        /* \"#utility.yul\":2629:2652   */\n      sub\n        /* \"#utility.yul\":2625:2657   */\n      slt\n        /* \"#utility.yul\":2622:2741   */\n      iszero\n      tag_105\n      jumpi\n        /* \"#utility.yul\":2660:2739   */\n      tag_106\n      tag_52\n      jump\t// in\n    tag_106:\n        /* \"#utility.yul\":2622:2741   */\n    tag_105:\n        /* \"#utility.yul\":2780:2781   */\n      0x00\n        /* \"#utility.yul\":2805:2858   */\n      tag_107\n        /* \"#utility.yul\":2850:2857   */\n      dup6\n        /* \"#utility.yul\":2841:2847   */\n      dup3\n        /* \"#utility.yul\":2830:2839   */\n      dup7\n        /* \"#utility.yul\":2826:2848   */\n      add\n        /* \"#utility.yul\":2805:2858   */\n      tag_57\n      jump\t// in\n    tag_107:\n        /* \"#utility.yul\":2795:2858   */\n      swap3\n      pop\n        /* \"#utility.yul\":2751:2868   */\n      pop\n        /* \"#utility.yul\":2907:2909   */\n      0x20\n        /* \"#utility.yul\":2933:2986   */\n      tag_108\n        /* \"#utility.yul\":2978:2985   */\n      dup6\n        /* \"#utility.yul\":2969:2975   */\n      dup3\n        /* \"#utility.yul\":2958:2967   */\n      dup7\n        /* \"#utility.yul\":2954:2976   */\n      add\n        /* \"#utility.yul\":2933:2986   */\n      tag_60\n      jump\t// in\n    tag_108:\n        /* \"#utility.yul\":2923:2986   */\n      swap2\n      pop\n        /* \"#utility.yul\":2878:2996   */\n      pop\n        /* \"#utility.yul\":2529:3003   */\n      swap3\n      pop\n      swap3\n      swap1\n      pop\n      jump\t// out\n        /* \"#utility.yul\":3009:3086   */\n    tag_61:\n        /* \"#utility.yul\":3046:3053   */\n      0x00\n        /* \"#utility.yul\":3075:3080   */\n      dup2\n        /* \"#utility.yul\":3064:3080   */\n      swap1\n      pop\n        /* \"#utility.yul\":3009:3086   */\n      swap2\n      swap1\n      pop\n      jump\t// out\n        /* \"#utility.yul\":3092:3210   */\n    tag_62:\n        /* \"#utility.yul\":3179:3203   */\n      tag_111\n        /* \"#utility.yul\":3197:3202   */\n      dup2\n        /* \"#utility.yul\":3179:3203   */\n      tag_61\n      jump\t// in\n    tag_111:\n        /* \"#utility.yul\":3174:3177   */\n      dup3\n        /* \"#utility.yul\":3167:3204   */\n      mstore\n        /* \"#utility.yul\":3092:3210   */\n      pop\n      pop\n      jump\t// out\n        /* \"#utility.yul\":3216:3438   */\n    tag_24:\n        /* \"#utility.yul\":3309:3313   */\n      0x00\n        /* \"#utility.yul\":3347:3349   */\n      0x20\n        /* \"#utility.yul\":3336:3345   */\n      dup3\n        /* \"#utility.yul\":3332:3350   */\n      add\n        /* \"#utility.yul\":3324:3350   */\n      swap1\n      pop\n        /* \"#utility.yul\":3360:3431   */\n      tag_113\n        /* \"#utility.yul\":3428:3429   */\n      0x00\n        /* \"#utility.yul\":3417:3426   */\n      dup4\n        /* \"#utility.yul\":3413:3430   */\n      add\n        /* \"#utility.yul\":3404:3410   */\n      dup5\n        /* \"#utility.yul\":3360:3431   */\n      tag_62\n      jump\t// in\n    tag_113:\n        /* \"#utility.yul\":3216:3438   */\n      swap3\n      swap2\n      pop\n      pop\n      jump\t// out\n        /* \"#utility.yul\":3444:3591   */\n    tag_63:\n        /* \"#utility.yul\":3545:3556   */\n      0x00\n        /* \"#utility.yul\":3582:3585   */\n      dup2\n        /* \"#utility.yul\":3567:3585   */\n      swap1\n      pop\n        /* \"#utility.yul\":3444:3591   */\n      swap3\n      swap2\n      pop\n      pop\n      jump\t// out\n        /* \"#utility.yul\":3597:3983   */\n    tag_64:\n        /* \"#utility.yul\":3701:3704   */\n      0x00\n        /* \"#utility.yul\":3729:3767   */\n      tag_116\n        /* \"#utility.yul\":3761:3766   */\n      dup3\n        /* \"#utility.yul\":3729:3767   */\n      tag_46\n      jump\t// in\n    tag_116:\n        /* \"#utility.yul\":3783:3871   */\n      tag_117\n        /* \"#utility.yul\":3864:3870   */\n      dup2\n        /* \"#utility.yul\":3859:3862   */\n      dup6\n        /* \"#utility.yul\":3783:3871   */\n      tag_63\n      jump\t// in\n    tag_117:\n        /* \"#utility.yul\":3776:3871   */\n      swap4\n      pop\n        /* \"#utility.yul\":3880:3945   */\n      tag_118\n        /* \"#utility.yul\":3938:3944   */\n      dup2\n        /* \"#utility.yul\":3933:3936   */\n      dup6\n        /* \"#utility.yul\":3926:3930   */\n      0x20\n        /* \"#utility.yul\":3919:3924   */\n      dup7\n        /* \"#utility.yul\":3915:3931   */\n      add\n        /* \"#utility.yul\":3880:3945   */\n      tag_48\n      jump\t// in\n    tag_118:\n        /* \"#utility.yul\":3970:3976   */\n      dup1\n        /* \"#utility.yul\":3965:3968   */\n      dup5\n        /* \"#utility.yul\":3961:3977   */\n      add\n        /* \"#utility.yul\":3954:3977   */\n      swap2\n      pop\n        /* \"#utility.yul\":3705:3983   */\n      pop\n        /* \"#utility.yul\":3597:3983   */\n      swap3\n      swap2\n      pop\n      pop\n      jump\t// out\n        /* \"#utility.yul\":3989:4260   */\n    tag_27:\n        /* \"#utility.yul\":4119:4122   */\n      0x00\n        /* \"#utility.yul\":4141:4234   */\n      tag_120\n        /* \"#utility.yul\":4230:4233   */\n      dup3\n        /* \"#utility.yul\":4221:4227   */\n      dup5\n        /* \"#utility.yul\":4141:4234   */\n      tag_64\n      jump\t// in\n    tag_120:\n        /* \"#utility.yul\":4134:4234   */\n      swap2\n      pop\n        /* \"#utility.yul\":4251:4254   */\n      dup2\n        /* \"#utility.yul\":4244:4254   */\n      swap1\n      pop\n        /* \"#utility.yul\":3989:4260   */\n      swap3\n      swap2\n      pop\n      pop\n      jump\t// out\n        /* \"#utility.yul\":4266:4414   */\n    tag_65:\n        /* \"#utility.yul\":4368:4379   */\n      0x00\n        /* \"#utility.yul\":4405:4408   */\n      dup2\n        /* \"#utility.yul\":4390:4408   */\n      swap1\n      pop\n        /* \"#utility.yul\":4266:4414   */\n      swap3\n      swap2\n      pop\n      pop\n      jump\t// out\n        /* \"#utility.yul\":4420:4581   */\n    tag_66:\n        /* \"#utility.yul\":4560:4573   */\n      0x736f6d6520737472696e67000000000000000000000000000000000000000000\n        /* \"#utility.yul\":4556:4557   */\n      0x00\n        /* \"#utility.yul\":4548:4554   */\n      dup3\n        /* \"#utility.yul\":4544:4558   */\n      add\n        /* \"#utility.yul\":4537:4574   */\n      mstore\n        /* \"#utility.yul\":4420:4581   */\n      pop\n      jump\t// out\n        /* \"#utility.yul\":4587:4989   */\n    tag_67:\n        /* \"#utility.yul\":4747:4750   */\n      0x00\n        /* \"#utility.yul\":4768:4853   */\n      tag_124\n        /* \"#utility.yul\":4850:4852   */\n      0x0b\n        /* \"#utility.yul\":4845:4848   */\n      dup4\n        /* \"#utility.yul\":4768:4853   */\n      tag_65\n      jump\t// in\n    tag_124:\n        /* \"#utility.yul\":4761:4853   */\n      swap2\n      pop\n        /* \"#utility.yul\":4862:4955   */\n      tag_125\n        /* \"#utility.yul\":4951:4954   */\n      dup3\n        /* \"#utility.yul\":4862:4955   */\n      tag_66\n      jump\t// in\n    tag_125:\n        /* \"#utility.yul\":4980:4982   */\n      0x0b\n        /* \"#utility.yul\":4975:4978   */\n      dup3\n        /* \"#utility.yul\":4971:4983   */\n      add\n        /* \"#utility.yul\":4964:4983   */\n      swap1\n      pop\n        /* \"#utility.yul\":4587:4989   */\n      swap2\n      swap1\n      pop\n      jump\t// out\n        /* \"#utility.yul\":4995:5376   */\n    tag_34:\n        /* \"#utility.yul\":5180:5183   */\n      0x00\n        /* \"#utility.yul\":5202:5350   */\n      tag_127\n        /* \"#utility.yul\":5346:5349   */\n      dup3\n        /* \"#utility.yul\":5202:5350   */\n      tag_67\n      jump\t// in\n    tag_127:\n        /* \"#utility.yul\":5195:5350   */\n      swap2\n      pop\n        /* \"#utility.yul\":5367:5370   */\n      dup2\n        /* \"#utility.yul\":5360:5370   */\n      swap1\n      pop\n        /* \"#utility.yul\":4995:5376   */\n      swap2\n      swap1\n      pop\n      jump\t// out\n        /* \"#utility.yul\":5382:5500   */\n    tag_68:\n        /* \"#utility.yul\":5469:5493   */\n      tag_129\n        /* \"#utility.yul\":5487:5492   */\n      dup2\n        /* \"#utility.yul\":5469:5493   */\n      tag_55\n      jump\t// in\n    tag_129:\n        /* \"#utility.yul\":5464:5467   */\n      dup3\n        /* \"#utility.yul\":5457:5494   */\n      mstore\n        /* \"#utility.yul\":5382:5500   */\n      pop\n      pop\n      jump\t// out\n        /* \"#utility.yul\":5506:5728   */\n    tag_38:\n        /* \"#utility.yul\":5599:5603   */\n      0x00\n        /* \"#utility.yul\":5637:5639   */\n      0x20\n        /* \"#utility.yul\":5626:5635   */\n      dup3\n        /* \"#utility.yul\":5622:5640   */\n      add\n        /* \"#utility.yul\":5614:5640   */\n      swap1\n      pop\n        /* \"#utility.yul\":5650:5721   */\n      tag_131\n        /* \"#utility.yul\":5718:5719   */\n      0x00\n        /* \"#utility.yul\":5707:5716   */\n      dup4\n        /* \"#utility.yul\":5703:5720   */\n      add\n        /* \"#utility.yul\":5694:5700   */\n      dup5\n        /* \"#utility.yul\":5650:5721   */\n      tag_68\n      jump\t// in\n    tag_131:\n        /* \"#utility.yul\":5506:5728   */\n      swap3\n      swap2\n      pop\n      pop\n      jump\t// out\n        /* \"#utility.yul\":5734:5852   */\n    tag_69:\n        /* \"#utility.yul\":5821:5845   */\n      tag_133\n        /* \"#utility.yul\":5839:5844   */\n      dup2\n        /* \"#utility.yul\":5821:5845   */\n      tag_58\n      jump\t// in\n    tag_133:\n        /* \"#utility.yul\":5816:5819   */\n      dup3\n        /* \"#utility.yul\":5809:5846   */\n      mstore\n        /* \"#utility.yul\":5734:5852   */\n      pop\n      pop\n      jump\t// out\n        /* \"#utility.yul\":5858:6080   */\n    tag_40:\n        /* \"#utility.yul\":5951:5955   */\n      0x00\n        /* \"#utility.yul\":5989:5991   */\n      0x20\n        /* \"#utility.yul\":5978:5987   */\n      dup3\n        /* \"#utility.yul\":5974:5992   */\n      add\n        /* \"#utility.yul\":5966:5992   */\n      swap1\n      pop\n        /* \"#utility.yul\":6002:6073   */\n      tag_135\n        /* \"#utility.yul\":6070:6071   */\n      0x00\n        /* \"#utility.yul\":6059:6068   */\n      dup4\n        /* \"#utility.yul\":6055:6072   */\n      add\n        /* \"#utility.yul\":6046:6052   */\n      dup5\n        /* \"#utility.yul\":6002:6073   */\n      tag_69\n      jump\t// in\n    tag_135:\n        /* \"#utility.yul\":5858:6080   */\n      swap3\n      swap2\n      pop\n      pop\n      jump\t// out\n        /* \"#utility.yul\":6086:6592   */\n    tag_42:\n        /* \"#utility.yul\":6243:6247   */\n      0x00\n        /* \"#utility.yul\":6281:6283   */\n      0x40\n        /* \"#utility.yul\":6270:6279   */\n      dup3\n        /* \"#utility.yul\":6266:6284   */\n      add\n        /* \"#utility.yul\":6258:6284   */\n      swap1\n      pop\n        /* \"#utility.yul\":6330:6339   */\n      dup2\n        /* \"#utility.yul\":6324:6328   */\n      dup2\n        /* \"#utility.yul\":6320:6340   */\n      sub\n        /* \"#utility.yul\":6316:6317   */\n      0x00\n        /* \"#utility.yul\":6305:6314   */\n      dup4\n        /* \"#utility.yul\":6301:6318   */\n      add\n        /* \"#utility.yul\":6294:6341   */\n      mstore\n        /* \"#utility.yul\":6358:6434   */\n      tag_137\n        /* \"#utility.yul\":6429:6433   */\n      dup2\n        /* \"#utility.yul\":6420:6426   */\n      dup6\n        /* \"#utility.yul\":6358:6434   */\n      tag_50\n      jump\t// in\n    tag_137:\n        /* \"#utility.yul\":6350:6434   */\n      swap1\n      pop\n        /* \"#utility.yul\":6481:6490   */\n      dup2\n        /* \"#utility.yul\":6475:6479   */\n      dup2\n        /* \"#utility.yul\":6471:6491   */\n      sub\n        /* \"#utility.yul\":6466:6468   */\n      0x20\n        /* \"#utility.yul\":6455:6464   */\n      dup4\n        /* \"#utility.yul\":6451:6469   */\n      add\n        /* \"#utility.yul\":6444:6492   */\n      mstore\n        /* \"#utility.yul\":6509:6585   */\n      tag_138\n        /* \"#utility.yul\":6580:6584   */\n      dup2\n        /* \"#utility.yul\":6571:6577   */\n      dup5\n        /* \"#utility.yul\":6509:6585   */\n      tag_50\n      jump\t// in\n    tag_138:\n        /* \"#utility.yul\":6501:6585   */\n      swap1\n      pop\n        /* \"#utility.yul\":6086:6592   */\n      swap4\n      swap3\n      pop\n      pop\n      pop\n      jump\t// out\n        /* \"#utility.yul\":6598:6720   */\n    tag_70:\n        /* \"#utility.yul\":6671:6695   */\n      tag_140\n        /* \"#utility.yul\":6689:6694   */\n      dup2\n        /* \"#utility.yul\":6671:6695   */\n      tag_61\n      jump\t// in\n    tag_140:\n        /* \"#utility.yul\":6664:6669   */\n      dup2\n        /* \"#utility.yul\":6661:6696   */\n      eq\n        /* \"#utility.yul\":6651:6714   */\n      tag_141\n      jumpi\n        /* \"#utility.yul\":6710:6711   */\n      0x00\n        /* \"#utility.yul\":6707:6708   */\n      dup1\n        /* \"#utility.yul\":6700:6712   */\n      revert\n        /* \"#utility.yul\":6651:6714   */\n    tag_141:\n        /* \"#utility.yul\":6598:6720   */\n      pop\n      jump\t// out\n        /* \"#utility.yul\":6726:6869   */\n    tag_71:\n        /* \"#utility.yul\":6783:6788   */\n      0x00\n        /* \"#utility.yul\":6814:6820   */\n      dup2\n        /* \"#utility.yul\":6808:6821   */\n      mload\n        /* \"#utility.yul\":6799:6821   */\n      swap1\n      pop\n        /* \"#utility.yul\":6830:6863   */\n      tag_143\n        /* \"#utility.yul\":6857:6862   */\n      dup2\n        /* \"#utility.yul\":6830:6863   */\n      tag_70\n      jump\t// in\n    tag_143:\n        /* \"#utility.yul\":6726:6869   */\n      swap3\n      swap2\n      pop\n      pop\n      jump\t// out\n        /* \"#utility.yul\":6875:7226   */\n    tag_45:\n        /* \"#utility.yul\":6945:6951   */\n      0x00\n        /* \"#utility.yul\":6994:6996   */\n      0x20\n        /* \"#utility.yul\":6982:6991   */\n      dup3\n        /* \"#utility.yul\":6973:6980   */\n      dup5\n        /* \"#utility.yul\":6969:6992   */\n      sub\n        /* \"#utility.yul\":6965:6997   */\n      slt\n        /* \"#utility.yul\":6962:7081   */\n      iszero\n      tag_145\n      jumpi\n        /* \"#utility.yul\":7000:7079   */\n      tag_146\n      tag_52\n      jump\t// in\n    tag_146:\n        /* \"#utility.yul\":6962:7081   */\n    tag_145:\n        /* \"#utility.yul\":7120:7121   */\n      0x00\n        /* \"#utility.yul\":7145:7209   */\n      tag_147\n        /* \"#utility.yul\":7201:7208   */\n      dup5\n        /* \"#utility.yul\":7192:7198   */\n      dup3\n        /* \"#utility.yul\":7181:7190   */\n      dup6\n        /* \"#utility.yul\":7177:7199   */\n      add\n        /* \"#utility.yul\":7145:7209   */\n      tag_71\n      jump\t// in\n    tag_147:\n        /* \"#utility.yul\":7135:7209   */\n      swap2\n      pop\n        /* \"#utility.yul\":7091:7219   */\n      pop\n        /* \"#utility.yul\":6875:7226   */\n      swap3\n      swap2\n      pop\n      pop\n      jump\t// out\n    stop\n    data_e166801d00a45901e2b3ca692a6a95e367d4a976218b485546a2da464b6c88b5 307863356432343630313836663732333363393237653764623264636337303363306535303062363533636138323237336237626661643830343564383561343730\n\n    auxdata: 0xa26469706673582212205a31a8bde9973ce3e32d2c0c8f32e2cb3f336fa615ee0ab7dee5f891912ddd8364736f6c63430008120033\n}\n",
				"bytecode": {
					"linkReferences": {},
					"object": "608060405234801561001057600080fd5b50610737806100206000396000f3fe608060405234801561001057600080fd5b50600436106100575760003560e01c806313d0ae131461005c5780632085f4b914610066578063406ec9f214610084578063a9059cbb146100a2578063e1059398146100be575b600080fd5b6100646100dc565b005b61006e61022a565b60405161007b91906103ed565b60405180910390f35b61008c610255565b60405161009991906103ed565b60405180910390f35b6100bc60048036038101906100b791906104a8565b610298565b005b6100c661031f565b6040516100d39190610501565b60405180910390f35b600073de495dad76502b1f1b733162be2eb01a29c3f68a905060008173ffffffffffffffffffffffffffffffffffffffff166040516024016040516020818303038152906040527f9ebb9b7c000000000000000000000000000000000000000000000000000000007bffffffffffffffffffffffffffffffffffffffffffffffffffffffff19166020820180517bffffffffffffffffffffffffffffffffffffffffffffffffffffffff838183161783525050505060405161019e9190610558565b6000604051808303816000865af19150503d80600081146101db576040519150601f19603f3d011682016040523d82523d6000602084013e6101e0565b606091505b50915050806040516101f29190610558565b60405180910390207fe34034414a8e6b97416d029f8355498e835909aa7a85fb9372d37d1a8fc09b5960405160405180910390a25050565b6060600060405160200161023d906105c6565b60405160208183030381529060405290508091505090565b606060006040518060400160405280600b81526020017f736f6d6520737472696e6700000000000000000000000000000000000000000081525090508091505090565b6000826040516020016102ab91906105ea565b60405160208183030381529060405290506000826040516020016102cf9190610614565b60405160208183030381529060405290507f57404065c4cd836656ea7db89edb5e96fa981d269b0ed0530bd4fa1b24d43c08828260405161031192919061062f565b60405180910390a150505050565b6000806040518060800160405280604281526020016106c06042913990506000818060200190518101906103539190610692565b9050809250505090565b600081519050919050565b600082825260208201905092915050565b60005b8381101561039757808201518184015260208101905061037c565b60008484015250505050565b6000601f19601f8301169050919050565b60006103bf8261035d565b6103c98185610368565b93506103d9818560208601610379565b6103e2816103a3565b840191505092915050565b6000602082019050818103600083015261040781846103b4565b905092915050565b600080fd5b600073ffffffffffffffffffffffffffffffffffffffff82169050919050565b600061043f82610414565b9050919050565b61044f81610434565b811461045a57600080fd5b50565b60008135905061046c81610446565b92915050565b6000819050919050565b61048581610472565b811461049057600080fd5b50565b6000813590506104a28161047c565b92915050565b600080604083850312156104bf576104be61040f565b5b60006104cd8582860161045d565b92505060206104de85828601610493565b9150509250929050565b6000819050919050565b6104fb816104e8565b82525050565b600060208201905061051660008301846104f2565b92915050565b600081905092915050565b60006105328261035d565b61053c818561051c565b935061054c818560208601610379565b80840191505092915050565b60006105648284610527565b915081905092915050565b600081905092915050565b7f736f6d6520737472696e67000000000000000000000000000000000000000000600082015250565b60006105b0600b8361056f565b91506105bb8261057a565b600b82019050919050565b60006105d1826105a3565b9150819050919050565b6105e481610434565b82525050565b60006020820190506105ff60008301846105db565b92915050565b61060e81610472565b82525050565b60006020820190506106296000830184610605565b92915050565b6000604082019050818103600083015261064981856103b4565b9050818103602083015261065d81846103b4565b90509392505050565b61066f816104e8565b811461067a57600080fd5b50565b60008151905061068c81610666565b92915050565b6000602082840312156106a8576106a761040f565b5b60006106b68482850161067d565b9150509291505056fe307863356432343630313836663732333363393237653764623264636337303363306535303062363533636138323237336237626661643830343564383561343730a26469706673582212205a31a8bde9973ce3e32d2c0c8f32e2cb3f336fa615ee0ab7dee5f891912ddd8364736f6c63430008120033",
					"opcodes": "PUSH1 0x80 PUSH1 0x40 MSTORE CALLVALUE DUP1 ISZERO PUSH2 0x10 JUMPI PUSH1 0x0 DUP1 REVERT JUMPDEST POP PUSH2 0x737 DUP1 PUSH2 0x20 PUSH1 0x0 CODECOPY PUSH1 0x0 RETURN INVALID PUSH1 0x80 PUSH1 0x40 MSTORE CALLVALUE DUP1 ISZERO PUSH2 0x10 JUMPI PUSH1 0x0 DUP1 REVERT JUMPDEST POP PUSH1 0x4 CALLDATASIZE LT PUSH2 0x57 JUMPI PUSH1 0x0 CALLDATALOAD PUSH1 0xE0 SHR DUP1 PUSH4 0x13D0AE13 EQ PUSH2 0x5C JUMPI DUP1 PUSH4 0x2085F4B9 EQ PUSH2 0x66 JUMPI DUP1 PUSH4 0x406EC9F2 EQ PUSH2 0x84 JUMPI DUP1 PUSH4 0xA9059CBB EQ PUSH2 0xA2 JUMPI DUP1 PUSH4 0xE1059398 EQ PUSH2 0xBE JUMPI JUMPDEST PUSH1 0x0 DUP1 REVERT JUMPDEST PUSH2 0x64 PUSH2 0xDC JUMP JUMPDEST STOP JUMPDEST PUSH2 0x6E PUSH2 0x22A JUMP JUMPDEST PUSH1 0x40 MLOAD PUSH2 0x7B SWAP2 SWAP1 PUSH2 0x3ED JUMP JUMPDEST PUSH1 0x40 MLOAD DUP1 SWAP2 SUB SWAP1 RETURN JUMPDEST PUSH2 0x8C PUSH2 0x255 JUMP JUMPDEST PUSH1 0x40 MLOAD PUSH2 0x99 SWAP2 SWAP1 PUSH2 0x3ED JUMP JUMPDEST PUSH1 0x40 MLOAD DUP1 SWAP2 SUB SWAP1 RETURN JUMPDEST PUSH2 0xBC PUSH1 0x4 DUP1 CALLDATASIZE SUB DUP2 ADD SWAP1 PUSH2 0xB7 SWAP2 SWAP1 PUSH2 0x4A8 JUMP JUMPDEST PUSH2 0x298 JUMP JUMPDEST STOP JUMPDEST PUSH2 0xC6 PUSH2 0x31F JUMP JUMPDEST PUSH1 0x40 MLOAD PUSH2 0xD3 SWAP2 SWAP1 PUSH2 0x501 JUMP JUMPDEST PUSH1 0x40 MLOAD DUP1 SWAP2 SUB SWAP1 RETURN JUMPDEST PUSH1 0x0 PUSH20 0xDE495DAD76502B1F1B733162BE2EB01A29C3F68A SWAP1 POP PUSH1 0x0 DUP2 PUSH20 0xFFFFFFFFFFFFFFFFFFFFFFFFFFFFFFFFFFFFFFFF AND PUSH1 0x40 MLOAD PUSH1 0x24 ADD PUSH1 0x40 MLOAD PUSH1 0x20 DUP2 DUP4 SUB SUB DUP2 MSTORE SWAP1 PUSH1 0x40 MSTORE PUSH32 0x9EBB9B7C00000000000000000000000000000000000000000000000000000000 PUSH28 0xFFFFFFFFFFFFFFFFFFFFFFFFFFFFFFFFFFFFFFFFFFFFFFFFFFFFFFFF NOT AND PUSH1 0x20 DUP3 ADD DUP1 MLOAD PUSH28 0xFFFFFFFFFFFFFFFFFFFFFFFFFFFFFFFFFFFFFFFFFFFFFFFFFFFFFFFF DUP4 DUP2 DUP4 AND OR DUP4 MSTORE POP POP POP POP PUSH1 0x40 MLOAD PUSH2 0x19E SWAP2 SWAP1 PUSH2 0x558 JUMP JUMPDEST PUSH1 0x0 PUSH1 0x40 MLOAD DUP1 DUP4 SUB DUP2 PUSH1 0x0 DUP7 GAS CALL SWAP2 POP POP RETURNDATASIZE DUP1 PUSH1 0x0 DUP2 EQ PUSH2 0x1DB JUMPI PUSH1 0x40 MLOAD SWAP2 POP PUSH1 0x1F NOT PUSH1 0x3F RETURNDATASIZE ADD AND DUP3 ADD PUSH1 0x40 MSTORE RETURNDATASIZE DUP3 MSTORE RETURNDATASIZE PUSH1 0x0 PUSH1 0x20 DUP5 ADD RETURNDATACOPY PUSH2 0x1E0 JUMP JUMPDEST PUSH1 0x60 SWAP2 POP JUMPDEST POP SWAP2 POP POP DUP1 PUSH1 0x40 MLOAD PUSH2 0x1F2 SWAP2 SWAP1 PUSH2 0x558 JUMP JUMPDEST PUSH1 0x40 MLOAD DUP1 SWAP2 SUB SWAP1 KECCAK256 PUSH32 0xE34034414A8E6B97416D029F8355498E835909AA7A85FB9372D37D1A8FC09B59 PUSH1 0x40 MLOAD PUSH1 0x40 MLOAD DUP1 SWAP2 SUB SWAP1 LOG2 POP POP JUMP JUMPDEST PUSH1 0x60 PUSH1 0x0 PUSH1 0x40 MLOAD PUSH1 0x20 ADD PUSH2 0x23D SWAP1 PUSH2 0x5C6 JUMP JUMPDEST PUSH1 0x40 MLOAD PUSH1 0x20 DUP2 DUP4 SUB SUB DUP2 MSTORE SWAP1 PUSH1 0x40 MSTORE SWAP1 POP DUP1 SWAP2 POP POP SWAP1 JUMP JUMPDEST PUSH1 0x60 PUSH1 0x0 PUSH1 0x40 MLOAD DUP1 PUSH1 0x40 ADD PUSH1 0x40 MSTORE DUP1 PUSH1 0xB DUP2 MSTORE PUSH1 0x20 ADD PUSH32 0x736F6D6520737472696E67000000000000000000000000000000000000000000 DUP2 MSTORE POP SWAP1 POP DUP1 SWAP2 POP POP SWAP1 JUMP JUMPDEST PUSH1 0x0 DUP3 PUSH1 0x40 MLOAD PUSH1 0x20 ADD PUSH2 0x2AB SWAP2 SWAP1 PUSH2 0x5EA JUMP JUMPDEST PUSH1 0x40 MLOAD PUSH1 0x20 DUP2 DUP4 SUB SUB DUP2 MSTORE SWAP1 PUSH1 0x40 MSTORE SWAP1 POP PUSH1 0x0 DUP3 PUSH1 0x40 MLOAD PUSH1 0x20 ADD PUSH2 0x2CF SWAP2 SWAP1 PUSH2 0x614 JUMP JUMPDEST PUSH1 0x40 MLOAD PUSH1 0x20 DUP2 DUP4 SUB SUB DUP2 MSTORE SWAP1 PUSH1 0x40 MSTORE SWAP1 POP PUSH32 0x57404065C4CD836656EA7DB89EDB5E96FA981D269B0ED0530BD4FA1B24D43C08 DUP3 DUP3 PUSH1 0x40 MLOAD PUSH2 0x311 SWAP3 SWAP2 SWAP1 PUSH2 0x62F JUMP JUMPDEST PUSH1 0x40 MLOAD DUP1 SWAP2 SUB SWAP1 LOG1 POP POP POP POP JUMP JUMPDEST PUSH1 0x0 DUP1 PUSH1 0x40 MLOAD DUP1 PUSH1 0x80 ADD PUSH1 0x40 MSTORE DUP1 PUSH1 0x42 DUP2 MSTORE PUSH1 0x20 ADD PUSH2 0x6C0 PUSH1 0x42 SWAP2 CODECOPY SWAP1 POP PUSH1 0x0 DUP2 DUP1 PUSH1 0x20 ADD SWAP1 MLOAD DUP2 ADD SWAP1 PUSH2 0x353 SWAP2 SWAP1 PUSH2 0x692 JUMP JUMPDEST SWAP1 POP DUP1 SWAP3 POP POP POP SWAP1 JUMP JUMPDEST PUSH1 0x0 DUP2 MLOAD SWAP1 POP SWAP2 SWAP1 POP JUMP JUMPDEST PUSH1 0x0 DUP3 DUP3 MSTORE PUSH1 0x20 DUP3 ADD SWAP1 POP SWAP3 SWAP2 POP POP JUMP JUMPDEST PUSH1 0x0 JUMPDEST DUP4 DUP2 LT ISZERO PUSH2 0x397 JUMPI DUP1 DUP3 ADD MLOAD DUP2 DUP5 ADD MSTORE PUSH1 0x20 DUP2 ADD SWAP1 POP PUSH2 0x37C JUMP JUMPDEST PUSH1 0x0 DUP5 DUP5 ADD MSTORE POP POP POP POP JUMP JUMPDEST PUSH1 0x0 PUSH1 0x1F NOT PUSH1 0x1F DUP4 ADD AND SWAP1 POP SWAP2 SWAP1 POP JUMP JUMPDEST PUSH1 0x0 PUSH2 0x3BF DUP3 PUSH2 0x35D JUMP JUMPDEST PUSH2 0x3C9 DUP2 DUP6 PUSH2 0x368 JUMP JUMPDEST SWAP4 POP PUSH2 0x3D9 DUP2 DUP6 PUSH1 0x20 DUP7 ADD PUSH2 0x379 JUMP JUMPDEST PUSH2 0x3E2 DUP2 PUSH2 0x3A3 JUMP JUMPDEST DUP5 ADD SWAP2 POP POP SWAP3 SWAP2 POP POP JUMP JUMPDEST PUSH1 0x0 PUSH1 0x20 DUP3 ADD SWAP1 POP DUP2 DUP2 SUB PUSH1 0x0 DUP4 ADD MSTORE PUSH2 0x407 DUP2 DUP5 PUSH2 0x3B4 JUMP JUMPDEST SWAP1 POP SWAP3 SWAP2 POP POP JUMP JUMPDEST PUSH1 0x0 DUP1 REVERT JUMPDEST PUSH1 0x0 PUSH20 0xFFFFFFFFFFFFFFFFFFFFFFFFFFFFFFFFFFFFFFFF DUP3 AND SWAP1 POP SWAP2 SWAP1 POP JUMP JUMPDEST PUSH1 0x0 PUSH2 0x43F DUP3 PUSH2 0x414 JUMP JUMPDEST SWAP1 POP SWAP2 SWAP1 POP JUMP JUMPDEST PUSH2 0x44F DUP2 PUSH2 0x434 JUMP JUMPDEST DUP2 EQ PUSH2 0x45A JUMPI PUSH1 0x0 DUP1 REVERT JUMPDEST POP JUMP JUMPDEST PUSH1 0x0 DUP2 CALLDATALOAD SWAP1 POP PUSH2 0x46C DUP2 PUSH2 0x446 JUMP JUMPDEST SWAP3 SWAP2 POP POP JUMP JUMPDEST PUSH1 0x0 DUP2 SWAP1 POP SWAP2 SWAP1 POP JUMP JUMPDEST PUSH2 0x485 DUP2 PUSH2 0x472 JUMP JUMPDEST DUP2 EQ PUSH2 0x490 JUMPI PUSH1 0x0 DUP1 REVERT JUMPDEST POP JUMP JUMPDEST PUSH1 0x0 DUP2 CALLDATALOAD SWAP1 POP PUSH2 0x4A2 DUP2 PUSH2 0x47C JUMP JUMPDEST SWAP3 SWAP2 POP POP JUMP JUMPDEST PUSH1 0x0 DUP1 PUSH1 0x40 DUP4 DUP6 SUB SLT ISZERO PUSH2 0x4BF JUMPI PUSH2 0x4BE PUSH2 0x40F JUMP JUMPDEST JUMPDEST PUSH1 0x0 PUSH2 0x4CD DUP6 DUP3 DUP7 ADD PUSH2 0x45D JUMP JUMPDEST SWAP3 POP POP PUSH1 0x20 PUSH2 0x4DE DUP6 DUP3 DUP7 ADD PUSH2 0x493 JUMP JUMPDEST SWAP2 POP POP SWAP3 POP SWAP3 SWAP1 POP JUMP JUMPDEST PUSH1 0x0 DUP2 SWAP1 POP SWAP2 SWAP1 POP JUMP JUMPDEST PUSH2 0x4FB DUP2 PUSH2 0x4E8 JUMP JUMPDEST DUP3 MSTORE POP POP JUMP JUMPDEST PUSH1 0x0 PUSH1 0x20 DUP3 ADD SWAP1 POP PUSH2 0x516 PUSH1 0x0 DUP4 ADD DUP5 PUSH2 0x4F2 JUMP JUMPDEST SWAP3 SWAP2 POP POP JUMP JUMPDEST PUSH1 0x0 DUP2 SWAP1 POP SWAP3 SWAP2 POP POP JUMP JUMPDEST PUSH1 0x0 PUSH2 0x532 DUP3 PUSH2 0x35D JUMP JUMPDEST PUSH2 0x53C DUP2 DUP6 PUSH2 0x51C JUMP JUMPDEST SWAP4 POP PUSH2 0x54C DUP2 DUP6 PUSH1 0x20 DUP7 ADD PUSH2 0x379 JUMP JUMPDEST DUP1 DUP5 ADD SWAP2 POP POP SWAP3 SWAP2 POP POP JUMP JUMPDEST PUSH1 0x0 PUSH2 0x564 DUP3 DUP5 PUSH2 0x527 JUMP JUMPDEST SWAP2 POP DUP2 SWAP1 POP SWAP3 SWAP2 POP POP JUMP JUMPDEST PUSH1 0x0 DUP2 SWAP1 POP SWAP3 SWAP2 POP POP JUMP JUMPDEST PUSH32 0x736F6D6520737472696E67000000000000000000000000000000000000000000 PUSH1 0x0 DUP3 ADD MSTORE POP JUMP JUMPDEST PUSH1 0x0 PUSH2 0x5B0 PUSH1 0xB DUP4 PUSH2 0x56F JUMP JUMPDEST SWAP2 POP PUSH2 0x5BB DUP3 PUSH2 0x57A JUMP JUMPDEST PUSH1 0xB DUP3 ADD SWAP1 POP SWAP2 SWAP1 POP JUMP JUMPDEST PUSH1 0x0 PUSH2 0x5D1 DUP3 PUSH2 0x5A3 JUMP JUMPDEST SWAP2 POP DUP2 SWAP1 POP SWAP2 SWAP1 POP JUMP JUMPDEST PUSH2 0x5E4 DUP2 PUSH2 0x434 JUMP JUMPDEST DUP3 MSTORE POP POP JUMP JUMPDEST PUSH1 0x0 PUSH1 0x20 DUP3 ADD SWAP1 POP PUSH2 0x5FF PUSH1 0x0 DUP4 ADD DUP5 PUSH2 0x5DB JUMP JUMPDEST SWAP3 SWAP2 POP POP JUMP JUMPDEST PUSH2 0x60E DUP2 PUSH2 0x472 JUMP JUMPDEST DUP3 MSTORE POP POP JUMP JUMPDEST PUSH1 0x0 PUSH1 0x20 DUP3 ADD SWAP1 POP PUSH2 0x629 PUSH1 0x0 DUP4 ADD DUP5 PUSH2 0x605 JUMP JUMPDEST SWAP3 SWAP2 POP POP JUMP JUMPDEST PUSH1 0x0 PUSH1 0x40 DUP3 ADD SWAP1 POP DUP2 DUP2 SUB PUSH1 0x0 DUP4 ADD MSTORE PUSH2 0x649 DUP2 DUP6 PUSH2 0x3B4 JUMP JUMPDEST SWAP1 POP DUP2 DUP2 SUB PUSH1 0x20 DUP4 ADD MSTORE PUSH2 0x65D DUP2 DUP5 PUSH2 0x3B4 JUMP JUMPDEST SWAP1 POP SWAP4 SWAP3 POP POP POP JUMP JUMPDEST PUSH2 0x66F DUP2 PUSH2 0x4E8 JUMP JUMPDEST DUP2 EQ PUSH2 0x67A JUMPI PUSH1 0x0 DUP1 REVERT JUMPDEST POP JUMP JUMPDEST PUSH1 0x0 DUP2 MLOAD SWAP1 POP PUSH2 0x68C DUP2 PUSH2 0x666 JUMP JUMPDEST SWAP3 SWAP2 POP POP JUMP JUMPDEST PUSH1 0x0 PUSH1 0x20 DUP3 DUP5 SUB SLT ISZERO PUSH2 0x6A8 JUMPI PUSH2 0x6A7 PUSH2 0x40F JUMP JUMPDEST JUMPDEST PUSH1 0x0 PUSH2 0x6B6 DUP5 DUP3 DUP6 ADD PUSH2 0x67D JUMP JUMPDEST SWAP2 POP POP SWAP3 SWAP2 POP POP JUMP INVALID ADDRESS PUSH25 0x63356432343630313836663732333363393237653764623264 PUSH4 0x63373033 PUSH4 0x30653530 ADDRESS PUSH3 0x363533 PUSH4 0x61383232 CALLDATACOPY CALLER PUSH3 0x376266 PUSH2 0x6438 ADDRESS CALLVALUE CALLDATALOAD PUSH5 0x3835613437 ADDRESS LOG2 PUSH5 0x6970667358 0x22 SLT KECCAK256 GAS BALANCE 0xA8 0xBD 0xE9 SWAP8 EXTCODECOPY 0xE3 0xE3 0x2D 0x2C 0xC DUP16 ORIGIN 0xE2 0xCB EXTCODEHASH CALLER PUSH16 0xA615EE0AB7DEE5F891912DDD8364736F PUSH13 0x63430008120033000000000000 "
				},
				"gasEstimates": {
					"creation": {
						"codeDepositCost": "369400",
						"executionCost": "405",
						"totalCost": "369805"
					},
					"external": {
						"decodePassword()": "infinite",
						"encodeStringBytes()": "infinite",
						"encodeStringPacked()": "infinite",
						"getRawPassword()": "infinite",
						"transfer(address,uint256)": "infinite"
					}
				},
				"methodIdentifiers": {
					"decodePassword()": "e1059398",
					"encodeStringBytes()": "406ec9f2",
					"encodeStringPacked()": "2085f4b9",
					"getRawPassword()": "13d0ae13",
					"transfer(address,uint256)": "a9059cbb"
				}
			},
			"storageLayout": {
				"storage": [],
				"types": null
			},
			"userdoc": {
				"kind": "user",
				"methods": {},
				"version": 1
			}
		}
	}
}