{
	"Lesson-1-abi.sol": {
		"AbiTest": {
			"abi": [
				{
					"inputs": [
						{
							"internalType": "bytes",
							"name": "data",
							"type": "bytes"
						}
					],
					"name": "abiDecode",
					"outputs": [
						{
							"internalType": "address",
							"name": "_addr",
							"type": "address"
						},
						{
							"internalType": "uint256",
							"name": "_number",
							"type": "uint256"
						}
					],
					"stateMutability": "pure",
					"type": "function"
				},
				{
					"inputs": [
						{
							"internalType": "bytes",
							"name": "data",
							"type": "bytes"
						}
					],
					"name": "abiDecodePacked",
					"outputs": [
						{
							"internalType": "address",
							"name": "_addr",
							"type": "address"
						},
						{
							"internalType": "uint256",
							"name": "_uint",
							"type": "uint256"
						}
					],
					"stateMutability": "pure",
					"type": "function"
				},
				{
					"inputs": [
						{
							"internalType": "uint256",
							"name": "_uint1",
							"type": "uint256"
						}
					],
					"name": "abiEncod1",
					"outputs": [
						{
							"internalType": "bytes",
							"name": "",
							"type": "bytes"
						}
					],
					"stateMutability": "pure",
					"type": "function"
				},
				{
					"inputs": [
						{
							"internalType": "uint256",
							"name": "_uint",
							"type": "uint256"
						}
					],
					"name": "abiEncode",
					"outputs": [
						{
							"internalType": "bytes",
							"name": "",
							"type": "bytes"
						}
					],
					"stateMutability": "view",
					"type": "function"
				},
				{
					"inputs": [
						{
							"internalType": "uint256",
							"name": "_uint1",
							"type": "uint256"
						},
						{
							"internalType": "uint256",
							"name": "_uint2",
							"type": "uint256"
						}
					],
					"name": "abiEncode2",
					"outputs": [
						{
							"internalType": "bytes",
							"name": "",
							"type": "bytes"
						}
					],
					"stateMutability": "view",
					"type": "function"
				},
				{
					"inputs": [
						{
							"internalType": "uint256",
							"name": "_uint",
							"type": "uint256"
						}
					],
					"name": "abiEncodePacked",
					"outputs": [
						{
							"internalType": "bytes",
							"name": "",
							"type": "bytes"
						}
					],
					"stateMutability": "view",
					"type": "function"
				}
			],
			"devdoc": {
				"kind": "dev",
				"methods": {},
				"version": 1
			},
			"evm": {
				"assembly": "    /* \"Lesson-1-abi.sol\":70:2077  contract AbiTest {... */\n  mstore(0x40, 0x80)\n  callvalue\n  dup1\n  iszero\n  tag_1\n  jumpi\n  0x00\n  dup1\n  revert\ntag_1:\n  pop\n  dataSize(sub_0)\n  dup1\n  dataOffset(sub_0)\n  0x00\n  codecopy\n  0x00\n  return\nstop\n\nsub_0: assembly {\n        /* \"Lesson-1-abi.sol\":70:2077  contract AbiTest {... */\n      mstore(0x40, 0x80)\n      callvalue\n      dup1\n      iszero\n      tag_1\n      jumpi\n      0x00\n      dup1\n      revert\n    tag_1:\n      pop\n      jumpi(tag_2, lt(calldatasize, 0x04))\n      shr(0xe0, calldataload(0x00))\n      dup1\n      0x25ccda6d\n      eq\n      tag_3\n      jumpi\n      dup1\n      0x354df575\n      eq\n      tag_4\n      jumpi\n      dup1\n      0x416bdc52\n      eq\n      tag_5\n      jumpi\n      dup1\n      0xb3385f9e\n      eq\n      tag_6\n      jumpi\n      dup1\n      0xf4df11df\n      eq\n      tag_7\n      jumpi\n      dup1\n      0xf7382448\n      eq\n      tag_8\n      jumpi\n    tag_2:\n      0x00\n      dup1\n      revert\n        /* \"Lesson-1-abi.sol\":1538:1672  function abiEncodePacked(uint256 _uint) public view returns (bytes memory) {... */\n    tag_3:\n      tag_9\n      0x04\n      dup1\n      calldatasize\n      sub\n      dup2\n      add\n      swap1\n      tag_10\n      swap2\n      swap1\n      tag_11\n      jump\t// in\n    tag_10:\n      tag_12\n      jump\t// in\n    tag_9:\n      mload(0x40)\n      tag_13\n      swap2\n      swap1\n      tag_14\n      jump\t// in\n    tag_13:\n      mload(0x40)\n      dup1\n      swap2\n      sub\n      swap1\n      return\n        /* \"Lesson-1-abi.sol\":1098:1235  function abiEncode2(uint256 _uint1, uint256 _uint2) public view returns (bytes memory) {... */\n    tag_4:\n      tag_15\n      0x04\n      dup1\n      calldatasize\n      sub\n      dup2\n      add\n      swap1\n      tag_16\n      swap2\n      swap1\n      tag_17\n      jump\t// in\n    tag_16:\n      tag_18\n      jump\t// in\n    tag_15:\n      mload(0x40)\n      tag_19\n      swap2\n      swap1\n      tag_14\n      jump\t// in\n    tag_19:\n      mload(0x40)\n      dup1\n      swap2\n      sub\n      swap1\n      return\n        /* \"Lesson-1-abi.sol\":1241:1404  function abiDecode(bytes memory data) public pure returns (address _addr, uint256 _number) {... */\n    tag_5:\n      tag_20\n      0x04\n      dup1\n      calldatasize\n      sub\n      dup2\n      add\n      swap1\n      tag_21\n      swap2\n      swap1\n      tag_22\n      jump\t// in\n    tag_21:\n      tag_23\n      jump\t// in\n    tag_20:\n      mload(0x40)\n      tag_24\n      swap3\n      swap2\n      swap1\n      tag_25\n      jump\t// in\n    tag_24:\n      mload(0x40)\n      dup1\n      swap2\n      sub\n      swap1\n      return\n        /* \"Lesson-1-abi.sol\":820:930  function abiEncod1(uint256 _uint1) public pure returns(bytes memory){... */\n    tag_6:\n      tag_26\n      0x04\n      dup1\n      calldatasize\n      sub\n      dup2\n      add\n      swap1\n      tag_27\n      swap2\n      swap1\n      tag_11\n      jump\t// in\n    tag_27:\n      tag_28\n      jump\t// in\n    tag_26:\n      mload(0x40)\n      tag_29\n      swap2\n      swap1\n      tag_14\n      jump\t// in\n    tag_29:\n      mload(0x40)\n      dup1\n      swap2\n      sub\n      swap1\n      return\n        /* \"Lesson-1-abi.sol\":1410:1532  function abiEncode(uint256 _uint) public view returns (bytes memory) {... */\n    tag_7:\n      tag_30\n      0x04\n      dup1\n      calldatasize\n      sub\n      dup2\n      add\n      swap1\n      tag_31\n      swap2\n      swap1\n      tag_11\n      jump\t// in\n    tag_31:\n      tag_32\n      jump\t// in\n    tag_30:\n      mload(0x40)\n      tag_33\n      swap2\n      swap1\n      tag_14\n      jump\t// in\n    tag_33:\n      mload(0x40)\n      dup1\n      swap2\n      sub\n      swap1\n      return\n        /* \"Lesson-1-abi.sol\":1678:2075  function abiDecodePacked(bytes memory data) public pure returns (address _addr, uint256 _uint) {... */\n    tag_8:\n      tag_34\n      0x04\n      dup1\n      calldatasize\n      sub\n      dup2\n      add\n      swap1\n      tag_35\n      swap2\n      swap1\n      tag_22\n      jump\t// in\n    tag_35:\n      tag_36\n      jump\t// in\n    tag_34:\n      mload(0x40)\n      tag_37\n      swap3\n      swap2\n      swap1\n      tag_25\n      jump\t// in\n    tag_37:\n      mload(0x40)\n      dup1\n      swap2\n      sub\n      swap1\n      return\n        /* \"Lesson-1-abi.sol\":1538:1672  function abiEncodePacked(uint256 _uint) public view returns (bytes memory) {... */\n    tag_12:\n        /* \"Lesson-1-abi.sol\":1599:1611  bytes memory */\n      0x60\n        /* \"Lesson-1-abi.sol\":1647:1657  msg.sender */\n      caller\n        /* \"Lesson-1-abi.sol\":1659:1664  _uint */\n      dup3\n        /* \"Lesson-1-abi.sol\":1630:1665  abi.encodePacked(msg.sender, _uint) */\n      add(0x20, mload(0x40))\n      tag_39\n      swap3\n      swap2\n      swap1\n      tag_40\n      jump\t// in\n    tag_39:\n      mload(0x40)\n      0x20\n      dup2\n      dup4\n      sub\n      sub\n      dup2\n      mstore\n      swap1\n      0x40\n      mstore\n        /* \"Lesson-1-abi.sol\":1623:1665  return abi.encodePacked(msg.sender, _uint) */\n      swap1\n      pop\n        /* \"Lesson-1-abi.sol\":1538:1672  function abiEncodePacked(uint256 _uint) public view returns (bytes memory) {... */\n      swap2\n      swap1\n      pop\n      jump\t// out\n        /* \"Lesson-1-abi.sol\":1098:1235  function abiEncode2(uint256 _uint1, uint256 _uint2) public view returns (bytes memory) {... */\n    tag_18:\n        /* \"Lesson-1-abi.sol\":1171:1183  bytes memory */\n      0x60\n        /* \"Lesson-1-abi.sol\":1213:1219  _uint1 */\n      dup3\n        /* \"Lesson-1-abi.sol\":1221:1227  _uint2 */\n      dup3\n        /* \"Lesson-1-abi.sol\":1202:1228  abi.encode(_uint1, _uint2) */\n      add(0x20, mload(0x40))\n      tag_42\n      swap3\n      swap2\n      swap1\n      tag_43\n      jump\t// in\n    tag_42:\n      mload(0x40)\n      0x20\n      dup2\n      dup4\n      sub\n      sub\n      dup2\n      mstore\n      swap1\n      0x40\n      mstore\n        /* \"Lesson-1-abi.sol\":1195:1228  return abi.encode(_uint1, _uint2) */\n      swap1\n      pop\n        /* \"Lesson-1-abi.sol\":1098:1235  function abiEncode2(uint256 _uint1, uint256 _uint2) public view returns (bytes memory) {... */\n      swap3\n      swap2\n      pop\n      pop\n      jump\t// out\n        /* \"Lesson-1-abi.sol\":1241:1404  function abiDecode(bytes memory data) public pure returns (address _addr, uint256 _number) {... */\n    tag_23:\n        /* \"Lesson-1-abi.sol\":1300:1313  address _addr */\n      0x00\n        /* \"Lesson-1-abi.sol\":1315:1330  uint256 _number */\n      dup1\n        /* \"Lesson-1-abi.sol\":1372:1376  data */\n      dup3\n        /* \"Lesson-1-abi.sol\":1361:1397  abi.decode(data, (address, uint256)) */\n      dup1\n      0x20\n      add\n      swap1\n      mload\n      dup2\n      add\n      swap1\n      tag_45\n      swap2\n      swap1\n      tag_46\n      jump\t// in\n    tag_45:\n        /* \"Lesson-1-abi.sol\":1342:1397  (_addr, _number) = abi.decode(data, (address, uint256)) */\n      dup1\n      swap3\n      pop\n      dup2\n      swap4\n      pop\n      pop\n      pop\n        /* \"Lesson-1-abi.sol\":1241:1404  function abiDecode(bytes memory data) public pure returns (address _addr, uint256 _number) {... */\n      swap2\n      pop\n      swap2\n      jump\t// out\n        /* \"Lesson-1-abi.sol\":820:930  function abiEncod1(uint256 _uint1) public pure returns(bytes memory){... */\n    tag_28:\n        /* \"Lesson-1-abi.sol\":875:887  bytes memory */\n      0x60\n        /* \"Lesson-1-abi.sol\":916:922  _uint1 */\n      dup2\n        /* \"Lesson-1-abi.sol\":905:923  abi.encode(_uint1) */\n      add(0x20, mload(0x40))\n      tag_48\n      swap2\n      swap1\n      tag_49\n      jump\t// in\n    tag_48:\n      mload(0x40)\n      0x20\n      dup2\n      dup4\n      sub\n      sub\n      dup2\n      mstore\n      swap1\n      0x40\n      mstore\n        /* \"Lesson-1-abi.sol\":898:923  return abi.encode(_uint1) */\n      swap1\n      pop\n        /* \"Lesson-1-abi.sol\":820:930  function abiEncod1(uint256 _uint1) public pure returns(bytes memory){... */\n      swap2\n      swap1\n      pop\n      jump\t// out\n        /* \"Lesson-1-abi.sol\":1410:1532  function abiEncode(uint256 _uint) public view returns (bytes memory) {... */\n    tag_32:\n        /* \"Lesson-1-abi.sol\":1465:1477  bytes memory */\n      0x60\n        /* \"Lesson-1-abi.sol\":1507:1517  msg.sender */\n      caller\n        /* \"Lesson-1-abi.sol\":1519:1524  _uint */\n      dup3\n        /* \"Lesson-1-abi.sol\":1496:1525  abi.encode(msg.sender, _uint) */\n      add(0x20, mload(0x40))\n      tag_51\n      swap3\n      swap2\n      swap1\n      tag_25\n      jump\t// in\n    tag_51:\n      mload(0x40)\n      0x20\n      dup2\n      dup4\n      sub\n      sub\n      dup2\n      mstore\n      swap1\n      0x40\n      mstore\n        /* \"Lesson-1-abi.sol\":1489:1525  return abi.encode(msg.sender, _uint) */\n      swap1\n      pop\n        /* \"Lesson-1-abi.sol\":1410:1532  function abiEncode(uint256 _uint) public view returns (bytes memory) {... */\n      swap2\n      swap1\n      pop\n      jump\t// out\n        /* \"Lesson-1-abi.sol\":1678:2075  function abiDecodePacked(bytes memory data) public pure returns (address _addr, uint256 _uint) {... */\n    tag_36:\n        /* \"Lesson-1-abi.sol\":1743:1756  address _addr */\n      0x00\n        /* \"Lesson-1-abi.sol\":1758:1771  uint256 _uint */\n      dup1\n        /* \"Lesson-1-abi.sol\":1783:1805  uint256 ADDRESS_LENGTH */\n      0x00\n        /* \"Lesson-1-abi.sol\":1808:1812  0x14 */\n      0x14\n        /* \"Lesson-1-abi.sol\":1783:1812  uint256 ADDRESS_LENGTH = 0x14 */\n      swap1\n      pop\n        /* \"Lesson-1-abi.sol\":1822:1844  uint256 UINT256_LENGTH */\n      0x00\n        /* \"Lesson-1-abi.sol\":1847:1851  0x20 */\n      0x20\n        /* \"Lesson-1-abi.sol\":1822:1851  uint256 UINT256_LENGTH = 0x20 */\n      swap1\n      pop\n        /* \"Lesson-1-abi.sol\":1862:1871  address x */\n      0x00\n        /* \"Lesson-1-abi.sol\":1881:1887  uint y */\n      dup1\n        /* \"Lesson-1-abi.sol\":1941:1955  ADDRESS_LENGTH */\n      dup4\n        /* \"Lesson-1-abi.sol\":1935:1939  data */\n      dup8\n        /* \"Lesson-1-abi.sol\":1931:1956  add(data, ADDRESS_LENGTH) */\n      add\n        /* \"Lesson-1-abi.sol\":1925:1957  mload(add(data, ADDRESS_LENGTH)) */\n      mload\n        /* \"Lesson-1-abi.sol\":1920:1957  x := mload(add(data, ADDRESS_LENGTH)) */\n      swap2\n      pop\n        /* \"Lesson-1-abi.sol\":2011:2025  UINT256_LENGTH */\n      dup3\n        /* \"Lesson-1-abi.sol\":1995:2009  ADDRESS_LENGTH */\n      dup5\n        /* \"Lesson-1-abi.sol\":1991:2026  add(ADDRESS_LENGTH, UINT256_LENGTH) */\n      add\n        /* \"Lesson-1-abi.sol\":1985:1989  data */\n      dup8\n        /* \"Lesson-1-abi.sol\":1981:2027  add(data, add(ADDRESS_LENGTH, UINT256_LENGTH)) */\n      add\n        /* \"Lesson-1-abi.sol\":1975:2028  mload(add(data, add(ADDRESS_LENGTH, UINT256_LENGTH))) */\n      mload\n        /* \"Lesson-1-abi.sol\":1970:2028  y := mload(add(data, add(ADDRESS_LENGTH, UINT256_LENGTH))) */\n      swap1\n      pop\n        /* \"Lesson-1-abi.sol\":2064:2065  x */\n      dup2\n        /* \"Lesson-1-abi.sol\":2066:2067  y */\n      dup2\n        /* \"Lesson-1-abi.sol\":2056:2068  return (x,y) */\n      swap6\n      pop\n      swap6\n      pop\n      pop\n      pop\n      pop\n      pop\n        /* \"Lesson-1-abi.sol\":1678:2075  function abiDecodePacked(bytes memory data) public pure returns (address _addr, uint256 _uint) {... */\n      swap2\n      pop\n      swap2\n      jump\t// out\n        /* \"#utility.yul\":7:82   */\n    tag_53:\n        /* \"#utility.yul\":40:46   */\n      0x00\n        /* \"#utility.yul\":73:75   */\n      0x40\n        /* \"#utility.yul\":67:76   */\n      mload\n        /* \"#utility.yul\":57:76   */\n      swap1\n      pop\n        /* \"#utility.yul\":7:82   */\n      swap1\n      jump\t// out\n        /* \"#utility.yul\":88:205   */\n    tag_54:\n        /* \"#utility.yul\":197:198   */\n      0x00\n        /* \"#utility.yul\":194:195   */\n      dup1\n        /* \"#utility.yul\":187:199   */\n      revert\n        /* \"#utility.yul\":211:328   */\n    tag_55:\n        /* \"#utility.yul\":320:321   */\n      0x00\n        /* \"#utility.yul\":317:318   */\n      dup1\n        /* \"#utility.yul\":310:322   */\n      revert\n        /* \"#utility.yul\":334:411   */\n    tag_56:\n        /* \"#utility.yul\":371:378   */\n      0x00\n        /* \"#utility.yul\":400:405   */\n      dup2\n        /* \"#utility.yul\":389:405   */\n      swap1\n      pop\n        /* \"#utility.yul\":334:411   */\n      swap2\n      swap1\n      pop\n      jump\t// out\n        /* \"#utility.yul\":417:539   */\n    tag_57:\n        /* \"#utility.yul\":490:514   */\n      tag_93\n        /* \"#utility.yul\":508:513   */\n      dup2\n        /* \"#utility.yul\":490:514   */\n      tag_56\n      jump\t// in\n    tag_93:\n        /* \"#utility.yul\":483:488   */\n      dup2\n        /* \"#utility.yul\":480:515   */\n      eq\n        /* \"#utility.yul\":470:533   */\n      tag_94\n      jumpi\n        /* \"#utility.yul\":529:530   */\n      0x00\n        /* \"#utility.yul\":526:527   */\n      dup1\n        /* \"#utility.yul\":519:531   */\n      revert\n        /* \"#utility.yul\":470:533   */\n    tag_94:\n        /* \"#utility.yul\":417:539   */\n      pop\n      jump\t// out\n        /* \"#utility.yul\":545:684   */\n    tag_58:\n        /* \"#utility.yul\":591:596   */\n      0x00\n        /* \"#utility.yul\":629:635   */\n      dup2\n        /* \"#utility.yul\":616:636   */\n      calldataload\n        /* \"#utility.yul\":607:636   */\n      swap1\n      pop\n        /* \"#utility.yul\":645:678   */\n      tag_96\n        /* \"#utility.yul\":672:677   */\n      dup2\n        /* \"#utility.yul\":645:678   */\n      tag_57\n      jump\t// in\n    tag_96:\n        /* \"#utility.yul\":545:684   */\n      swap3\n      swap2\n      pop\n      pop\n      jump\t// out\n        /* \"#utility.yul\":690:1019   */\n    tag_11:\n        /* \"#utility.yul\":749:755   */\n      0x00\n        /* \"#utility.yul\":798:800   */\n      0x20\n        /* \"#utility.yul\":786:795   */\n      dup3\n        /* \"#utility.yul\":777:784   */\n      dup5\n        /* \"#utility.yul\":773:796   */\n      sub\n        /* \"#utility.yul\":769:801   */\n      slt\n        /* \"#utility.yul\":766:885   */\n      iszero\n      tag_98\n      jumpi\n        /* \"#utility.yul\":804:883   */\n      tag_99\n      tag_54\n      jump\t// in\n    tag_99:\n        /* \"#utility.yul\":766:885   */\n    tag_98:\n        /* \"#utility.yul\":924:925   */\n      0x00\n        /* \"#utility.yul\":949:1002   */\n      tag_100\n        /* \"#utility.yul\":994:1001   */\n      dup5\n        /* \"#utility.yul\":985:991   */\n      dup3\n        /* \"#utility.yul\":974:983   */\n      dup6\n        /* \"#utility.yul\":970:992   */\n      add\n        /* \"#utility.yul\":949:1002   */\n      tag_58\n      jump\t// in\n    tag_100:\n        /* \"#utility.yul\":939:1002   */\n      swap2\n      pop\n        /* \"#utility.yul\":895:1012   */\n      pop\n        /* \"#utility.yul\":690:1019   */\n      swap3\n      swap2\n      pop\n      pop\n      jump\t// out\n        /* \"#utility.yul\":1025:1123   */\n    tag_59:\n        /* \"#utility.yul\":1076:1082   */\n      0x00\n        /* \"#utility.yul\":1110:1115   */\n      dup2\n        /* \"#utility.yul\":1104:1116   */\n      mload\n        /* \"#utility.yul\":1094:1116   */\n      swap1\n      pop\n        /* \"#utility.yul\":1025:1123   */\n      swap2\n      swap1\n      pop\n      jump\t// out\n        /* \"#utility.yul\":1129:1297   */\n    tag_60:\n        /* \"#utility.yul\":1212:1223   */\n      0x00\n        /* \"#utility.yul\":1246:1252   */\n      dup3\n        /* \"#utility.yul\":1241:1244   */\n      dup3\n        /* \"#utility.yul\":1234:1253   */\n      mstore\n        /* \"#utility.yul\":1286:1290   */\n      0x20\n        /* \"#utility.yul\":1281:1284   */\n      dup3\n        /* \"#utility.yul\":1277:1291   */\n      add\n        /* \"#utility.yul\":1262:1291   */\n      swap1\n      pop\n        /* \"#utility.yul\":1129:1297   */\n      swap3\n      swap2\n      pop\n      pop\n      jump\t// out\n        /* \"#utility.yul\":1303:1549   */\n    tag_61:\n        /* \"#utility.yul\":1384:1385   */\n      0x00\n        /* \"#utility.yul\":1394:1507   */\n    tag_104:\n        /* \"#utility.yul\":1408:1414   */\n      dup4\n        /* \"#utility.yul\":1405:1406   */\n      dup2\n        /* \"#utility.yul\":1402:1415   */\n      lt\n        /* \"#utility.yul\":1394:1507   */\n      iszero\n      tag_106\n      jumpi\n        /* \"#utility.yul\":1493:1494   */\n      dup1\n        /* \"#utility.yul\":1488:1491   */\n      dup3\n        /* \"#utility.yul\":1484:1495   */\n      add\n        /* \"#utility.yul\":1478:1496   */\n      mload\n        /* \"#utility.yul\":1474:1475   */\n      dup2\n        /* \"#utility.yul\":1469:1472   */\n      dup5\n        /* \"#utility.yul\":1465:1476   */\n      add\n        /* \"#utility.yul\":1458:1497   */\n      mstore\n        /* \"#utility.yul\":1430:1432   */\n      0x20\n        /* \"#utility.yul\":1427:1428   */\n      dup2\n        /* \"#utility.yul\":1423:1433   */\n      add\n        /* \"#utility.yul\":1418:1433   */\n      swap1\n      pop\n        /* \"#utility.yul\":1394:1507   */\n      jump(tag_104)\n    tag_106:\n        /* \"#utility.yul\":1541:1542   */\n      0x00\n        /* \"#utility.yul\":1532:1538   */\n      dup5\n        /* \"#utility.yul\":1527:1530   */\n      dup5\n        /* \"#utility.yul\":1523:1539   */\n      add\n        /* \"#utility.yul\":1516:1543   */\n      mstore\n        /* \"#utility.yul\":1365:1549   */\n      pop\n        /* \"#utility.yul\":1303:1549   */\n      pop\n      pop\n      pop\n      jump\t// out\n        /* \"#utility.yul\":1555:1657   */\n    tag_62:\n        /* \"#utility.yul\":1596:1602   */\n      0x00\n        /* \"#utility.yul\":1647:1649   */\n      0x1f\n        /* \"#utility.yul\":1643:1650   */\n      not\n        /* \"#utility.yul\":1638:1640   */\n      0x1f\n        /* \"#utility.yul\":1631:1636   */\n      dup4\n        /* \"#utility.yul\":1627:1641   */\n      add\n        /* \"#utility.yul\":1623:1651   */\n      and\n        /* \"#utility.yul\":1613:1651   */\n      swap1\n      pop\n        /* \"#utility.yul\":1555:1657   */\n      swap2\n      swap1\n      pop\n      jump\t// out\n        /* \"#utility.yul\":1663:2036   */\n    tag_63:\n        /* \"#utility.yul\":1749:1752   */\n      0x00\n        /* \"#utility.yul\":1777:1815   */\n      tag_109\n        /* \"#utility.yul\":1809:1814   */\n      dup3\n        /* \"#utility.yul\":1777:1815   */\n      tag_59\n      jump\t// in\n    tag_109:\n        /* \"#utility.yul\":1831:1901   */\n      tag_110\n        /* \"#utility.yul\":1894:1900   */\n      dup2\n        /* \"#utility.yul\":1889:1892   */\n      dup6\n        /* \"#utility.yul\":1831:1901   */\n      tag_60\n      jump\t// in\n    tag_110:\n        /* \"#utility.yul\":1824:1901   */\n      swap4\n      pop\n        /* \"#utility.yul\":1910:1975   */\n      tag_111\n        /* \"#utility.yul\":1968:1974   */\n      dup2\n        /* \"#utility.yul\":1963:1966   */\n      dup6\n        /* \"#utility.yul\":1956:1960   */\n      0x20\n        /* \"#utility.yul\":1949:1954   */\n      dup7\n        /* \"#utility.yul\":1945:1961   */\n      add\n        /* \"#utility.yul\":1910:1975   */\n      tag_61\n      jump\t// in\n    tag_111:\n        /* \"#utility.yul\":2000:2029   */\n      tag_112\n        /* \"#utility.yul\":2022:2028   */\n      dup2\n        /* \"#utility.yul\":2000:2029   */\n      tag_62\n      jump\t// in\n    tag_112:\n        /* \"#utility.yul\":1995:1998   */\n      dup5\n        /* \"#utility.yul\":1991:2030   */\n      add\n        /* \"#utility.yul\":1984:2030   */\n      swap2\n      pop\n        /* \"#utility.yul\":1753:2036   */\n      pop\n        /* \"#utility.yul\":1663:2036   */\n      swap3\n      swap2\n      pop\n      pop\n      jump\t// out\n        /* \"#utility.yul\":2042:2351   */\n    tag_14:\n        /* \"#utility.yul\":2153:2157   */\n      0x00\n        /* \"#utility.yul\":2191:2193   */\n      0x20\n        /* \"#utility.yul\":2180:2189   */\n      dup3\n        /* \"#utility.yul\":2176:2194   */\n      add\n        /* \"#utility.yul\":2168:2194   */\n      swap1\n      pop\n        /* \"#utility.yul\":2240:2249   */\n      dup2\n        /* \"#utility.yul\":2234:2238   */\n      dup2\n        /* \"#utility.yul\":2230:2250   */\n      sub\n        /* \"#utility.yul\":2226:2227   */\n      0x00\n        /* \"#utility.yul\":2215:2224   */\n      dup4\n        /* \"#utility.yul\":2211:2228   */\n      add\n        /* \"#utility.yul\":2204:2251   */\n      mstore\n        /* \"#utility.yul\":2268:2344   */\n      tag_114\n        /* \"#utility.yul\":2339:2343   */\n      dup2\n        /* \"#utility.yul\":2330:2336   */\n      dup5\n        /* \"#utility.yul\":2268:2344   */\n      tag_63\n      jump\t// in\n    tag_114:\n        /* \"#utility.yul\":2260:2344   */\n      swap1\n      pop\n        /* \"#utility.yul\":2042:2351   */\n      swap3\n      swap2\n      pop\n      pop\n      jump\t// out\n        /* \"#utility.yul\":2357:2831   */\n    tag_17:\n        /* \"#utility.yul\":2425:2431   */\n      0x00\n        /* \"#utility.yul\":2433:2439   */\n      dup1\n        /* \"#utility.yul\":2482:2484   */\n      0x40\n        /* \"#utility.yul\":2470:2479   */\n      dup4\n        /* \"#utility.yul\":2461:2468   */\n      dup6\n        /* \"#utility.yul\":2457:2480   */\n      sub\n        /* \"#utility.yul\":2453:2485   */\n      slt\n        /* \"#utility.yul\":2450:2569   */\n      iszero\n      tag_116\n      jumpi\n        /* \"#utility.yul\":2488:2567   */\n      tag_117\n      tag_54\n      jump\t// in\n    tag_117:\n        /* \"#utility.yul\":2450:2569   */\n    tag_116:\n        /* \"#utility.yul\":2608:2609   */\n      0x00\n        /* \"#utility.yul\":2633:2686   */\n      tag_118\n        /* \"#utility.yul\":2678:2685   */\n      dup6\n        /* \"#utility.yul\":2669:2675   */\n      dup3\n        /* \"#utility.yul\":2658:2667   */\n      dup7\n        /* \"#utility.yul\":2654:2676   */\n      add\n        /* \"#utility.yul\":2633:2686   */\n      tag_58\n      jump\t// in\n    tag_118:\n        /* \"#utility.yul\":2623:2686   */\n      swap3\n      pop\n        /* \"#utility.yul\":2579:2696   */\n      pop\n        /* \"#utility.yul\":2735:2737   */\n      0x20\n        /* \"#utility.yul\":2761:2814   */\n      tag_119\n        /* \"#utility.yul\":2806:2813   */\n      dup6\n        /* \"#utility.yul\":2797:2803   */\n      dup3\n        /* \"#utility.yul\":2786:2795   */\n      dup7\n        /* \"#utility.yul\":2782:2804   */\n      add\n        /* \"#utility.yul\":2761:2814   */\n      tag_58\n      jump\t// in\n    tag_119:\n        /* \"#utility.yul\":2751:2814   */\n      swap2\n      pop\n        /* \"#utility.yul\":2706:2824   */\n      pop\n        /* \"#utility.yul\":2357:2831   */\n      swap3\n      pop\n      swap3\n      swap1\n      pop\n      jump\t// out\n        /* \"#utility.yul\":2837:2954   */\n    tag_64:\n        /* \"#utility.yul\":2946:2947   */\n      0x00\n        /* \"#utility.yul\":2943:2944   */\n      dup1\n        /* \"#utility.yul\":2936:2948   */\n      revert\n        /* \"#utility.yul\":2960:3077   */\n    tag_65:\n        /* \"#utility.yul\":3069:3070   */\n      0x00\n        /* \"#utility.yul\":3066:3067   */\n      dup1\n        /* \"#utility.yul\":3059:3071   */\n      revert\n        /* \"#utility.yul\":3083:3263   */\n    tag_66:\n        /* \"#utility.yul\":3131:3208   */\n      0x4e487b7100000000000000000000000000000000000000000000000000000000\n        /* \"#utility.yul\":3128:3129   */\n      0x00\n        /* \"#utility.yul\":3121:3209   */\n      mstore\n        /* \"#utility.yul\":3228:3232   */\n      0x41\n        /* \"#utility.yul\":3225:3226   */\n      0x04\n        /* \"#utility.yul\":3218:3233   */\n      mstore\n        /* \"#utility.yul\":3252:3256   */\n      0x24\n        /* \"#utility.yul\":3249:3250   */\n      0x00\n        /* \"#utility.yul\":3242:3257   */\n      revert\n        /* \"#utility.yul\":3269:3550   */\n    tag_67:\n        /* \"#utility.yul\":3352:3379   */\n      tag_124\n        /* \"#utility.yul\":3374:3378   */\n      dup3\n        /* \"#utility.yul\":3352:3379   */\n      tag_62\n      jump\t// in\n    tag_124:\n        /* \"#utility.yul\":3344:3350   */\n      dup2\n        /* \"#utility.yul\":3340:3380   */\n      add\n        /* \"#utility.yul\":3482:3488   */\n      dup2\n        /* \"#utility.yul\":3470:3480   */\n      dup2\n        /* \"#utility.yul\":3467:3489   */\n      lt\n        /* \"#utility.yul\":3446:3464   */\n      0xffffffffffffffff\n        /* \"#utility.yul\":3434:3444   */\n      dup3\n        /* \"#utility.yul\":3431:3465   */\n      gt\n        /* \"#utility.yul\":3428:3490   */\n      or\n        /* \"#utility.yul\":3425:3513   */\n      iszero\n      tag_125\n      jumpi\n        /* \"#utility.yul\":3493:3511   */\n      tag_126\n      tag_66\n      jump\t// in\n    tag_126:\n        /* \"#utility.yul\":3425:3513   */\n    tag_125:\n        /* \"#utility.yul\":3533:3543   */\n      dup1\n        /* \"#utility.yul\":3529:3531   */\n      0x40\n        /* \"#utility.yul\":3522:3544   */\n      mstore\n        /* \"#utility.yul\":3312:3550   */\n      pop\n        /* \"#utility.yul\":3269:3550   */\n      pop\n      pop\n      jump\t// out\n        /* \"#utility.yul\":3556:3685   */\n    tag_68:\n        /* \"#utility.yul\":3590:3596   */\n      0x00\n        /* \"#utility.yul\":3617:3637   */\n      tag_128\n      tag_53\n      jump\t// in\n    tag_128:\n        /* \"#utility.yul\":3607:3637   */\n      swap1\n      pop\n        /* \"#utility.yul\":3646:3679   */\n      tag_129\n        /* \"#utility.yul\":3674:3678   */\n      dup3\n        /* \"#utility.yul\":3666:3672   */\n      dup3\n        /* \"#utility.yul\":3646:3679   */\n      tag_67\n      jump\t// in\n    tag_129:\n        /* \"#utility.yul\":3556:3685   */\n      swap2\n      swap1\n      pop\n      jump\t// out\n        /* \"#utility.yul\":3691:3998   */\n    tag_69:\n        /* \"#utility.yul\":3752:3756   */\n      0x00\n        /* \"#utility.yul\":3842:3860   */\n      0xffffffffffffffff\n        /* \"#utility.yul\":3834:3840   */\n      dup3\n        /* \"#utility.yul\":3831:3861   */\n      gt\n        /* \"#utility.yul\":3828:3884   */\n      iszero\n      tag_131\n      jumpi\n        /* \"#utility.yul\":3864:3882   */\n      tag_132\n      tag_66\n      jump\t// in\n    tag_132:\n        /* \"#utility.yul\":3828:3884   */\n    tag_131:\n        /* \"#utility.yul\":3902:3931   */\n      tag_133\n        /* \"#utility.yul\":3924:3930   */\n      dup3\n        /* \"#utility.yul\":3902:3931   */\n      tag_62\n      jump\t// in\n    tag_133:\n        /* \"#utility.yul\":3894:3931   */\n      swap1\n      pop\n        /* \"#utility.yul\":3986:3990   */\n      0x20\n        /* \"#utility.yul\":3980:3984   */\n      dup2\n        /* \"#utility.yul\":3976:3991   */\n      add\n        /* \"#utility.yul\":3968:3991   */\n      swap1\n      pop\n        /* \"#utility.yul\":3691:3998   */\n      swap2\n      swap1\n      pop\n      jump\t// out\n        /* \"#utility.yul\":4004:4150   */\n    tag_70:\n        /* \"#utility.yul\":4101:4107   */\n      dup3\n        /* \"#utility.yul\":4096:4099   */\n      dup2\n        /* \"#utility.yul\":4091:4094   */\n      dup4\n        /* \"#utility.yul\":4078:4108   */\n      calldatacopy\n        /* \"#utility.yul\":4142:4143   */\n      0x00\n        /* \"#utility.yul\":4133:4139   */\n      dup4\n        /* \"#utility.yul\":4128:4131   */\n      dup4\n        /* \"#utility.yul\":4124:4140   */\n      add\n        /* \"#utility.yul\":4117:4144   */\n      mstore\n        /* \"#utility.yul\":4004:4150   */\n      pop\n      pop\n      pop\n      jump\t// out\n        /* \"#utility.yul\":4156:4579   */\n    tag_71:\n        /* \"#utility.yul\":4233:4238   */\n      0x00\n        /* \"#utility.yul\":4258:4323   */\n      tag_136\n        /* \"#utility.yul\":4274:4322   */\n      tag_137\n        /* \"#utility.yul\":4315:4321   */\n      dup5\n        /* \"#utility.yul\":4274:4322   */\n      tag_69\n      jump\t// in\n    tag_137:\n        /* \"#utility.yul\":4258:4323   */\n      tag_68\n      jump\t// in\n    tag_136:\n        /* \"#utility.yul\":4249:4323   */\n      swap1\n      pop\n        /* \"#utility.yul\":4346:4352   */\n      dup3\n        /* \"#utility.yul\":4339:4344   */\n      dup2\n        /* \"#utility.yul\":4332:4353   */\n      mstore\n        /* \"#utility.yul\":4384:4388   */\n      0x20\n        /* \"#utility.yul\":4377:4382   */\n      dup2\n        /* \"#utility.yul\":4373:4389   */\n      add\n        /* \"#utility.yul\":4422:4425   */\n      dup5\n        /* \"#utility.yul\":4413:4419   */\n      dup5\n        /* \"#utility.yul\":4408:4411   */\n      dup5\n        /* \"#utility.yul\":4404:4420   */\n      add\n        /* \"#utility.yul\":4401:4426   */\n      gt\n        /* \"#utility.yul\":4398:4510   */\n      iszero\n      tag_138\n      jumpi\n        /* \"#utility.yul\":4429:4508   */\n      tag_139\n      tag_65\n      jump\t// in\n    tag_139:\n        /* \"#utility.yul\":4398:4510   */\n    tag_138:\n        /* \"#utility.yul\":4519:4573   */\n      tag_140\n        /* \"#utility.yul\":4566:4572   */\n      dup5\n        /* \"#utility.yul\":4561:4564   */\n      dup3\n        /* \"#utility.yul\":4556:4559   */\n      dup6\n        /* \"#utility.yul\":4519:4573   */\n      tag_70\n      jump\t// in\n    tag_140:\n        /* \"#utility.yul\":4239:4579   */\n      pop\n        /* \"#utility.yul\":4156:4579   */\n      swap4\n      swap3\n      pop\n      pop\n      pop\n      jump\t// out\n        /* \"#utility.yul\":4598:4936   */\n    tag_72:\n        /* \"#utility.yul\":4653:4658   */\n      0x00\n        /* \"#utility.yul\":4702:4705   */\n      dup3\n        /* \"#utility.yul\":4695:4699   */\n      0x1f\n        /* \"#utility.yul\":4687:4693   */\n      dup4\n        /* \"#utility.yul\":4683:4700   */\n      add\n        /* \"#utility.yul\":4679:4706   */\n      slt\n        /* \"#utility.yul\":4669:4791   */\n      tag_142\n      jumpi\n        /* \"#utility.yul\":4710:4789   */\n      tag_143\n      tag_64\n      jump\t// in\n    tag_143:\n        /* \"#utility.yul\":4669:4791   */\n    tag_142:\n        /* \"#utility.yul\":4827:4833   */\n      dup2\n        /* \"#utility.yul\":4814:4834   */\n      calldataload\n        /* \"#utility.yul\":4852:4930   */\n      tag_144\n        /* \"#utility.yul\":4926:4929   */\n      dup5\n        /* \"#utility.yul\":4918:4924   */\n      dup3\n        /* \"#utility.yul\":4911:4915   */\n      0x20\n        /* \"#utility.yul\":4903:4909   */\n      dup7\n        /* \"#utility.yul\":4899:4916   */\n      add\n        /* \"#utility.yul\":4852:4930   */\n      tag_71\n      jump\t// in\n    tag_144:\n        /* \"#utility.yul\":4843:4930   */\n      swap2\n      pop\n        /* \"#utility.yul\":4659:4936   */\n      pop\n        /* \"#utility.yul\":4598:4936   */\n      swap3\n      swap2\n      pop\n      pop\n      jump\t// out\n        /* \"#utility.yul\":4942:5449   */\n    tag_22:\n        /* \"#utility.yul\":5010:5016   */\n      0x00\n        /* \"#utility.yul\":5059:5061   */\n      0x20\n        /* \"#utility.yul\":5047:5056   */\n      dup3\n        /* \"#utility.yul\":5038:5045   */\n      dup5\n        /* \"#utility.yul\":5034:5057   */\n      sub\n        /* \"#utility.yul\":5030:5062   */\n      slt\n        /* \"#utility.yul\":5027:5146   */\n      iszero\n      tag_146\n      jumpi\n        /* \"#utility.yul\":5065:5144   */\n      tag_147\n      tag_54\n      jump\t// in\n    tag_147:\n        /* \"#utility.yul\":5027:5146   */\n    tag_146:\n        /* \"#utility.yul\":5213:5214   */\n      0x00\n        /* \"#utility.yul\":5202:5211   */\n      dup3\n        /* \"#utility.yul\":5198:5215   */\n      add\n        /* \"#utility.yul\":5185:5216   */\n      calldataload\n        /* \"#utility.yul\":5243:5261   */\n      0xffffffffffffffff\n        /* \"#utility.yul\":5235:5241   */\n      dup2\n        /* \"#utility.yul\":5232:5262   */\n      gt\n        /* \"#utility.yul\":5229:5346   */\n      iszero\n      tag_148\n      jumpi\n        /* \"#utility.yul\":5265:5344   */\n      tag_149\n      tag_55\n      jump\t// in\n    tag_149:\n        /* \"#utility.yul\":5229:5346   */\n    tag_148:\n        /* \"#utility.yul\":5370:5432   */\n      tag_150\n        /* \"#utility.yul\":5424:5431   */\n      dup5\n        /* \"#utility.yul\":5415:5421   */\n      dup3\n        /* \"#utility.yul\":5404:5413   */\n      dup6\n        /* \"#utility.yul\":5400:5422   */\n      add\n        /* \"#utility.yul\":5370:5432   */\n      tag_72\n      jump\t// in\n    tag_150:\n        /* \"#utility.yul\":5360:5432   */\n      swap2\n      pop\n        /* \"#utility.yul\":5156:5442   */\n      pop\n        /* \"#utility.yul\":4942:5449   */\n      swap3\n      swap2\n      pop\n      pop\n      jump\t// out\n        /* \"#utility.yul\":5455:5581   */\n    tag_73:\n        /* \"#utility.yul\":5492:5499   */\n      0x00\n        /* \"#utility.yul\":5532:5574   */\n      0xffffffffffffffffffffffffffffffffffffffff\n        /* \"#utility.yul\":5525:5530   */\n      dup3\n        /* \"#utility.yul\":5521:5575   */\n      and\n        /* \"#utility.yul\":5510:5575   */\n      swap1\n      pop\n        /* \"#utility.yul\":5455:5581   */\n      swap2\n      swap1\n      pop\n      jump\t// out\n        /* \"#utility.yul\":5587:5683   */\n    tag_74:\n        /* \"#utility.yul\":5624:5631   */\n      0x00\n        /* \"#utility.yul\":5653:5677   */\n      tag_153\n        /* \"#utility.yul\":5671:5676   */\n      dup3\n        /* \"#utility.yul\":5653:5677   */\n      tag_73\n      jump\t// in\n    tag_153:\n        /* \"#utility.yul\":5642:5677   */\n      swap1\n      pop\n        /* \"#utility.yul\":5587:5683   */\n      swap2\n      swap1\n      pop\n      jump\t// out\n        /* \"#utility.yul\":5689:5807   */\n    tag_75:\n        /* \"#utility.yul\":5776:5800   */\n      tag_155\n        /* \"#utility.yul\":5794:5799   */\n      dup2\n        /* \"#utility.yul\":5776:5800   */\n      tag_74\n      jump\t// in\n    tag_155:\n        /* \"#utility.yul\":5771:5774   */\n      dup3\n        /* \"#utility.yul\":5764:5801   */\n      mstore\n        /* \"#utility.yul\":5689:5807   */\n      pop\n      pop\n      jump\t// out\n        /* \"#utility.yul\":5813:5931   */\n    tag_76:\n        /* \"#utility.yul\":5900:5924   */\n      tag_157\n        /* \"#utility.yul\":5918:5923   */\n      dup2\n        /* \"#utility.yul\":5900:5924   */\n      tag_56\n      jump\t// in\n    tag_157:\n        /* \"#utility.yul\":5895:5898   */\n      dup3\n        /* \"#utility.yul\":5888:5925   */\n      mstore\n        /* \"#utility.yul\":5813:5931   */\n      pop\n      pop\n      jump\t// out\n        /* \"#utility.yul\":5937:6269   */\n    tag_25:\n        /* \"#utility.yul\":6058:6062   */\n      0x00\n        /* \"#utility.yul\":6096:6098   */\n      0x40\n        /* \"#utility.yul\":6085:6094   */\n      dup3\n        /* \"#utility.yul\":6081:6099   */\n      add\n        /* \"#utility.yul\":6073:6099   */\n      swap1\n      pop\n        /* \"#utility.yul\":6109:6180   */\n      tag_159\n        /* \"#utility.yul\":6177:6178   */\n      0x00\n        /* \"#utility.yul\":6166:6175   */\n      dup4\n        /* \"#utility.yul\":6162:6179   */\n      add\n        /* \"#utility.yul\":6153:6159   */\n      dup6\n        /* \"#utility.yul\":6109:6180   */\n      tag_75\n      jump\t// in\n    tag_159:\n        /* \"#utility.yul\":6190:6262   */\n      tag_160\n        /* \"#utility.yul\":6258:6260   */\n      0x20\n        /* \"#utility.yul\":6247:6256   */\n      dup4\n        /* \"#utility.yul\":6243:6261   */\n      add\n        /* \"#utility.yul\":6234:6240   */\n      dup5\n        /* \"#utility.yul\":6190:6262   */\n      tag_76\n      jump\t// in\n    tag_160:\n        /* \"#utility.yul\":5937:6269   */\n      swap4\n      swap3\n      pop\n      pop\n      pop\n      jump\t// out\n        /* \"#utility.yul\":6275:6369   */\n    tag_77:\n        /* \"#utility.yul\":6308:6316   */\n      0x00\n        /* \"#utility.yul\":6356:6361   */\n      dup2\n        /* \"#utility.yul\":6352:6354   */\n      0x60\n        /* \"#utility.yul\":6348:6362   */\n      shl\n        /* \"#utility.yul\":6327:6362   */\n      swap1\n      pop\n        /* \"#utility.yul\":6275:6369   */\n      swap2\n      swap1\n      pop\n      jump\t// out\n        /* \"#utility.yul\":6375:6469   */\n    tag_78:\n        /* \"#utility.yul\":6414:6421   */\n      0x00\n        /* \"#utility.yul\":6443:6463   */\n      tag_163\n        /* \"#utility.yul\":6457:6462   */\n      dup3\n        /* \"#utility.yul\":6443:6463   */\n      tag_77\n      jump\t// in\n    tag_163:\n        /* \"#utility.yul\":6432:6463   */\n      swap1\n      pop\n        /* \"#utility.yul\":6375:6469   */\n      swap2\n      swap1\n      pop\n      jump\t// out\n        /* \"#utility.yul\":6475:6575   */\n    tag_79:\n        /* \"#utility.yul\":6514:6521   */\n      0x00\n        /* \"#utility.yul\":6543:6569   */\n      tag_165\n        /* \"#utility.yul\":6563:6568   */\n      dup3\n        /* \"#utility.yul\":6543:6569   */\n      tag_78\n      jump\t// in\n    tag_165:\n        /* \"#utility.yul\":6532:6569   */\n      swap1\n      pop\n        /* \"#utility.yul\":6475:6575   */\n      swap2\n      swap1\n      pop\n      jump\t// out\n        /* \"#utility.yul\":6581:6738   */\n    tag_80:\n        /* \"#utility.yul\":6686:6731   */\n      tag_167\n        /* \"#utility.yul\":6706:6730   */\n      tag_168\n        /* \"#utility.yul\":6724:6729   */\n      dup3\n        /* \"#utility.yul\":6706:6730   */\n      tag_74\n      jump\t// in\n    tag_168:\n        /* \"#utility.yul\":6686:6731   */\n      tag_79\n      jump\t// in\n    tag_167:\n        /* \"#utility.yul\":6681:6684   */\n      dup3\n        /* \"#utility.yul\":6674:6732   */\n      mstore\n        /* \"#utility.yul\":6581:6738   */\n      pop\n      pop\n      jump\t// out\n        /* \"#utility.yul\":6744:6823   */\n    tag_81:\n        /* \"#utility.yul\":6783:6790   */\n      0x00\n        /* \"#utility.yul\":6812:6817   */\n      dup2\n        /* \"#utility.yul\":6801:6817   */\n      swap1\n      pop\n        /* \"#utility.yul\":6744:6823   */\n      swap2\n      swap1\n      pop\n      jump\t// out\n        /* \"#utility.yul\":6829:6986   */\n    tag_82:\n        /* \"#utility.yul\":6934:6979   */\n      tag_171\n        /* \"#utility.yul\":6954:6978   */\n      tag_172\n        /* \"#utility.yul\":6972:6977   */\n      dup3\n        /* \"#utility.yul\":6954:6978   */\n      tag_56\n      jump\t// in\n    tag_172:\n        /* \"#utility.yul\":6934:6979   */\n      tag_81\n      jump\t// in\n    tag_171:\n        /* \"#utility.yul\":6929:6932   */\n      dup3\n        /* \"#utility.yul\":6922:6980   */\n      mstore\n        /* \"#utility.yul\":6829:6986   */\n      pop\n      pop\n      jump\t// out\n        /* \"#utility.yul\":6992:7389   */\n    tag_40:\n        /* \"#utility.yul\":7132:7135   */\n      0x00\n        /* \"#utility.yul\":7147:7222   */\n      tag_174\n        /* \"#utility.yul\":7218:7221   */\n      dup3\n        /* \"#utility.yul\":7209:7215   */\n      dup6\n        /* \"#utility.yul\":7147:7222   */\n      tag_80\n      jump\t// in\n    tag_174:\n        /* \"#utility.yul\":7247:7249   */\n      0x14\n        /* \"#utility.yul\":7242:7245   */\n      dup3\n        /* \"#utility.yul\":7238:7250   */\n      add\n        /* \"#utility.yul\":7231:7250   */\n      swap2\n      pop\n        /* \"#utility.yul\":7260:7335   */\n      tag_175\n        /* \"#utility.yul\":7331:7334   */\n      dup3\n        /* \"#utility.yul\":7322:7328   */\n      dup5\n        /* \"#utility.yul\":7260:7335   */\n      tag_82\n      jump\t// in\n    tag_175:\n        /* \"#utility.yul\":7360:7362   */\n      0x20\n        /* \"#utility.yul\":7355:7358   */\n      dup3\n        /* \"#utility.yul\":7351:7363   */\n      add\n        /* \"#utility.yul\":7344:7363   */\n      swap2\n      pop\n        /* \"#utility.yul\":7380:7383   */\n      dup2\n        /* \"#utility.yul\":7373:7383   */\n      swap1\n      pop\n        /* \"#utility.yul\":6992:7389   */\n      swap4\n      swap3\n      pop\n      pop\n      pop\n      jump\t// out\n        /* \"#utility.yul\":7395:7727   */\n    tag_43:\n        /* \"#utility.yul\":7516:7520   */\n      0x00\n        /* \"#utility.yul\":7554:7556   */\n      0x40\n        /* \"#utility.yul\":7543:7552   */\n      dup3\n        /* \"#utility.yul\":7539:7557   */\n      add\n        /* \"#utility.yul\":7531:7557   */\n      swap1\n      pop\n        /* \"#utility.yul\":7567:7638   */\n      tag_177\n        /* \"#utility.yul\":7635:7636   */\n      0x00\n        /* \"#utility.yul\":7624:7633   */\n      dup4\n        /* \"#utility.yul\":7620:7637   */\n      add\n        /* \"#utility.yul\":7611:7617   */\n      dup6\n        /* \"#utility.yul\":7567:7638   */\n      tag_76\n      jump\t// in\n    tag_177:\n        /* \"#utility.yul\":7648:7720   */\n      tag_178\n        /* \"#utility.yul\":7716:7718   */\n      0x20\n        /* \"#utility.yul\":7705:7714   */\n      dup4\n        /* \"#utility.yul\":7701:7719   */\n      add\n        /* \"#utility.yul\":7692:7698   */\n      dup5\n        /* \"#utility.yul\":7648:7720   */\n      tag_76\n      jump\t// in\n    tag_178:\n        /* \"#utility.yul\":7395:7727   */\n      swap4\n      swap3\n      pop\n      pop\n      pop\n      jump\t// out\n        /* \"#utility.yul\":7733:7837   */\n    tag_83:\n        /* \"#utility.yul\":7778:7785   */\n      0x00\n        /* \"#utility.yul\":7807:7831   */\n      tag_180\n        /* \"#utility.yul\":7825:7830   */\n      dup3\n        /* \"#utility.yul\":7807:7831   */\n      tag_73\n      jump\t// in\n    tag_180:\n        /* \"#utility.yul\":7796:7831   */\n      swap1\n      pop\n        /* \"#utility.yul\":7733:7837   */\n      swap2\n      swap1\n      pop\n      jump\t// out\n        /* \"#utility.yul\":7843:7981   */\n    tag_84:\n        /* \"#utility.yul\":7924:7956   */\n      tag_182\n        /* \"#utility.yul\":7950:7955   */\n      dup2\n        /* \"#utility.yul\":7924:7956   */\n      tag_83\n      jump\t// in\n    tag_182:\n        /* \"#utility.yul\":7917:7922   */\n      dup2\n        /* \"#utility.yul\":7914:7957   */\n      eq\n        /* \"#utility.yul\":7904:7975   */\n      tag_183\n      jumpi\n        /* \"#utility.yul\":7971:7972   */\n      0x00\n        /* \"#utility.yul\":7968:7969   */\n      dup1\n        /* \"#utility.yul\":7961:7973   */\n      revert\n        /* \"#utility.yul\":7904:7975   */\n    tag_183:\n        /* \"#utility.yul\":7843:7981   */\n      pop\n      jump\t// out\n        /* \"#utility.yul\":7987:8146   */\n    tag_85:\n        /* \"#utility.yul\":8052:8057   */\n      0x00\n        /* \"#utility.yul\":8083:8089   */\n      dup2\n        /* \"#utility.yul\":8077:8090   */\n      mload\n        /* \"#utility.yul\":8068:8090   */\n      swap1\n      pop\n        /* \"#utility.yul\":8099:8140   */\n      tag_185\n        /* \"#utility.yul\":8134:8139   */\n      dup2\n        /* \"#utility.yul\":8099:8140   */\n      tag_84\n      jump\t// in\n    tag_185:\n        /* \"#utility.yul\":7987:8146   */\n      swap3\n      swap2\n      pop\n      pop\n      jump\t// out\n        /* \"#utility.yul\":8152:8295   */\n    tag_86:\n        /* \"#utility.yul\":8209:8214   */\n      0x00\n        /* \"#utility.yul\":8240:8246   */\n      dup2\n        /* \"#utility.yul\":8234:8247   */\n      mload\n        /* \"#utility.yul\":8225:8247   */\n      swap1\n      pop\n        /* \"#utility.yul\":8256:8289   */\n      tag_187\n        /* \"#utility.yul\":8283:8288   */\n      dup2\n        /* \"#utility.yul\":8256:8289   */\n      tag_57\n      jump\t// in\n    tag_187:\n        /* \"#utility.yul\":8152:8295   */\n      swap3\n      swap2\n      pop\n      pop\n      jump\t// out\n        /* \"#utility.yul\":8301:8824   */\n    tag_46:\n        /* \"#utility.yul\":8388:8394   */\n      0x00\n        /* \"#utility.yul\":8396:8402   */\n      dup1\n        /* \"#utility.yul\":8445:8447   */\n      0x40\n        /* \"#utility.yul\":8433:8442   */\n      dup4\n        /* \"#utility.yul\":8424:8431   */\n      dup6\n        /* \"#utility.yul\":8420:8443   */\n      sub\n        /* \"#utility.yul\":8416:8448   */\n      slt\n        /* \"#utility.yul\":8413:8532   */\n      iszero\n      tag_189\n      jumpi\n        /* \"#utility.yul\":8451:8530   */\n      tag_190\n      tag_54\n      jump\t// in\n    tag_190:\n        /* \"#utility.yul\":8413:8532   */\n    tag_189:\n        /* \"#utility.yul\":8571:8572   */\n      0x00\n        /* \"#utility.yul\":8596:8668   */\n      tag_191\n        /* \"#utility.yul\":8660:8667   */\n      dup6\n        /* \"#utility.yul\":8651:8657   */\n      dup3\n        /* \"#utility.yul\":8640:8649   */\n      dup7\n        /* \"#utility.yul\":8636:8658   */\n      add\n        /* \"#utility.yul\":8596:8668   */\n      tag_85\n      jump\t// in\n    tag_191:\n        /* \"#utility.yul\":8586:8668   */\n      swap3\n      pop\n        /* \"#utility.yul\":8542:8678   */\n      pop\n        /* \"#utility.yul\":8717:8719   */\n      0x20\n        /* \"#utility.yul\":8743:8807   */\n      tag_192\n        /* \"#utility.yul\":8799:8806   */\n      dup6\n        /* \"#utility.yul\":8790:8796   */\n      dup3\n        /* \"#utility.yul\":8779:8788   */\n      dup7\n        /* \"#utility.yul\":8775:8797   */\n      add\n        /* \"#utility.yul\":8743:8807   */\n      tag_86\n      jump\t// in\n    tag_192:\n        /* \"#utility.yul\":8733:8807   */\n      swap2\n      pop\n        /* \"#utility.yul\":8688:8817   */\n      pop\n        /* \"#utility.yul\":8301:8824   */\n      swap3\n      pop\n      swap3\n      swap1\n      pop\n      jump\t// out\n        /* \"#utility.yul\":8830:9052   */\n    tag_49:\n        /* \"#utility.yul\":8923:8927   */\n      0x00\n        /* \"#utility.yul\":8961:8963   */\n      0x20\n        /* \"#utility.yul\":8950:8959   */\n      dup3\n        /* \"#utility.yul\":8946:8964   */\n      add\n        /* \"#utility.yul\":8938:8964   */\n      swap1\n      pop\n        /* \"#utility.yul\":8974:9045   */\n      tag_194\n        /* \"#utility.yul\":9042:9043   */\n      0x00\n        /* \"#utility.yul\":9031:9040   */\n      dup4\n        /* \"#utility.yul\":9027:9044   */\n      add\n        /* \"#utility.yul\":9018:9024   */\n      dup5\n        /* \"#utility.yul\":8974:9045   */\n      tag_76\n      jump\t// in\n    tag_194:\n        /* \"#utility.yul\":8830:9052   */\n      swap3\n      swap2\n      pop\n      pop\n      jump\t// out\n\n    auxdata: 0xa264697066735822122009922481d27162373e7e07d494a500e517b371ebf5736194581546f9d7cf421964736f6c63430008120033\n}\n",
				"bytecode": {
					"linkReferences": {},
					"object": "608060405234801561001057600080fd5b50610789806100206000396000f3fe608060405234801561001057600080fd5b50600436106100625760003560e01c806325ccda6d14610067578063354df57514610097578063416bdc52146100c7578063b3385f9e146100f8578063f4df11df14610128578063f738244814610158575b600080fd5b610081600480360381019061007c91906102d1565b610189565b60405161008e919061038e565b60405180910390f35b6100b160048036038101906100ac91906103b0565b6101b4565b6040516100be919061038e565b60405180910390f35b6100e160048036038101906100dc9190610525565b6101e0565b6040516100ef9291906105be565b60405180910390f35b610112600480360381019061010d91906102d1565b610204565b60405161011f919061038e565b60405180910390f35b610142600480360381019061013d91906102d1565b61022d565b60405161014f919061038e565b60405180910390f35b610172600480360381019061016d9190610525565b610258565b6040516101809291906105be565b60405180910390f35b6060338260405160200161019e929190610650565b6040516020818303038152906040529050919050565b606082826040516020016101c992919061067c565b604051602081830303815290604052905092915050565b600080828060200190518101906101f791906106f8565b8092508193505050915091565b6060816040516020016102179190610738565b6040516020818303038152906040529050919050565b606033826040516020016102429291906105be565b6040516020818303038152906040529050919050565b600080600060149050600060209050600080838701519150828401870151905081819550955050505050915091565b6000604051905090565b600080fd5b600080fd5b6000819050919050565b6102ae8161029b565b81146102b957600080fd5b50565b6000813590506102cb816102a5565b92915050565b6000602082840312156102e7576102e6610291565b5b60006102f5848285016102bc565b91505092915050565b600081519050919050565b600082825260208201905092915050565b60005b8381101561033857808201518184015260208101905061031d565b60008484015250505050565b6000601f19601f8301169050919050565b6000610360826102fe565b61036a8185610309565b935061037a81856020860161031a565b61038381610344565b840191505092915050565b600060208201905081810360008301526103a88184610355565b905092915050565b600080604083850312156103c7576103c6610291565b5b60006103d5858286016102bc565b92505060206103e6858286016102bc565b9150509250929050565b600080fd5b600080fd5b7f4e487b7100000000000000000000000000000000000000000000000000000000600052604160045260246000fd5b61043282610344565b810181811067ffffffffffffffff82111715610451576104506103fa565b5b80604052505050565b6000610464610287565b90506104708282610429565b919050565b600067ffffffffffffffff8211156104905761048f6103fa565b5b61049982610344565b9050602081019050919050565b82818337600083830152505050565b60006104c86104c384610475565b61045a565b9050828152602081018484840111156104e4576104e36103f5565b5b6104ef8482856104a6565b509392505050565b600082601f83011261050c5761050b6103f0565b5b813561051c8482602086016104b5565b91505092915050565b60006020828403121561053b5761053a610291565b5b600082013567ffffffffffffffff81111561055957610558610296565b5b610565848285016104f7565b91505092915050565b600073ffffffffffffffffffffffffffffffffffffffff82169050919050565b60006105998261056e565b9050919050565b6105a98161058e565b82525050565b6105b88161029b565b82525050565b60006040820190506105d360008301856105a0565b6105e060208301846105af565b9392505050565b60008160601b9050919050565b60006105ff826105e7565b9050919050565b6000610611826105f4565b9050919050565b6106296106248261058e565b610606565b82525050565b6000819050919050565b61064a6106458261029b565b61062f565b82525050565b600061065c8285610618565b60148201915061066c8284610639565b6020820191508190509392505050565b600060408201905061069160008301856105af565b61069e60208301846105af565b9392505050565b60006106b08261056e565b9050919050565b6106c0816106a5565b81146106cb57600080fd5b50565b6000815190506106dd816106b7565b92915050565b6000815190506106f2816102a5565b92915050565b6000806040838503121561070f5761070e610291565b5b600061071d858286016106ce565b925050602061072e858286016106e3565b9150509250929050565b600060208201905061074d60008301846105af565b9291505056fea264697066735822122009922481d27162373e7e07d494a500e517b371ebf5736194581546f9d7cf421964736f6c63430008120033",
					"opcodes": "PUSH1 0x80 PUSH1 0x40 MSTORE CALLVALUE DUP1 ISZERO PUSH2 0x10 JUMPI PUSH1 0x0 DUP1 REVERT JUMPDEST POP PUSH2 0x789 DUP1 PUSH2 0x20 PUSH1 0x0 CODECOPY PUSH1 0x0 RETURN INVALID PUSH1 0x80 PUSH1 0x40 MSTORE CALLVALUE DUP1 ISZERO PUSH2 0x10 JUMPI PUSH1 0x0 DUP1 REVERT JUMPDEST POP PUSH1 0x4 CALLDATASIZE LT PUSH2 0x62 JUMPI PUSH1 0x0 CALLDATALOAD PUSH1 0xE0 SHR DUP1 PUSH4 0x25CCDA6D EQ PUSH2 0x67 JUMPI DUP1 PUSH4 0x354DF575 EQ PUSH2 0x97 JUMPI DUP1 PUSH4 0x416BDC52 EQ PUSH2 0xC7 JUMPI DUP1 PUSH4 0xB3385F9E EQ PUSH2 0xF8 JUMPI DUP1 PUSH4 0xF4DF11DF EQ PUSH2 0x128 JUMPI DUP1 PUSH4 0xF7382448 EQ PUSH2 0x158 JUMPI JUMPDEST PUSH1 0x0 DUP1 REVERT JUMPDEST PUSH2 0x81 PUSH1 0x4 DUP1 CALLDATASIZE SUB DUP2 ADD SWAP1 PUSH2 0x7C SWAP2 SWAP1 PUSH2 0x2D1 JUMP JUMPDEST PUSH2 0x189 JUMP JUMPDEST PUSH1 0x40 MLOAD PUSH2 0x8E SWAP2 SWAP1 PUSH2 0x38E JUMP JUMPDEST PUSH1 0x40 MLOAD DUP1 SWAP2 SUB SWAP1 RETURN JUMPDEST PUSH2 0xB1 PUSH1 0x4 DUP1 CALLDATASIZE SUB DUP2 ADD SWAP1 PUSH2 0xAC SWAP2 SWAP1 PUSH2 0x3B0 JUMP JUMPDEST PUSH2 0x1B4 JUMP JUMPDEST PUSH1 0x40 MLOAD PUSH2 0xBE SWAP2 SWAP1 PUSH2 0x38E JUMP JUMPDEST PUSH1 0x40 MLOAD DUP1 SWAP2 SUB SWAP1 RETURN JUMPDEST PUSH2 0xE1 PUSH1 0x4 DUP1 CALLDATASIZE SUB DUP2 ADD SWAP1 PUSH2 0xDC SWAP2 SWAP1 PUSH2 0x525 JUMP JUMPDEST PUSH2 0x1E0 JUMP JUMPDEST PUSH1 0x40 MLOAD PUSH2 0xEF SWAP3 SWAP2 SWAP1 PUSH2 0x5BE JUMP JUMPDEST PUSH1 0x40 MLOAD DUP1 SWAP2 SUB SWAP1 RETURN JUMPDEST PUSH2 0x112 PUSH1 0x4 DUP1 CALLDATASIZE SUB DUP2 ADD SWAP1 PUSH2 0x10D SWAP2 SWAP1 PUSH2 0x2D1 JUMP JUMPDEST PUSH2 0x204 JUMP JUMPDEST PUSH1 0x40 MLOAD PUSH2 0x11F SWAP2 SWAP1 PUSH2 0x38E JUMP JUMPDEST PUSH1 0x40 MLOAD DUP1 SWAP2 SUB SWAP1 RETURN JUMPDEST PUSH2 0x142 PUSH1 0x4 DUP1 CALLDATASIZE SUB DUP2 ADD SWAP1 PUSH2 0x13D SWAP2 SWAP1 PUSH2 0x2D1 JUMP JUMPDEST PUSH2 0x22D JUMP JUMPDEST PUSH1 0x40 MLOAD PUSH2 0x14F SWAP2 SWAP1 PUSH2 0x38E JUMP JUMPDEST PUSH1 0x40 MLOAD DUP1 SWAP2 SUB SWAP1 RETURN JUMPDEST PUSH2 0x172 PUSH1 0x4 DUP1 CALLDATASIZE SUB DUP2 ADD SWAP1 PUSH2 0x16D SWAP2 SWAP1 PUSH2 0x525 JUMP JUMPDEST PUSH2 0x258 JUMP JUMPDEST PUSH1 0x40 MLOAD PUSH2 0x180 SWAP3 SWAP2 SWAP1 PUSH2 0x5BE JUMP JUMPDEST PUSH1 0x40 MLOAD DUP1 SWAP2 SUB SWAP1 RETURN JUMPDEST PUSH1 0x60 CALLER DUP3 PUSH1 0x40 MLOAD PUSH1 0x20 ADD PUSH2 0x19E SWAP3 SWAP2 SWAP1 PUSH2 0x650 JUMP JUMPDEST PUSH1 0x40 MLOAD PUSH1 0x20 DUP2 DUP4 SUB SUB DUP2 MSTORE SWAP1 PUSH1 0x40 MSTORE SWAP1 POP SWAP2 SWAP1 POP JUMP JUMPDEST PUSH1 0x60 DUP3 DUP3 PUSH1 0x40 MLOAD PUSH1 0x20 ADD PUSH2 0x1C9 SWAP3 SWAP2 SWAP1 PUSH2 0x67C JUMP JUMPDEST PUSH1 0x40 MLOAD PUSH1 0x20 DUP2 DUP4 SUB SUB DUP2 MSTORE SWAP1 PUSH1 0x40 MSTORE SWAP1 POP SWAP3 SWAP2 POP POP JUMP JUMPDEST PUSH1 0x0 DUP1 DUP3 DUP1 PUSH1 0x20 ADD SWAP1 MLOAD DUP2 ADD SWAP1 PUSH2 0x1F7 SWAP2 SWAP1 PUSH2 0x6F8 JUMP JUMPDEST DUP1 SWAP3 POP DUP2 SWAP4 POP POP POP SWAP2 POP SWAP2 JUMP JUMPDEST PUSH1 0x60 DUP2 PUSH1 0x40 MLOAD PUSH1 0x20 ADD PUSH2 0x217 SWAP2 SWAP1 PUSH2 0x738 JUMP JUMPDEST PUSH1 0x40 MLOAD PUSH1 0x20 DUP2 DUP4 SUB SUB DUP2 MSTORE SWAP1 PUSH1 0x40 MSTORE SWAP1 POP SWAP2 SWAP1 POP JUMP JUMPDEST PUSH1 0x60 CALLER DUP3 PUSH1 0x40 MLOAD PUSH1 0x20 ADD PUSH2 0x242 SWAP3 SWAP2 SWAP1 PUSH2 0x5BE JUMP JUMPDEST PUSH1 0x40 MLOAD PUSH1 0x20 DUP2 DUP4 SUB SUB DUP2 MSTORE SWAP1 PUSH1 0x40 MSTORE SWAP1 POP SWAP2 SWAP1 POP JUMP JUMPDEST PUSH1 0x0 DUP1 PUSH1 0x0 PUSH1 0x14 SWAP1 POP PUSH1 0x0 PUSH1 0x20 SWAP1 POP PUSH1 0x0 DUP1 DUP4 DUP8 ADD MLOAD SWAP2 POP DUP3 DUP5 ADD DUP8 ADD MLOAD SWAP1 POP DUP2 DUP2 SWAP6 POP SWAP6 POP POP POP POP POP SWAP2 POP SWAP2 JUMP JUMPDEST PUSH1 0x0 PUSH1 0x40 MLOAD SWAP1 POP SWAP1 JUMP JUMPDEST PUSH1 0x0 DUP1 REVERT JUMPDEST PUSH1 0x0 DUP1 REVERT JUMPDEST PUSH1 0x0 DUP2 SWAP1 POP SWAP2 SWAP1 POP JUMP JUMPDEST PUSH2 0x2AE DUP2 PUSH2 0x29B JUMP JUMPDEST DUP2 EQ PUSH2 0x2B9 JUMPI PUSH1 0x0 DUP1 REVERT JUMPDEST POP JUMP JUMPDEST PUSH1 0x0 DUP2 CALLDATALOAD SWAP1 POP PUSH2 0x2CB DUP2 PUSH2 0x2A5 JUMP JUMPDEST SWAP3 SWAP2 POP POP JUMP JUMPDEST PUSH1 0x0 PUSH1 0x20 DUP3 DUP5 SUB SLT ISZERO PUSH2 0x2E7 JUMPI PUSH2 0x2E6 PUSH2 0x291 JUMP JUMPDEST JUMPDEST PUSH1 0x0 PUSH2 0x2F5 DUP5 DUP3 DUP6 ADD PUSH2 0x2BC JUMP JUMPDEST SWAP2 POP POP SWAP3 SWAP2 POP POP JUMP JUMPDEST PUSH1 0x0 DUP2 MLOAD SWAP1 POP SWAP2 SWAP1 POP JUMP JUMPDEST PUSH1 0x0 DUP3 DUP3 MSTORE PUSH1 0x20 DUP3 ADD SWAP1 POP SWAP3 SWAP2 POP POP JUMP JUMPDEST PUSH1 0x0 JUMPDEST DUP4 DUP2 LT ISZERO PUSH2 0x338 JUMPI DUP1 DUP3 ADD MLOAD DUP2 DUP5 ADD MSTORE PUSH1 0x20 DUP2 ADD SWAP1 POP PUSH2 0x31D JUMP JUMPDEST PUSH1 0x0 DUP5 DUP5 ADD MSTORE POP POP POP POP JUMP JUMPDEST PUSH1 0x0 PUSH1 0x1F NOT PUSH1 0x1F DUP4 ADD AND SWAP1 POP SWAP2 SWAP1 POP JUMP JUMPDEST PUSH1 0x0 PUSH2 0x360 DUP3 PUSH2 0x2FE JUMP JUMPDEST PUSH2 0x36A DUP2 DUP6 PUSH2 0x309 JUMP JUMPDEST SWAP4 POP PUSH2 0x37A DUP2 DUP6 PUSH1 0x20 DUP7 ADD PUSH2 0x31A JUMP JUMPDEST PUSH2 0x383 DUP2 PUSH2 0x344 JUMP JUMPDEST DUP5 ADD SWAP2 POP POP SWAP3 SWAP2 POP POP JUMP JUMPDEST PUSH1 0x0 PUSH1 0x20 DUP3 ADD SWAP1 POP DUP2 DUP2 SUB PUSH1 0x0 DUP4 ADD MSTORE PUSH2 0x3A8 DUP2 DUP5 PUSH2 0x355 JUMP JUMPDEST SWAP1 POP SWAP3 SWAP2 POP POP JUMP JUMPDEST PUSH1 0x0 DUP1 PUSH1 0x40 DUP4 DUP6 SUB SLT ISZERO PUSH2 0x3C7 JUMPI PUSH2 0x3C6 PUSH2 0x291 JUMP JUMPDEST JUMPDEST PUSH1 0x0 PUSH2 0x3D5 DUP6 DUP3 DUP7 ADD PUSH2 0x2BC JUMP JUMPDEST SWAP3 POP POP PUSH1 0x20 PUSH2 0x3E6 DUP6 DUP3 DUP7 ADD PUSH2 0x2BC JUMP JUMPDEST SWAP2 POP POP SWAP3 POP SWAP3 SWAP1 POP JUMP JUMPDEST PUSH1 0x0 DUP1 REVERT JUMPDEST PUSH1 0x0 DUP1 REVERT JUMPDEST PUSH32 0x4E487B7100000000000000000000000000000000000000000000000000000000 PUSH1 0x0 MSTORE PUSH1 0x41 PUSH1 0x4 MSTORE PUSH1 0x24 PUSH1 0x0 REVERT JUMPDEST PUSH2 0x432 DUP3 PUSH2 0x344 JUMP JUMPDEST DUP2 ADD DUP2 DUP2 LT PUSH8 0xFFFFFFFFFFFFFFFF DUP3 GT OR ISZERO PUSH2 0x451 JUMPI PUSH2 0x450 PUSH2 0x3FA JUMP JUMPDEST JUMPDEST DUP1 PUSH1 0x40 MSTORE POP POP POP JUMP JUMPDEST PUSH1 0x0 PUSH2 0x464 PUSH2 0x287 JUMP JUMPDEST SWAP1 POP PUSH2 0x470 DUP3 DUP3 PUSH2 0x429 JUMP JUMPDEST SWAP2 SWAP1 POP JUMP JUMPDEST PUSH1 0x0 PUSH8 0xFFFFFFFFFFFFFFFF DUP3 GT ISZERO PUSH2 0x490 JUMPI PUSH2 0x48F PUSH2 0x3FA JUMP JUMPDEST JUMPDEST PUSH2 0x499 DUP3 PUSH2 0x344 JUMP JUMPDEST SWAP1 POP PUSH1 0x20 DUP2 ADD SWAP1 POP SWAP2 SWAP1 POP JUMP JUMPDEST DUP3 DUP2 DUP4 CALLDATACOPY PUSH1 0x0 DUP4 DUP4 ADD MSTORE POP POP POP JUMP JUMPDEST PUSH1 0x0 PUSH2 0x4C8 PUSH2 0x4C3 DUP5 PUSH2 0x475 JUMP JUMPDEST PUSH2 0x45A JUMP JUMPDEST SWAP1 POP DUP3 DUP2 MSTORE PUSH1 0x20 DUP2 ADD DUP5 DUP5 DUP5 ADD GT ISZERO PUSH2 0x4E4 JUMPI PUSH2 0x4E3 PUSH2 0x3F5 JUMP JUMPDEST JUMPDEST PUSH2 0x4EF DUP5 DUP3 DUP6 PUSH2 0x4A6 JUMP JUMPDEST POP SWAP4 SWAP3 POP POP POP JUMP JUMPDEST PUSH1 0x0 DUP3 PUSH1 0x1F DUP4 ADD SLT PUSH2 0x50C JUMPI PUSH2 0x50B PUSH2 0x3F0 JUMP JUMPDEST JUMPDEST DUP2 CALLDATALOAD PUSH2 0x51C DUP5 DUP3 PUSH1 0x20 DUP7 ADD PUSH2 0x4B5 JUMP JUMPDEST SWAP2 POP POP SWAP3 SWAP2 POP POP JUMP JUMPDEST PUSH1 0x0 PUSH1 0x20 DUP3 DUP5 SUB SLT ISZERO PUSH2 0x53B JUMPI PUSH2 0x53A PUSH2 0x291 JUMP JUMPDEST JUMPDEST PUSH1 0x0 DUP3 ADD CALLDATALOAD PUSH8 0xFFFFFFFFFFFFFFFF DUP2 GT ISZERO PUSH2 0x559 JUMPI PUSH2 0x558 PUSH2 0x296 JUMP JUMPDEST JUMPDEST PUSH2 0x565 DUP5 DUP3 DUP6 ADD PUSH2 0x4F7 JUMP JUMPDEST SWAP2 POP POP SWAP3 SWAP2 POP POP JUMP JUMPDEST PUSH1 0x0 PUSH20 0xFFFFFFFFFFFFFFFFFFFFFFFFFFFFFFFFFFFFFFFF DUP3 AND SWAP1 POP SWAP2 SWAP1 POP JUMP JUMPDEST PUSH1 0x0 PUSH2 0x599 DUP3 PUSH2 0x56E JUMP JUMPDEST SWAP1 POP SWAP2 SWAP1 POP JUMP JUMPDEST PUSH2 0x5A9 DUP2 PUSH2 0x58E JUMP JUMPDEST DUP3 MSTORE POP POP JUMP JUMPDEST PUSH2 0x5B8 DUP2 PUSH2 0x29B JUMP JUMPDEST DUP3 MSTORE POP POP JUMP JUMPDEST PUSH1 0x0 PUSH1 0x40 DUP3 ADD SWAP1 POP PUSH2 0x5D3 PUSH1 0x0 DUP4 ADD DUP6 PUSH2 0x5A0 JUMP JUMPDEST PUSH2 0x5E0 PUSH1 0x20 DUP4 ADD DUP5 PUSH2 0x5AF JUMP JUMPDEST SWAP4 SWAP3 POP POP POP JUMP JUMPDEST PUSH1 0x0 DUP2 PUSH1 0x60 SHL SWAP1 POP SWAP2 SWAP1 POP JUMP JUMPDEST PUSH1 0x0 PUSH2 0x5FF DUP3 PUSH2 0x5E7 JUMP JUMPDEST SWAP1 POP SWAP2 SWAP1 POP JUMP JUMPDEST PUSH1 0x0 PUSH2 0x611 DUP3 PUSH2 0x5F4 JUMP JUMPDEST SWAP1 POP SWAP2 SWAP1 POP JUMP JUMPDEST PUSH2 0x629 PUSH2 0x624 DUP3 PUSH2 0x58E JUMP JUMPDEST PUSH2 0x606 JUMP JUMPDEST DUP3 MSTORE POP POP JUMP JUMPDEST PUSH1 0x0 DUP2 SWAP1 POP SWAP2 SWAP1 POP JUMP JUMPDEST PUSH2 0x64A PUSH2 0x645 DUP3 PUSH2 0x29B JUMP JUMPDEST PUSH2 0x62F JUMP JUMPDEST DUP3 MSTORE POP POP JUMP JUMPDEST PUSH1 0x0 PUSH2 0x65C DUP3 DUP6 PUSH2 0x618 JUMP JUMPDEST PUSH1 0x14 DUP3 ADD SWAP2 POP PUSH2 0x66C DUP3 DUP5 PUSH2 0x639 JUMP JUMPDEST PUSH1 0x20 DUP3 ADD SWAP2 POP DUP2 SWAP1 POP SWAP4 SWAP3 POP POP POP JUMP JUMPDEST PUSH1 0x0 PUSH1 0x40 DUP3 ADD SWAP1 POP PUSH2 0x691 PUSH1 0x0 DUP4 ADD DUP6 PUSH2 0x5AF JUMP JUMPDEST PUSH2 0x69E PUSH1 0x20 DUP4 ADD DUP5 PUSH2 0x5AF JUMP JUMPDEST SWAP4 SWAP3 POP POP POP JUMP JUMPDEST PUSH1 0x0 PUSH2 0x6B0 DUP3 PUSH2 0x56E JUMP JUMPDEST SWAP1 POP SWAP2 SWAP1 POP JUMP JUMPDEST PUSH2 0x6C0 DUP2 PUSH2 0x6A5 JUMP JUMPDEST DUP2 EQ PUSH2 0x6CB JUMPI PUSH1 0x0 DUP1 REVERT JUMPDEST POP JUMP JUMPDEST PUSH1 0x0 DUP2 MLOAD SWAP1 POP PUSH2 0x6DD DUP2 PUSH2 0x6B7 JUMP JUMPDEST SWAP3 SWAP2 POP POP JUMP JUMPDEST PUSH1 0x0 DUP2 MLOAD SWAP1 POP PUSH2 0x6F2 DUP2 PUSH2 0x2A5 JUMP JUMPDEST SWAP3 SWAP2 POP POP JUMP JUMPDEST PUSH1 0x0 DUP1 PUSH1 0x40 DUP4 DUP6 SUB SLT ISZERO PUSH2 0x70F JUMPI PUSH2 0x70E PUSH2 0x291 JUMP JUMPDEST JUMPDEST PUSH1 0x0 PUSH2 0x71D DUP6 DUP3 DUP7 ADD PUSH2 0x6CE JUMP JUMPDEST SWAP3 POP POP PUSH1 0x20 PUSH2 0x72E DUP6 DUP3 DUP7 ADD PUSH2 0x6E3 JUMP JUMPDEST SWAP2 POP POP SWAP3 POP SWAP3 SWAP1 POP JUMP JUMPDEST PUSH1 0x0 PUSH1 0x20 DUP3 ADD SWAP1 POP PUSH2 0x74D PUSH1 0x0 DUP4 ADD DUP5 PUSH2 0x5AF JUMP JUMPDEST SWAP3 SWAP2 POP POP JUMP INVALID LOG2 PUSH5 0x6970667358 0x22 SLT KECCAK256 MULMOD SWAP3 0x24 DUP2 0xD2 PUSH18 0x62373E7E07D494A500E517B371EBF5736194 PC ISZERO CHAINID 0xF9 0xD7 0xCF TIMESTAMP NOT PUSH5 0x736F6C6343 STOP ADDMOD SLT STOP CALLER "
				},
				"gasEstimates": {
					"creation": {
						"codeDepositCost": "385800",
						"executionCost": "424",
						"totalCost": "386224"
					},
					"external": {
						"abiDecode(bytes)": "infinite",
						"abiDecodePacked(bytes)": "infinite",
						"abiEncod1(uint256)": "infinite",
						"abiEncode(uint256)": "infinite",
						"abiEncode2(uint256,uint256)": "infinite",
						"abiEncodePacked(uint256)": "infinite"
					}
				},
				"methodIdentifiers": {
					"abiDecode(bytes)": "416bdc52",
					"abiDecodePacked(bytes)": "f7382448",
					"abiEncod1(uint256)": "b3385f9e",
					"abiEncode(uint256)": "f4df11df",
					"abiEncode2(uint256,uint256)": "354df575",
					"abiEncodePacked(uint256)": "25ccda6d"
				}
			},
			"storageLayout": {
				"storage": [],
				"types": null
			},
			"userdoc": {
				"kind": "user",
				"methods": {},
				"version": 1
			}
		}
	}
}