{
	"Lesson-2.sol": {
		"Call": {
			"abi": [
				{
					"inputs": [],
					"name": "a",
					"outputs": [
						{
							"internalType": "uint256",
							"name": "",
							"type": "uint256"
						}
					],
					"stateMutability": "view",
					"type": "function"
				},
				{
					"inputs": [
						{
							"internalType": "address",
							"name": "addr",
							"type": "address"
						},
						{
							"internalType": "uint256",
							"name": "s",
							"type": "uint256"
						}
					],
					"name": "calls",
					"outputs": [],
					"stateMutability": "nonpayable",
					"type": "function"
				},
				{
					"inputs": [],
					"name": "msgSender",
					"outputs": [
						{
							"internalType": "address",
							"name": "",
							"type": "address"
						}
					],
					"stateMutability": "view",
					"type": "function"
				},
				{
					"inputs": [],
					"name": "txOrigin",
					"outputs": [
						{
							"internalType": "address",
							"name": "",
							"type": "address"
						}
					],
					"stateMutability": "view",
					"type": "function"
				},
				{
					"inputs": [
						{
							"internalType": "address",
							"name": "addr",
							"type": "address"
						}
					],
					"name": "useDelegatecall",
					"outputs": [],
					"stateMutability": "nonpayable",
					"type": "function"
				}
			],
			"devdoc": {
				"kind": "dev",
				"methods": {},
				"version": 1
			},
			"evm": {
				"assembly": "    /* \"Lesson-2.sol\":2142:3204  contract Call {... */\n  mstore(0x40, 0x80)\n  callvalue\n  dup1\n  iszero\n  tag_1\n  jumpi\n  0x00\n  dup1\n  revert\ntag_1:\n  pop\n  dataSize(sub_0)\n  dup1\n  dataOffset(sub_0)\n  0x00\n  codecopy\n  0x00\n  return\nstop\n\nsub_0: assembly {\n        /* \"Lesson-2.sol\":2142:3204  contract Call {... */\n      mstore(0x40, 0x80)\n      callvalue\n      dup1\n      iszero\n      tag_1\n      jumpi\n      0x00\n      dup1\n      revert\n    tag_1:\n      pop\n      jumpi(tag_2, lt(calldatasize, 0x04))\n      shr(0xe0, calldataload(0x00))\n      dup1\n      0x03e4d261\n      eq\n      tag_3\n      jumpi\n      dup1\n      0x0dbe671f\n      eq\n      tag_4\n      jumpi\n      dup1\n      0xd737d0c7\n      eq\n      tag_5\n      jumpi\n      dup1\n      0xe5b61cd7\n      eq\n      tag_6\n      jumpi\n      dup1\n      0xf96757d1\n      eq\n      tag_7\n      jumpi\n    tag_2:\n      0x00\n      dup1\n      revert\n        /* \"Lesson-2.sol\":2244:3019  function calls(address addr, uint256 s) public {... */\n    tag_3:\n      tag_8\n      0x04\n      dup1\n      calldatasize\n      sub\n      dup2\n      add\n      swap1\n      tag_9\n      swap2\n      swap1\n      tag_10\n      jump\t// in\n    tag_9:\n      tag_11\n      jump\t// in\n    tag_8:\n      stop\n        /* \"Lesson-2.sol\":2162:2178  uint256 public a */\n    tag_4:\n      tag_12\n      tag_13\n      jump\t// in\n    tag_12:\n      mload(0x40)\n      tag_14\n      swap2\n      swap1\n      tag_15\n      jump\t// in\n    tag_14:\n      mload(0x40)\n      dup1\n      swap2\n      sub\n      swap1\n      return\n        /* \"Lesson-2.sol\":2184:2208  address public msgSender */\n    tag_5:\n      tag_16\n      tag_17\n      jump\t// in\n    tag_16:\n      mload(0x40)\n      tag_18\n      swap2\n      swap1\n      tag_19\n      jump\t// in\n    tag_18:\n      mload(0x40)\n      dup1\n      swap2\n      sub\n      swap1\n      return\n        /* \"Lesson-2.sol\":3025:3202  function useDelegatecall(address addr) external {... */\n    tag_6:\n      tag_20\n      0x04\n      dup1\n      calldatasize\n      sub\n      dup2\n      add\n      swap1\n      tag_21\n      swap2\n      swap1\n      tag_22\n      jump\t// in\n    tag_21:\n      tag_23\n      jump\t// in\n    tag_20:\n      stop\n        /* \"Lesson-2.sol\":2214:2237  address public txOrigin */\n    tag_7:\n      tag_24\n      tag_25\n      jump\t// in\n    tag_24:\n      mload(0x40)\n      tag_26\n      swap2\n      swap1\n      tag_19\n      jump\t// in\n    tag_26:\n      mload(0x40)\n      dup1\n      swap2\n      sub\n      swap1\n      return\n        /* \"Lesson-2.sol\":2244:3019  function calls(address addr, uint256 s) public {... */\n    tag_11:\n        /* \"Lesson-2.sol\":2395:2407  bool success */\n      0x00\n        /* \"Lesson-2.sol\":2409:2426  bytes memory data */\n      dup1\n        /* \"Lesson-2.sol\":2430:2434  addr */\n      dup4\n        /* \"Lesson-2.sol\":2430:2445  addr.staticcall */\n      0xffffffffffffffffffffffffffffffffffffffff\n      and\n        /* \"Lesson-2.sol\":2500:2501  s */\n      dup4\n        /* \"Lesson-2.sol\":2459:2502  abi.encodeWithSignature(\"setA(uint256)\", s) */\n      add(0x24, mload(0x40))\n      tag_28\n      swap2\n      swap1\n      tag_15\n      jump\t// in\n    tag_28:\n      mload(0x40)\n      0x20\n      dup2\n      dup4\n      sub\n      sub\n      dup2\n      mstore\n      swap1\n      0x40\n      mstore\n      and(not(0xffffffffffffffffffffffffffffffffffffffffffffffffffffffff), 0xee919d5000000000000000000000000000000000000000000000000000000000)\n      0x20\n      dup3\n      add\n      dup1\n      mload\n      0xffffffffffffffffffffffffffffffffffffffffffffffffffffffff\n      dup4\n      dup2\n      dup4\n      and\n      or\n      dup4\n      mstore\n      pop\n      pop\n      pop\n      pop\n        /* \"Lesson-2.sol\":2430:2512  addr.staticcall(... */\n      mload(0x40)\n      tag_29\n      swap2\n      swap1\n      tag_30\n      jump\t// in\n    tag_29:\n      0x00\n      mload(0x40)\n      dup1\n      dup4\n      sub\n      dup2\n      dup6\n      gas\n      staticcall\n      swap2\n      pop\n      pop\n      returndatasize\n      dup1\n      0x00\n      dup2\n      eq\n      tag_33\n      jumpi\n      mload(0x40)\n      swap2\n      pop\n      and(add(returndatasize, 0x3f), not(0x1f))\n      dup3\n      add\n      0x40\n      mstore\n      returndatasize\n      dup3\n      mstore\n      returndatasize\n      0x00\n      0x20\n      dup5\n      add\n      returndatacopy\n      jump(tag_32)\n    tag_33:\n      0x60\n      swap2\n      pop\n    tag_32:\n      pop\n        /* \"Lesson-2.sol\":2394:2512  (bool success, bytes memory data) = addr.staticcall(... */\n      swap2\n      pop\n      swap2\n      pop\n        /* \"Lesson-2.sol\":2711:2718  success */\n      dup2\n        /* \"Lesson-2.sol\":2703:2724  require(success, \"1\") */\n      tag_34\n      jumpi\n      mload(0x40)\n      0x08c379a000000000000000000000000000000000000000000000000000000000\n      dup2\n      mstore\n      0x04\n      add\n      tag_35\n      swap1\n      tag_36\n      jump\t// in\n    tag_35:\n      mload(0x40)\n      dup1\n      swap2\n      sub\n      swap1\n      revert\n    tag_34:\n        /* \"Lesson-2.sol\":2828:2841  bool success2 */\n      0x00\n        /* \"Lesson-2.sol\":2843:2861  bytes memory data2 */\n      dup1\n        /* \"Lesson-2.sol\":2865:2869  addr */\n      dup6\n        /* \"Lesson-2.sol\":2865:2880  addr.staticcall */\n      0xffffffffffffffffffffffffffffffffffffffff\n      and\n        /* \"Lesson-2.sol\":2894:2927  abi.encodeWithSignature(\"getA()\") */\n      add(0x24, mload(0x40))\n      mload(0x40)\n      0x20\n      dup2\n      dup4\n      sub\n      sub\n      dup2\n      mstore\n      swap1\n      0x40\n      mstore\n      and(not(0xffffffffffffffffffffffffffffffffffffffffffffffffffffffff), 0xd46300fd00000000000000000000000000000000000000000000000000000000)\n      0x20\n      dup3\n      add\n      dup1\n      mload\n      0xffffffffffffffffffffffffffffffffffffffffffffffffffffffff\n      dup4\n      dup2\n      dup4\n      and\n      or\n      dup4\n      mstore\n      pop\n      pop\n      pop\n      pop\n        /* \"Lesson-2.sol\":2865:2937  addr.staticcall(... */\n      mload(0x40)\n      tag_37\n      swap2\n      swap1\n      tag_30\n      jump\t// in\n    tag_37:\n      0x00\n      mload(0x40)\n      dup1\n      dup4\n      sub\n      dup2\n      dup6\n      gas\n      staticcall\n      swap2\n      pop\n      pop\n      returndatasize\n      dup1\n      0x00\n      dup2\n      eq\n      tag_40\n      jumpi\n      mload(0x40)\n      swap2\n      pop\n      and(add(returndatasize, 0x3f), not(0x1f))\n      dup3\n      add\n      0x40\n      mstore\n      returndatasize\n      dup3\n      mstore\n      returndatasize\n      0x00\n      0x20\n      dup5\n      add\n      returndatacopy\n      jump(tag_39)\n    tag_40:\n      0x60\n      swap2\n      pop\n    tag_39:\n      pop\n        /* \"Lesson-2.sol\":2827:2937  (bool success2, bytes memory data2) = addr.staticcall(... */\n      swap2\n      pop\n      swap2\n      pop\n        /* \"Lesson-2.sol\":2947:2956  uint256 a */\n      0x00\n        /* \"Lesson-2.sol\":2970:2975  data2 */\n      dup2\n        /* \"Lesson-2.sol\":2959:2987  abi.decode(data2, (uint256)) */\n      dup1\n      0x20\n      add\n      swap1\n      mload\n      dup2\n      add\n      swap1\n      tag_41\n      swap2\n      swap1\n      tag_42\n      jump\t// in\n    tag_41:\n        /* \"Lesson-2.sol\":2947:2987  uint256 a = abi.decode(data2, (uint256)) */\n      swap1\n      pop\n        /* \"Lesson-2.sol\":3010:3011  s */\n      dup6\n        /* \"Lesson-2.sol\":3005:3006  a */\n      dup2\n        /* \"Lesson-2.sol\":3005:3011  a == s */\n      eq\n        /* \"Lesson-2.sol\":2997:3012  require(a == s) */\n      tag_43\n      jumpi\n      0x00\n      dup1\n      revert\n    tag_43:\n        /* \"Lesson-2.sol\":2291:3019  {... */\n      pop\n      pop\n      pop\n      pop\n      pop\n        /* \"Lesson-2.sol\":2244:3019  function calls(address addr, uint256 s) public {... */\n      pop\n      pop\n      jump\t// out\n        /* \"Lesson-2.sol\":2162:2178  uint256 public a */\n    tag_13:\n      sload(0x00)\n      dup2\n      jump\t// out\n        /* \"Lesson-2.sol\":2184:2208  address public msgSender */\n    tag_17:\n      0x01\n      0x00\n      swap1\n      sload\n      swap1\n      0x0100\n      exp\n      swap1\n      div\n      0xffffffffffffffffffffffffffffffffffffffff\n      and\n      dup2\n      jump\t// out\n        /* \"Lesson-2.sol\":3025:3202  function useDelegatecall(address addr) external {... */\n    tag_23:\n        /* \"Lesson-2.sol\":3084:3097  bool success3 */\n      0x00\n        /* \"Lesson-2.sol\":3099:3117  bytes memory data3 */\n      dup1\n        /* \"Lesson-2.sol\":3121:3125  addr */\n      dup3\n        /* \"Lesson-2.sol\":3121:3138  addr.delegatecall */\n      0xffffffffffffffffffffffffffffffffffffffff\n      and\n        /* \"Lesson-2.sol\":3152:3185  abi.encodeWithSignature(\"getA()\") */\n      add(0x24, mload(0x40))\n      mload(0x40)\n      0x20\n      dup2\n      dup4\n      sub\n      sub\n      dup2\n      mstore\n      swap1\n      0x40\n      mstore\n      and(not(0xffffffffffffffffffffffffffffffffffffffffffffffffffffffff), 0xd46300fd00000000000000000000000000000000000000000000000000000000)\n      0x20\n      dup3\n      add\n      dup1\n      mload\n      0xffffffffffffffffffffffffffffffffffffffffffffffffffffffff\n      dup4\n      dup2\n      dup4\n      and\n      or\n      dup4\n      mstore\n      pop\n      pop\n      pop\n      pop\n        /* \"Lesson-2.sol\":3121:3195  addr.delegatecall(... */\n      mload(0x40)\n      tag_45\n      swap2\n      swap1\n      tag_30\n      jump\t// in\n    tag_45:\n      0x00\n      mload(0x40)\n      dup1\n      dup4\n      sub\n      dup2\n      dup6\n      gas\n      delegatecall\n      swap2\n      pop\n      pop\n      returndatasize\n      dup1\n      0x00\n      dup2\n      eq\n      tag_48\n      jumpi\n      mload(0x40)\n      swap2\n      pop\n      and(add(returndatasize, 0x3f), not(0x1f))\n      dup3\n      add\n      0x40\n      mstore\n      returndatasize\n      dup3\n      mstore\n      returndatasize\n      0x00\n      0x20\n      dup5\n      add\n      returndatacopy\n      jump(tag_47)\n    tag_48:\n      0x60\n      swap2\n      pop\n    tag_47:\n      pop\n        /* \"Lesson-2.sol\":3083:3195  (bool success3, bytes memory data3) = addr.delegatecall(... */\n      swap2\n      pop\n      swap2\n      pop\n        /* \"Lesson-2.sol\":3073:3202  {... */\n      pop\n      pop\n        /* \"Lesson-2.sol\":3025:3202  function useDelegatecall(address addr) external {... */\n      pop\n      jump\t// out\n        /* \"Lesson-2.sol\":2214:2237  address public txOrigin */\n    tag_25:\n      0x02\n      0x00\n      swap1\n      sload\n      swap1\n      0x0100\n      exp\n      swap1\n      div\n      0xffffffffffffffffffffffffffffffffffffffff\n      and\n      dup2\n      jump\t// out\n        /* \"#utility.yul\":88:205   */\n    tag_50:\n        /* \"#utility.yul\":197:198   */\n      0x00\n        /* \"#utility.yul\":194:195   */\n      dup1\n        /* \"#utility.yul\":187:199   */\n      revert\n        /* \"#utility.yul\":334:460   */\n    tag_52:\n        /* \"#utility.yul\":371:378   */\n      0x00\n        /* \"#utility.yul\":411:453   */\n      0xffffffffffffffffffffffffffffffffffffffff\n        /* \"#utility.yul\":404:409   */\n      dup3\n        /* \"#utility.yul\":400:454   */\n      and\n        /* \"#utility.yul\":389:454   */\n      swap1\n      pop\n        /* \"#utility.yul\":334:460   */\n      swap2\n      swap1\n      pop\n      jump\t// out\n        /* \"#utility.yul\":466:562   */\n    tag_53:\n        /* \"#utility.yul\":503:510   */\n      0x00\n        /* \"#utility.yul\":532:556   */\n      tag_75\n        /* \"#utility.yul\":550:555   */\n      dup3\n        /* \"#utility.yul\":532:556   */\n      tag_52\n      jump\t// in\n    tag_75:\n        /* \"#utility.yul\":521:556   */\n      swap1\n      pop\n        /* \"#utility.yul\":466:562   */\n      swap2\n      swap1\n      pop\n      jump\t// out\n        /* \"#utility.yul\":568:690   */\n    tag_54:\n        /* \"#utility.yul\":641:665   */\n      tag_77\n        /* \"#utility.yul\":659:664   */\n      dup2\n        /* \"#utility.yul\":641:665   */\n      tag_53\n      jump\t// in\n    tag_77:\n        /* \"#utility.yul\":634:639   */\n      dup2\n        /* \"#utility.yul\":631:666   */\n      eq\n        /* \"#utility.yul\":621:684   */\n      tag_78\n      jumpi\n        /* \"#utility.yul\":680:681   */\n      0x00\n        /* \"#utility.yul\":677:678   */\n      dup1\n        /* \"#utility.yul\":670:682   */\n      revert\n        /* \"#utility.yul\":621:684   */\n    tag_78:\n        /* \"#utility.yul\":568:690   */\n      pop\n      jump\t// out\n        /* \"#utility.yul\":696:835   */\n    tag_55:\n        /* \"#utility.yul\":742:747   */\n      0x00\n        /* \"#utility.yul\":780:786   */\n      dup2\n        /* \"#utility.yul\":767:787   */\n      calldataload\n        /* \"#utility.yul\":758:787   */\n      swap1\n      pop\n        /* \"#utility.yul\":796:829   */\n      tag_80\n        /* \"#utility.yul\":823:828   */\n      dup2\n        /* \"#utility.yul\":796:829   */\n      tag_54\n      jump\t// in\n    tag_80:\n        /* \"#utility.yul\":696:835   */\n      swap3\n      swap2\n      pop\n      pop\n      jump\t// out\n        /* \"#utility.yul\":841:918   */\n    tag_56:\n        /* \"#utility.yul\":878:885   */\n      0x00\n        /* \"#utility.yul\":907:912   */\n      dup2\n        /* \"#utility.yul\":896:912   */\n      swap1\n      pop\n        /* \"#utility.yul\":841:918   */\n      swap2\n      swap1\n      pop\n      jump\t// out\n        /* \"#utility.yul\":924:1046   */\n    tag_57:\n        /* \"#utility.yul\":997:1021   */\n      tag_83\n        /* \"#utility.yul\":1015:1020   */\n      dup2\n        /* \"#utility.yul\":997:1021   */\n      tag_56\n      jump\t// in\n    tag_83:\n        /* \"#utility.yul\":990:995   */\n      dup2\n        /* \"#utility.yul\":987:1022   */\n      eq\n        /* \"#utility.yul\":977:1040   */\n      tag_84\n      jumpi\n        /* \"#utility.yul\":1036:1037   */\n      0x00\n        /* \"#utility.yul\":1033:1034   */\n      dup1\n        /* \"#utility.yul\":1026:1038   */\n      revert\n        /* \"#utility.yul\":977:1040   */\n    tag_84:\n        /* \"#utility.yul\":924:1046   */\n      pop\n      jump\t// out\n        /* \"#utility.yul\":1052:1191   */\n    tag_58:\n        /* \"#utility.yul\":1098:1103   */\n      0x00\n        /* \"#utility.yul\":1136:1142   */\n      dup2\n        /* \"#utility.yul\":1123:1143   */\n      calldataload\n        /* \"#utility.yul\":1114:1143   */\n      swap1\n      pop\n        /* \"#utility.yul\":1152:1185   */\n      tag_86\n        /* \"#utility.yul\":1179:1184   */\n      dup2\n        /* \"#utility.yul\":1152:1185   */\n      tag_57\n      jump\t// in\n    tag_86:\n        /* \"#utility.yul\":1052:1191   */\n      swap3\n      swap2\n      pop\n      pop\n      jump\t// out\n        /* \"#utility.yul\":1197:1671   */\n    tag_10:\n        /* \"#utility.yul\":1265:1271   */\n      0x00\n        /* \"#utility.yul\":1273:1279   */\n      dup1\n        /* \"#utility.yul\":1322:1324   */\n      0x40\n        /* \"#utility.yul\":1310:1319   */\n      dup4\n        /* \"#utility.yul\":1301:1308   */\n      dup6\n        /* \"#utility.yul\":1297:1320   */\n      sub\n        /* \"#utility.yul\":1293:1325   */\n      slt\n        /* \"#utility.yul\":1290:1409   */\n      iszero\n      tag_88\n      jumpi\n        /* \"#utility.yul\":1328:1407   */\n      tag_89\n      tag_50\n      jump\t// in\n    tag_89:\n        /* \"#utility.yul\":1290:1409   */\n    tag_88:\n        /* \"#utility.yul\":1448:1449   */\n      0x00\n        /* \"#utility.yul\":1473:1526   */\n      tag_90\n        /* \"#utility.yul\":1518:1525   */\n      dup6\n        /* \"#utility.yul\":1509:1515   */\n      dup3\n        /* \"#utility.yul\":1498:1507   */\n      dup7\n        /* \"#utility.yul\":1494:1516   */\n      add\n        /* \"#utility.yul\":1473:1526   */\n      tag_55\n      jump\t// in\n    tag_90:\n        /* \"#utility.yul\":1463:1526   */\n      swap3\n      pop\n        /* \"#utility.yul\":1419:1536   */\n      pop\n        /* \"#utility.yul\":1575:1577   */\n      0x20\n        /* \"#utility.yul\":1601:1654   */\n      tag_91\n        /* \"#utility.yul\":1646:1653   */\n      dup6\n        /* \"#utility.yul\":1637:1643   */\n      dup3\n        /* \"#utility.yul\":1626:1635   */\n      dup7\n        /* \"#utility.yul\":1622:1644   */\n      add\n        /* \"#utility.yul\":1601:1654   */\n      tag_58\n      jump\t// in\n    tag_91:\n        /* \"#utility.yul\":1591:1654   */\n      swap2\n      pop\n        /* \"#utility.yul\":1546:1664   */\n      pop\n        /* \"#utility.yul\":1197:1671   */\n      swap3\n      pop\n      swap3\n      swap1\n      pop\n      jump\t// out\n        /* \"#utility.yul\":1677:1795   */\n    tag_59:\n        /* \"#utility.yul\":1764:1788   */\n      tag_93\n        /* \"#utility.yul\":1782:1787   */\n      dup2\n        /* \"#utility.yul\":1764:1788   */\n      tag_56\n      jump\t// in\n    tag_93:\n        /* \"#utility.yul\":1759:1762   */\n      dup3\n        /* \"#utility.yul\":1752:1789   */\n      mstore\n        /* \"#utility.yul\":1677:1795   */\n      pop\n      pop\n      jump\t// out\n        /* \"#utility.yul\":1801:2023   */\n    tag_15:\n        /* \"#utility.yul\":1894:1898   */\n      0x00\n        /* \"#utility.yul\":1932:1934   */\n      0x20\n        /* \"#utility.yul\":1921:1930   */\n      dup3\n        /* \"#utility.yul\":1917:1935   */\n      add\n        /* \"#utility.yul\":1909:1935   */\n      swap1\n      pop\n        /* \"#utility.yul\":1945:2016   */\n      tag_95\n        /* \"#utility.yul\":2013:2014   */\n      0x00\n        /* \"#utility.yul\":2002:2011   */\n      dup4\n        /* \"#utility.yul\":1998:2015   */\n      add\n        /* \"#utility.yul\":1989:1995   */\n      dup5\n        /* \"#utility.yul\":1945:2016   */\n      tag_59\n      jump\t// in\n    tag_95:\n        /* \"#utility.yul\":1801:2023   */\n      swap3\n      swap2\n      pop\n      pop\n      jump\t// out\n        /* \"#utility.yul\":2029:2147   */\n    tag_60:\n        /* \"#utility.yul\":2116:2140   */\n      tag_97\n        /* \"#utility.yul\":2134:2139   */\n      dup2\n        /* \"#utility.yul\":2116:2140   */\n      tag_53\n      jump\t// in\n    tag_97:\n        /* \"#utility.yul\":2111:2114   */\n      dup3\n        /* \"#utility.yul\":2104:2141   */\n      mstore\n        /* \"#utility.yul\":2029:2147   */\n      pop\n      pop\n      jump\t// out\n        /* \"#utility.yul\":2153:2375   */\n    tag_19:\n        /* \"#utility.yul\":2246:2250   */\n      0x00\n        /* \"#utility.yul\":2284:2286   */\n      0x20\n        /* \"#utility.yul\":2273:2282   */\n      dup3\n        /* \"#utility.yul\":2269:2287   */\n      add\n        /* \"#utility.yul\":2261:2287   */\n      swap1\n      pop\n        /* \"#utility.yul\":2297:2368   */\n      tag_99\n        /* \"#utility.yul\":2365:2366   */\n      0x00\n        /* \"#utility.yul\":2354:2363   */\n      dup4\n        /* \"#utility.yul\":2350:2367   */\n      add\n        /* \"#utility.yul\":2341:2347   */\n      dup5\n        /* \"#utility.yul\":2297:2368   */\n      tag_60\n      jump\t// in\n    tag_99:\n        /* \"#utility.yul\":2153:2375   */\n      swap3\n      swap2\n      pop\n      pop\n      jump\t// out\n        /* \"#utility.yul\":2381:2710   */\n    tag_22:\n        /* \"#utility.yul\":2440:2446   */\n      0x00\n        /* \"#utility.yul\":2489:2491   */\n      0x20\n        /* \"#utility.yul\":2477:2486   */\n      dup3\n        /* \"#utility.yul\":2468:2475   */\n      dup5\n        /* \"#utility.yul\":2464:2487   */\n      sub\n        /* \"#utility.yul\":2460:2492   */\n      slt\n        /* \"#utility.yul\":2457:2576   */\n      iszero\n      tag_101\n      jumpi\n        /* \"#utility.yul\":2495:2574   */\n      tag_102\n      tag_50\n      jump\t// in\n    tag_102:\n        /* \"#utility.yul\":2457:2576   */\n    tag_101:\n        /* \"#utility.yul\":2615:2616   */\n      0x00\n        /* \"#utility.yul\":2640:2693   */\n      tag_103\n        /* \"#utility.yul\":2685:2692   */\n      dup5\n        /* \"#utility.yul\":2676:2682   */\n      dup3\n        /* \"#utility.yul\":2665:2674   */\n      dup6\n        /* \"#utility.yul\":2661:2683   */\n      add\n        /* \"#utility.yul\":2640:2693   */\n      tag_55\n      jump\t// in\n    tag_103:\n        /* \"#utility.yul\":2630:2693   */\n      swap2\n      pop\n        /* \"#utility.yul\":2586:2703   */\n      pop\n        /* \"#utility.yul\":2381:2710   */\n      swap3\n      swap2\n      pop\n      pop\n      jump\t// out\n        /* \"#utility.yul\":2716:2814   */\n    tag_61:\n        /* \"#utility.yul\":2767:2773   */\n      0x00\n        /* \"#utility.yul\":2801:2806   */\n      dup2\n        /* \"#utility.yul\":2795:2807   */\n      mload\n        /* \"#utility.yul\":2785:2807   */\n      swap1\n      pop\n        /* \"#utility.yul\":2716:2814   */\n      swap2\n      swap1\n      pop\n      jump\t// out\n        /* \"#utility.yul\":2820:2967   */\n    tag_62:\n        /* \"#utility.yul\":2921:2932   */\n      0x00\n        /* \"#utility.yul\":2958:2961   */\n      dup2\n        /* \"#utility.yul\":2943:2961   */\n      swap1\n      pop\n        /* \"#utility.yul\":2820:2967   */\n      swap3\n      swap2\n      pop\n      pop\n      jump\t// out\n        /* \"#utility.yul\":2973:3219   */\n    tag_63:\n        /* \"#utility.yul\":3054:3055   */\n      0x00\n        /* \"#utility.yul\":3064:3177   */\n    tag_107:\n        /* \"#utility.yul\":3078:3084   */\n      dup4\n        /* \"#utility.yul\":3075:3076   */\n      dup2\n        /* \"#utility.yul\":3072:3085   */\n      lt\n        /* \"#utility.yul\":3064:3177   */\n      iszero\n      tag_109\n      jumpi\n        /* \"#utility.yul\":3163:3164   */\n      dup1\n        /* \"#utility.yul\":3158:3161   */\n      dup3\n        /* \"#utility.yul\":3154:3165   */\n      add\n        /* \"#utility.yul\":3148:3166   */\n      mload\n        /* \"#utility.yul\":3144:3145   */\n      dup2\n        /* \"#utility.yul\":3139:3142   */\n      dup5\n        /* \"#utility.yul\":3135:3146   */\n      add\n        /* \"#utility.yul\":3128:3167   */\n      mstore\n        /* \"#utility.yul\":3100:3102   */\n      0x20\n        /* \"#utility.yul\":3097:3098   */\n      dup2\n        /* \"#utility.yul\":3093:3103   */\n      add\n        /* \"#utility.yul\":3088:3103   */\n      swap1\n      pop\n        /* \"#utility.yul\":3064:3177   */\n      jump(tag_107)\n    tag_109:\n        /* \"#utility.yul\":3211:3212   */\n      0x00\n        /* \"#utility.yul\":3202:3208   */\n      dup5\n        /* \"#utility.yul\":3197:3200   */\n      dup5\n        /* \"#utility.yul\":3193:3209   */\n      add\n        /* \"#utility.yul\":3186:3213   */\n      mstore\n        /* \"#utility.yul\":3035:3219   */\n      pop\n        /* \"#utility.yul\":2973:3219   */\n      pop\n      pop\n      pop\n      jump\t// out\n        /* \"#utility.yul\":3225:3611   */\n    tag_64:\n        /* \"#utility.yul\":3329:3332   */\n      0x00\n        /* \"#utility.yul\":3357:3395   */\n      tag_111\n        /* \"#utility.yul\":3389:3394   */\n      dup3\n        /* \"#utility.yul\":3357:3395   */\n      tag_61\n      jump\t// in\n    tag_111:\n        /* \"#utility.yul\":3411:3499   */\n      tag_112\n        /* \"#utility.yul\":3492:3498   */\n      dup2\n        /* \"#utility.yul\":3487:3490   */\n      dup6\n        /* \"#utility.yul\":3411:3499   */\n      tag_62\n      jump\t// in\n    tag_112:\n        /* \"#utility.yul\":3404:3499   */\n      swap4\n      pop\n        /* \"#utility.yul\":3508:3573   */\n      tag_113\n        /* \"#utility.yul\":3566:3572   */\n      dup2\n        /* \"#utility.yul\":3561:3564   */\n      dup6\n        /* \"#utility.yul\":3554:3558   */\n      0x20\n        /* \"#utility.yul\":3547:3552   */\n      dup7\n        /* \"#utility.yul\":3543:3559   */\n      add\n        /* \"#utility.yul\":3508:3573   */\n      tag_63\n      jump\t// in\n    tag_113:\n        /* \"#utility.yul\":3598:3604   */\n      dup1\n        /* \"#utility.yul\":3593:3596   */\n      dup5\n        /* \"#utility.yul\":3589:3605   */\n      add\n        /* \"#utility.yul\":3582:3605   */\n      swap2\n      pop\n        /* \"#utility.yul\":3333:3611   */\n      pop\n        /* \"#utility.yul\":3225:3611   */\n      swap3\n      swap2\n      pop\n      pop\n      jump\t// out\n        /* \"#utility.yul\":3617:3888   */\n    tag_30:\n        /* \"#utility.yul\":3747:3750   */\n      0x00\n        /* \"#utility.yul\":3769:3862   */\n      tag_115\n        /* \"#utility.yul\":3858:3861   */\n      dup3\n        /* \"#utility.yul\":3849:3855   */\n      dup5\n        /* \"#utility.yul\":3769:3862   */\n      tag_64\n      jump\t// in\n    tag_115:\n        /* \"#utility.yul\":3762:3862   */\n      swap2\n      pop\n        /* \"#utility.yul\":3879:3882   */\n      dup2\n        /* \"#utility.yul\":3872:3882   */\n      swap1\n      pop\n        /* \"#utility.yul\":3617:3888   */\n      swap3\n      swap2\n      pop\n      pop\n      jump\t// out\n        /* \"#utility.yul\":3894:4063   */\n    tag_65:\n        /* \"#utility.yul\":3978:3989   */\n      0x00\n        /* \"#utility.yul\":4012:4018   */\n      dup3\n        /* \"#utility.yul\":4007:4010   */\n      dup3\n        /* \"#utility.yul\":4000:4019   */\n      mstore\n        /* \"#utility.yul\":4052:4056   */\n      0x20\n        /* \"#utility.yul\":4047:4050   */\n      dup3\n        /* \"#utility.yul\":4043:4057   */\n      add\n        /* \"#utility.yul\":4028:4057   */\n      swap1\n      pop\n        /* \"#utility.yul\":3894:4063   */\n      swap3\n      swap2\n      pop\n      pop\n      jump\t// out\n        /* \"#utility.yul\":4069:4220   */\n    tag_66:\n        /* \"#utility.yul\":4209:4212   */\n      0x3100000000000000000000000000000000000000000000000000000000000000\n        /* \"#utility.yul\":4205:4206   */\n      0x00\n        /* \"#utility.yul\":4197:4203   */\n      dup3\n        /* \"#utility.yul\":4193:4207   */\n      add\n        /* \"#utility.yul\":4186:4213   */\n      mstore\n        /* \"#utility.yul\":4069:4220   */\n      pop\n      jump\t// out\n        /* \"#utility.yul\":4226:4591   */\n    tag_67:\n        /* \"#utility.yul\":4368:4371   */\n      0x00\n        /* \"#utility.yul\":4389:4455   */\n      tag_119\n        /* \"#utility.yul\":4453:4454   */\n      0x01\n        /* \"#utility.yul\":4448:4451   */\n      dup4\n        /* \"#utility.yul\":4389:4455   */\n      tag_65\n      jump\t// in\n    tag_119:\n        /* \"#utility.yul\":4382:4455   */\n      swap2\n      pop\n        /* \"#utility.yul\":4464:4557   */\n      tag_120\n        /* \"#utility.yul\":4553:4556   */\n      dup3\n        /* \"#utility.yul\":4464:4557   */\n      tag_66\n      jump\t// in\n    tag_120:\n        /* \"#utility.yul\":4582:4584   */\n      0x20\n        /* \"#utility.yul\":4577:4580   */\n      dup3\n        /* \"#utility.yul\":4573:4585   */\n      add\n        /* \"#utility.yul\":4566:4585   */\n      swap1\n      pop\n        /* \"#utility.yul\":4226:4591   */\n      swap2\n      swap1\n      pop\n      jump\t// out\n        /* \"#utility.yul\":4597:5016   */\n    tag_36:\n        /* \"#utility.yul\":4763:4767   */\n      0x00\n        /* \"#utility.yul\":4801:4803   */\n      0x20\n        /* \"#utility.yul\":4790:4799   */\n      dup3\n        /* \"#utility.yul\":4786:4804   */\n      add\n        /* \"#utility.yul\":4778:4804   */\n      swap1\n      pop\n        /* \"#utility.yul\":4850:4859   */\n      dup2\n        /* \"#utility.yul\":4844:4848   */\n      dup2\n        /* \"#utility.yul\":4840:4860   */\n      sub\n        /* \"#utility.yul\":4836:4837   */\n      0x00\n        /* \"#utility.yul\":4825:4834   */\n      dup4\n        /* \"#utility.yul\":4821:4838   */\n      add\n        /* \"#utility.yul\":4814:4861   */\n      mstore\n        /* \"#utility.yul\":4878:5009   */\n      tag_122\n        /* \"#utility.yul\":5004:5008   */\n      dup2\n        /* \"#utility.yul\":4878:5009   */\n      tag_67\n      jump\t// in\n    tag_122:\n        /* \"#utility.yul\":4870:5009   */\n      swap1\n      pop\n        /* \"#utility.yul\":4597:5016   */\n      swap2\n      swap1\n      pop\n      jump\t// out\n        /* \"#utility.yul\":5022:5165   */\n    tag_68:\n        /* \"#utility.yul\":5079:5084   */\n      0x00\n        /* \"#utility.yul\":5110:5116   */\n      dup2\n        /* \"#utility.yul\":5104:5117   */\n      mload\n        /* \"#utility.yul\":5095:5117   */\n      swap1\n      pop\n        /* \"#utility.yul\":5126:5159   */\n      tag_124\n        /* \"#utility.yul\":5153:5158   */\n      dup2\n        /* \"#utility.yul\":5126:5159   */\n      tag_57\n      jump\t// in\n    tag_124:\n        /* \"#utility.yul\":5022:5165   */\n      swap3\n      swap2\n      pop\n      pop\n      jump\t// out\n        /* \"#utility.yul\":5171:5522   */\n    tag_42:\n        /* \"#utility.yul\":5241:5247   */\n      0x00\n        /* \"#utility.yul\":5290:5292   */\n      0x20\n        /* \"#utility.yul\":5278:5287   */\n      dup3\n        /* \"#utility.yul\":5269:5276   */\n      dup5\n        /* \"#utility.yul\":5265:5288   */\n      sub\n        /* \"#utility.yul\":5261:5293   */\n      slt\n        /* \"#utility.yul\":5258:5377   */\n      iszero\n      tag_126\n      jumpi\n        /* \"#utility.yul\":5296:5375   */\n      tag_127\n      tag_50\n      jump\t// in\n    tag_127:\n        /* \"#utility.yul\":5258:5377   */\n    tag_126:\n        /* \"#utility.yul\":5416:5417   */\n      0x00\n        /* \"#utility.yul\":5441:5505   */\n      tag_128\n        /* \"#utility.yul\":5497:5504   */\n      dup5\n        /* \"#utility.yul\":5488:5494   */\n      dup3\n        /* \"#utility.yul\":5477:5486   */\n      dup6\n        /* \"#utility.yul\":5473:5495   */\n      add\n        /* \"#utility.yul\":5441:5505   */\n      tag_68\n      jump\t// in\n    tag_128:\n        /* \"#utility.yul\":5431:5505   */\n      swap2\n      pop\n        /* \"#utility.yul\":5387:5515   */\n      pop\n        /* \"#utility.yul\":5171:5522   */\n      swap3\n      swap2\n      pop\n      pop\n      jump\t// out\n\n    auxdata: 0xa264697066735822122082399051df898c7bbbd334af20b4ceea024c0182e80a1bcd26788ccc897838a264736f6c63430008120033\n}\n",
				"bytecode": {
					"linkReferences": {},
					"object": "608060405234801561001057600080fd5b50610761806100206000396000f3fe608060405234801561001057600080fd5b50600436106100575760003560e01c806303e4d2611461005c5780630dbe671f14610078578063d737d0c714610096578063e5b61cd7146100b4578063f96757d1146100d0575b600080fd5b61007660048036038101906100719190610523565b6100ee565b005b610080610344565b60405161008d9190610572565b60405180910390f35b61009e61034a565b6040516100ab919061059c565b60405180910390f35b6100ce60048036038101906100c991906105b7565b610370565b005b6100d8610464565b6040516100e5919061059c565b60405180910390f35b6000808373ffffffffffffffffffffffffffffffffffffffff16836040516024016101199190610572565b6040516020818303038152906040527fee919d50000000000000000000000000000000000000000000000000000000007bffffffffffffffffffffffffffffffffffffffffffffffffffffffff19166020820180517bffffffffffffffffffffffffffffffffffffffffffffffffffffffff83818316178352505050506040516101a39190610655565b600060405180830381855afa9150503d80600081146101de576040519150601f19603f3d011682016040523d82523d6000602084013e6101e3565b606091505b509150915081610228576040517f08c379a000000000000000000000000000000000000000000000000000000000815260040161021f906106c9565b60405180910390fd5b6000808573ffffffffffffffffffffffffffffffffffffffff166040516024016040516020818303038152906040527fd46300fd000000000000000000000000000000000000000000000000000000007bffffffffffffffffffffffffffffffffffffffffffffffffffffffff19166020820180517bffffffffffffffffffffffffffffffffffffffffffffffffffffffff83818316178352505050506040516102d29190610655565b600060405180830381855afa9150503d806000811461030d576040519150601f19603f3d011682016040523d82523d6000602084013e610312565b606091505b509150915060008180602001905181019061032d91906106fe565b905085811461033b57600080fd5b50505050505050565b60005481565b600160009054906101000a900473ffffffffffffffffffffffffffffffffffffffff1681565b6000808273ffffffffffffffffffffffffffffffffffffffff166040516024016040516020818303038152906040527fd46300fd000000000000000000000000000000000000000000000000000000007bffffffffffffffffffffffffffffffffffffffffffffffffffffffff19166020820180517bffffffffffffffffffffffffffffffffffffffffffffffffffffffff838183161783525050505060405161041a9190610655565b600060405180830381855af49150503d8060008114610455576040519150601f19603f3d011682016040523d82523d6000602084013e61045a565b606091505b5091509150505050565b600260009054906101000a900473ffffffffffffffffffffffffffffffffffffffff1681565b600080fd5b600073ffffffffffffffffffffffffffffffffffffffff82169050919050565b60006104ba8261048f565b9050919050565b6104ca816104af565b81146104d557600080fd5b50565b6000813590506104e7816104c1565b92915050565b6000819050919050565b610500816104ed565b811461050b57600080fd5b50565b60008135905061051d816104f7565b92915050565b6000806040838503121561053a5761053961048a565b5b6000610548858286016104d8565b92505060206105598582860161050e565b9150509250929050565b61056c816104ed565b82525050565b60006020820190506105876000830184610563565b92915050565b610596816104af565b82525050565b60006020820190506105b1600083018461058d565b92915050565b6000602082840312156105cd576105cc61048a565b5b60006105db848285016104d8565b91505092915050565b600081519050919050565b600081905092915050565b60005b838110156106185780820151818401526020810190506105fd565b60008484015250505050565b600061062f826105e4565b61063981856105ef565b93506106498185602086016105fa565b80840191505092915050565b60006106618284610624565b915081905092915050565b600082825260208201905092915050565b7f3100000000000000000000000000000000000000000000000000000000000000600082015250565b60006106b360018361066c565b91506106be8261067d565b602082019050919050565b600060208201905081810360008301526106e2816106a6565b9050919050565b6000815190506106f8816104f7565b92915050565b6000602082840312156107145761071361048a565b5b6000610722848285016106e9565b9150509291505056fea264697066735822122082399051df898c7bbbd334af20b4ceea024c0182e80a1bcd26788ccc897838a264736f6c63430008120033",
					"opcodes": "PUSH1 0x80 PUSH1 0x40 MSTORE CALLVALUE DUP1 ISZERO PUSH2 0x10 JUMPI PUSH1 0x0 DUP1 REVERT JUMPDEST POP PUSH2 0x761 DUP1 PUSH2 0x20 PUSH1 0x0 CODECOPY PUSH1 0x0 RETURN INVALID PUSH1 0x80 PUSH1 0x40 MSTORE CALLVALUE DUP1 ISZERO PUSH2 0x10 JUMPI PUSH1 0x0 DUP1 REVERT JUMPDEST POP PUSH1 0x4 CALLDATASIZE LT PUSH2 0x57 JUMPI PUSH1 0x0 CALLDATALOAD PUSH1 0xE0 SHR DUP1 PUSH4 0x3E4D261 EQ PUSH2 0x5C JUMPI DUP1 PUSH4 0xDBE671F EQ PUSH2 0x78 JUMPI DUP1 PUSH4 0xD737D0C7 EQ PUSH2 0x96 JUMPI DUP1 PUSH4 0xE5B61CD7 EQ PUSH2 0xB4 JUMPI DUP1 PUSH4 0xF96757D1 EQ PUSH2 0xD0 JUMPI JUMPDEST PUSH1 0x0 DUP1 REVERT JUMPDEST PUSH2 0x76 PUSH1 0x4 DUP1 CALLDATASIZE SUB DUP2 ADD SWAP1 PUSH2 0x71 SWAP2 SWAP1 PUSH2 0x523 JUMP JUMPDEST PUSH2 0xEE JUMP JUMPDEST STOP JUMPDEST PUSH2 0x80 PUSH2 0x344 JUMP JUMPDEST PUSH1 0x40 MLOAD PUSH2 0x8D SWAP2 SWAP1 PUSH2 0x572 JUMP JUMPDEST PUSH1 0x40 MLOAD DUP1 SWAP2 SUB SWAP1 RETURN JUMPDEST PUSH2 0x9E PUSH2 0x34A JUMP JUMPDEST PUSH1 0x40 MLOAD PUSH2 0xAB SWAP2 SWAP1 PUSH2 0x59C JUMP JUMPDEST PUSH1 0x40 MLOAD DUP1 SWAP2 SUB SWAP1 RETURN JUMPDEST PUSH2 0xCE PUSH1 0x4 DUP1 CALLDATASIZE SUB DUP2 ADD SWAP1 PUSH2 0xC9 SWAP2 SWAP1 PUSH2 0x5B7 JUMP JUMPDEST PUSH2 0x370 JUMP JUMPDEST STOP JUMPDEST PUSH2 0xD8 PUSH2 0x464 JUMP JUMPDEST PUSH1 0x40 MLOAD PUSH2 0xE5 SWAP2 SWAP1 PUSH2 0x59C JUMP JUMPDEST PUSH1 0x40 MLOAD DUP1 SWAP2 SUB SWAP1 RETURN JUMPDEST PUSH1 0x0 DUP1 DUP4 PUSH20 0xFFFFFFFFFFFFFFFFFFFFFFFFFFFFFFFFFFFFFFFF AND DUP4 PUSH1 0x40 MLOAD PUSH1 0x24 ADD PUSH2 0x119 SWAP2 SWAP1 PUSH2 0x572 JUMP JUMPDEST PUSH1 0x40 MLOAD PUSH1 0x20 DUP2 DUP4 SUB SUB DUP2 MSTORE SWAP1 PUSH1 0x40 MSTORE PUSH32 0xEE919D5000000000000000000000000000000000000000000000000000000000 PUSH28 0xFFFFFFFFFFFFFFFFFFFFFFFFFFFFFFFFFFFFFFFFFFFFFFFFFFFFFFFF NOT AND PUSH1 0x20 DUP3 ADD DUP1 MLOAD PUSH28 0xFFFFFFFFFFFFFFFFFFFFFFFFFFFFFFFFFFFFFFFFFFFFFFFFFFFFFFFF DUP4 DUP2 DUP4 AND OR DUP4 MSTORE POP POP POP POP PUSH1 0x40 MLOAD PUSH2 0x1A3 SWAP2 SWAP1 PUSH2 0x655 JUMP JUMPDEST PUSH1 0x0 PUSH1 0x40 MLOAD DUP1 DUP4 SUB DUP2 DUP6 GAS STATICCALL SWAP2 POP POP RETURNDATASIZE DUP1 PUSH1 0x0 DUP2 EQ PUSH2 0x1DE JUMPI PUSH1 0x40 MLOAD SWAP2 POP PUSH1 0x1F NOT PUSH1 0x3F RETURNDATASIZE ADD AND DUP3 ADD PUSH1 0x40 MSTORE RETURNDATASIZE DUP3 MSTORE RETURNDATASIZE PUSH1 0x0 PUSH1 0x20 DUP5 ADD RETURNDATACOPY PUSH2 0x1E3 JUMP JUMPDEST PUSH1 0x60 SWAP2 POP JUMPDEST POP SWAP2 POP SWAP2 POP DUP2 PUSH2 0x228 JUMPI PUSH1 0x40 MLOAD PUSH32 0x8C379A000000000000000000000000000000000000000000000000000000000 DUP2 MSTORE PUSH1 0x4 ADD PUSH2 0x21F SWAP1 PUSH2 0x6C9 JUMP JUMPDEST PUSH1 0x40 MLOAD DUP1 SWAP2 SUB SWAP1 REVERT JUMPDEST PUSH1 0x0 DUP1 DUP6 PUSH20 0xFFFFFFFFFFFFFFFFFFFFFFFFFFFFFFFFFFFFFFFF AND PUSH1 0x40 MLOAD PUSH1 0x24 ADD PUSH1 0x40 MLOAD PUSH1 0x20 DUP2 DUP4 SUB SUB DUP2 MSTORE SWAP1 PUSH1 0x40 MSTORE PUSH32 0xD46300FD00000000000000000000000000000000000000000000000000000000 PUSH28 0xFFFFFFFFFFFFFFFFFFFFFFFFFFFFFFFFFFFFFFFFFFFFFFFFFFFFFFFF NOT AND PUSH1 0x20 DUP3 ADD DUP1 MLOAD PUSH28 0xFFFFFFFFFFFFFFFFFFFFFFFFFFFFFFFFFFFFFFFFFFFFFFFFFFFFFFFF DUP4 DUP2 DUP4 AND OR DUP4 MSTORE POP POP POP POP PUSH1 0x40 MLOAD PUSH2 0x2D2 SWAP2 SWAP1 PUSH2 0x655 JUMP JUMPDEST PUSH1 0x0 PUSH1 0x40 MLOAD DUP1 DUP4 SUB DUP2 DUP6 GAS STATICCALL SWAP2 POP POP RETURNDATASIZE DUP1 PUSH1 0x0 DUP2 EQ PUSH2 0x30D JUMPI PUSH1 0x40 MLOAD SWAP2 POP PUSH1 0x1F NOT PUSH1 0x3F RETURNDATASIZE ADD AND DUP3 ADD PUSH1 0x40 MSTORE RETURNDATASIZE DUP3 MSTORE RETURNDATASIZE PUSH1 0x0 PUSH1 0x20 DUP5 ADD RETURNDATACOPY PUSH2 0x312 JUMP JUMPDEST PUSH1 0x60 SWAP2 POP JUMPDEST POP SWAP2 POP SWAP2 POP PUSH1 0x0 DUP2 DUP1 PUSH1 0x20 ADD SWAP1 MLOAD DUP2 ADD SWAP1 PUSH2 0x32D SWAP2 SWAP1 PUSH2 0x6FE JUMP JUMPDEST SWAP1 POP DUP6 DUP2 EQ PUSH2 0x33B JUMPI PUSH1 0x0 DUP1 REVERT JUMPDEST POP POP POP POP POP POP POP JUMP JUMPDEST PUSH1 0x0 SLOAD DUP2 JUMP JUMPDEST PUSH1 0x1 PUSH1 0x0 SWAP1 SLOAD SWAP1 PUSH2 0x100 EXP SWAP1 DIV PUSH20 0xFFFFFFFFFFFFFFFFFFFFFFFFFFFFFFFFFFFFFFFF AND DUP2 JUMP JUMPDEST PUSH1 0x0 DUP1 DUP3 PUSH20 0xFFFFFFFFFFFFFFFFFFFFFFFFFFFFFFFFFFFFFFFF AND PUSH1 0x40 MLOAD PUSH1 0x24 ADD PUSH1 0x40 MLOAD PUSH1 0x20 DUP2 DUP4 SUB SUB DUP2 MSTORE SWAP1 PUSH1 0x40 MSTORE PUSH32 0xD46300FD00000000000000000000000000000000000000000000000000000000 PUSH28 0xFFFFFFFFFFFFFFFFFFFFFFFFFFFFFFFFFFFFFFFFFFFFFFFFFFFFFFFF NOT AND PUSH1 0x20 DUP3 ADD DUP1 MLOAD PUSH28 0xFFFFFFFFFFFFFFFFFFFFFFFFFFFFFFFFFFFFFFFFFFFFFFFFFFFFFFFF DUP4 DUP2 DUP4 AND OR DUP4 MSTORE POP POP POP POP PUSH1 0x40 MLOAD PUSH2 0x41A SWAP2 SWAP1 PUSH2 0x655 JUMP JUMPDEST PUSH1 0x0 PUSH1 0x40 MLOAD DUP1 DUP4 SUB DUP2 DUP6 GAS DELEGATECALL SWAP2 POP POP RETURNDATASIZE DUP1 PUSH1 0x0 DUP2 EQ PUSH2 0x455 JUMPI PUSH1 0x40 MLOAD SWAP2 POP PUSH1 0x1F NOT PUSH1 0x3F RETURNDATASIZE ADD AND DUP3 ADD PUSH1 0x40 MSTORE RETURNDATASIZE DUP3 MSTORE RETURNDATASIZE PUSH1 0x0 PUSH1 0x20 DUP5 ADD RETURNDATACOPY PUSH2 0x45A JUMP JUMPDEST PUSH1 0x60 SWAP2 POP JUMPDEST POP SWAP2 POP SWAP2 POP POP POP POP JUMP JUMPDEST PUSH1 0x2 PUSH1 0x0 SWAP1 SLOAD SWAP1 PUSH2 0x100 EXP SWAP1 DIV PUSH20 0xFFFFFFFFFFFFFFFFFFFFFFFFFFFFFFFFFFFFFFFF AND DUP2 JUMP JUMPDEST PUSH1 0x0 DUP1 REVERT JUMPDEST PUSH1 0x0 PUSH20 0xFFFFFFFFFFFFFFFFFFFFFFFFFFFFFFFFFFFFFFFF DUP3 AND SWAP1 POP SWAP2 SWAP1 POP JUMP JUMPDEST PUSH1 0x0 PUSH2 0x4BA DUP3 PUSH2 0x48F JUMP JUMPDEST SWAP1 POP SWAP2 SWAP1 POP JUMP JUMPDEST PUSH2 0x4CA DUP2 PUSH2 0x4AF JUMP JUMPDEST DUP2 EQ PUSH2 0x4D5 JUMPI PUSH1 0x0 DUP1 REVERT JUMPDEST POP JUMP JUMPDEST PUSH1 0x0 DUP2 CALLDATALOAD SWAP1 POP PUSH2 0x4E7 DUP2 PUSH2 0x4C1 JUMP JUMPDEST SWAP3 SWAP2 POP POP JUMP JUMPDEST PUSH1 0x0 DUP2 SWAP1 POP SWAP2 SWAP1 POP JUMP JUMPDEST PUSH2 0x500 DUP2 PUSH2 0x4ED JUMP JUMPDEST DUP2 EQ PUSH2 0x50B JUMPI PUSH1 0x0 DUP1 REVERT JUMPDEST POP JUMP JUMPDEST PUSH1 0x0 DUP2 CALLDATALOAD SWAP1 POP PUSH2 0x51D DUP2 PUSH2 0x4F7 JUMP JUMPDEST SWAP3 SWAP2 POP POP JUMP JUMPDEST PUSH1 0x0 DUP1 PUSH1 0x40 DUP4 DUP6 SUB SLT ISZERO PUSH2 0x53A JUMPI PUSH2 0x539 PUSH2 0x48A JUMP JUMPDEST JUMPDEST PUSH1 0x0 PUSH2 0x548 DUP6 DUP3 DUP7 ADD PUSH2 0x4D8 JUMP JUMPDEST SWAP3 POP POP PUSH1 0x20 PUSH2 0x559 DUP6 DUP3 DUP7 ADD PUSH2 0x50E JUMP JUMPDEST SWAP2 POP POP SWAP3 POP SWAP3 SWAP1 POP JUMP JUMPDEST PUSH2 0x56C DUP2 PUSH2 0x4ED JUMP JUMPDEST DUP3 MSTORE POP POP JUMP JUMPDEST PUSH1 0x0 PUSH1 0x20 DUP3 ADD SWAP1 POP PUSH2 0x587 PUSH1 0x0 DUP4 ADD DUP5 PUSH2 0x563 JUMP JUMPDEST SWAP3 SWAP2 POP POP JUMP JUMPDEST PUSH2 0x596 DUP2 PUSH2 0x4AF JUMP JUMPDEST DUP3 MSTORE POP POP JUMP JUMPDEST PUSH1 0x0 PUSH1 0x20 DUP3 ADD SWAP1 POP PUSH2 0x5B1 PUSH1 0x0 DUP4 ADD DUP5 PUSH2 0x58D JUMP JUMPDEST SWAP3 SWAP2 POP POP JUMP JUMPDEST PUSH1 0x0 PUSH1 0x20 DUP3 DUP5 SUB SLT ISZERO PUSH2 0x5CD JUMPI PUSH2 0x5CC PUSH2 0x48A JUMP JUMPDEST JUMPDEST PUSH1 0x0 PUSH2 0x5DB DUP5 DUP3 DUP6 ADD PUSH2 0x4D8 JUMP JUMPDEST SWAP2 POP POP SWAP3 SWAP2 POP POP JUMP JUMPDEST PUSH1 0x0 DUP2 MLOAD SWAP1 POP SWAP2 SWAP1 POP JUMP JUMPDEST PUSH1 0x0 DUP2 SWAP1 POP SWAP3 SWAP2 POP POP JUMP JUMPDEST PUSH1 0x0 JUMPDEST DUP4 DUP2 LT ISZERO PUSH2 0x618 JUMPI DUP1 DUP3 ADD MLOAD DUP2 DUP5 ADD MSTORE PUSH1 0x20 DUP2 ADD SWAP1 POP PUSH2 0x5FD JUMP JUMPDEST PUSH1 0x0 DUP5 DUP5 ADD MSTORE POP POP POP POP JUMP JUMPDEST PUSH1 0x0 PUSH2 0x62F DUP3 PUSH2 0x5E4 JUMP JUMPDEST PUSH2 0x639 DUP2 DUP6 PUSH2 0x5EF JUMP JUMPDEST SWAP4 POP PUSH2 0x649 DUP2 DUP6 PUSH1 0x20 DUP7 ADD PUSH2 0x5FA JUMP JUMPDEST DUP1 DUP5 ADD SWAP2 POP POP SWAP3 SWAP2 POP POP JUMP JUMPDEST PUSH1 0x0 PUSH2 0x661 DUP3 DUP5 PUSH2 0x624 JUMP JUMPDEST SWAP2 POP DUP2 SWAP1 POP SWAP3 SWAP2 POP POP JUMP JUMPDEST PUSH1 0x0 DUP3 DUP3 MSTORE PUSH1 0x20 DUP3 ADD SWAP1 POP SWAP3 SWAP2 POP POP JUMP JUMPDEST PUSH32 0x3100000000000000000000000000000000000000000000000000000000000000 PUSH1 0x0 DUP3 ADD MSTORE POP JUMP JUMPDEST PUSH1 0x0 PUSH2 0x6B3 PUSH1 0x1 DUP4 PUSH2 0x66C JUMP JUMPDEST SWAP2 POP PUSH2 0x6BE DUP3 PUSH2 0x67D JUMP JUMPDEST PUSH1 0x20 DUP3 ADD SWAP1 POP SWAP2 SWAP1 POP JUMP JUMPDEST PUSH1 0x0 PUSH1 0x20 DUP3 ADD SWAP1 POP DUP2 DUP2 SUB PUSH1 0x0 DUP4 ADD MSTORE PUSH2 0x6E2 DUP2 PUSH2 0x6A6 JUMP JUMPDEST SWAP1 POP SWAP2 SWAP1 POP JUMP JUMPDEST PUSH1 0x0 DUP2 MLOAD SWAP1 POP PUSH2 0x6F8 DUP2 PUSH2 0x4F7 JUMP JUMPDEST SWAP3 SWAP2 POP POP JUMP JUMPDEST PUSH1 0x0 PUSH1 0x20 DUP3 DUP5 SUB SLT ISZERO PUSH2 0x714 JUMPI PUSH2 0x713 PUSH2 0x48A JUMP JUMPDEST JUMPDEST PUSH1 0x0 PUSH2 0x722 DUP5 DUP3 DUP6 ADD PUSH2 0x6E9 JUMP JUMPDEST SWAP2 POP POP SWAP3 SWAP2 POP POP JUMP INVALID LOG2 PUSH5 0x6970667358 0x22 SLT KECCAK256 DUP3 CODECOPY SWAP1 MLOAD 0xDF DUP10 DUP13 PUSH28 0xBBD334AF20B4CEEA024C0182E80A1BCD26788CCC897838A264736F6C PUSH4 0x43000812 STOP CALLER "
				},
				"gasEstimates": {
					"creation": {
						"codeDepositCost": "377800",
						"executionCost": "418",
						"totalCost": "378218"
					},
					"external": {
						"a()": "2429",
						"calls(address,uint256)": "infinite",
						"msgSender()": "2536",
						"txOrigin()": "2580",
						"useDelegatecall(address)": "infinite"
					}
				},
				"methodIdentifiers": {
					"a()": "0dbe671f",
					"calls(address,uint256)": "03e4d261",
					"msgSender()": "d737d0c7",
					"txOrigin()": "f96757d1",
					"useDelegatecall(address)": "e5b61cd7"
				}
			},
			"storageLayout": {
				"storage": [
					{
						"astId": 243,
						"contract": "Lesson-2.sol:Call",
						"label": "a",
						"offset": 0,
						"slot": "0",
						"type": "t_uint256"
					},
					{
						"astId": 245,
						"contract": "Lesson-2.sol:Call",
						"label": "msgSender",
						"offset": 0,
						"slot": "1",
						"type": "t_address"
					},
					{
						"astId": 247,
						"contract": "Lesson-2.sol:Call",
						"label": "txOrigin",
						"offset": 0,
						"slot": "2",
						"type": "t_address"
					}
				],
				"types": {
					"t_address": {
						"encoding": "inplace",
						"label": "address",
						"numberOfBytes": "20"
					},
					"t_uint256": {
						"encoding": "inplace",
						"label": "uint256",
						"numberOfBytes": "32"
					}
				}
			},
			"userdoc": {
				"kind": "user",
				"methods": {},
				"version": 1
			}
		}
	}
}