{
	"StealEthers.sol": {
		"StealEthers": {
			"abi": [
				{
					"inputs": [],
					"stateMutability": "nonpayable",
					"type": "constructor"
				},
				{
					"anonymous": false,
					"inputs": [
						{
							"indexed": false,
							"internalType": "address",
							"name": "",
							"type": "address"
						},
						{
							"indexed": false,
							"internalType": "address",
							"name": "",
							"type": "address"
						}
					],
					"name": "recordThis",
					"type": "event"
				},
				{
					"inputs": [],
					"name": "_password",
					"outputs": [
						{
							"internalType": "bytes32",
							"name": "",
							"type": "bytes32"
						}
					],
					"stateMutability": "view",
					"type": "function"
				},
				{
					"inputs": [
						{
							"internalType": "bytes",
							"name": "data",
							"type": "bytes"
						}
					],
					"name": "callSubmitEncodeData",
					"outputs": [],
					"stateMutability": "nonpayable",
					"type": "function"
				},
				{
					"inputs": [],
					"name": "prepareAndCallSubmitEncodeData",
					"outputs": [],
					"stateMutability": "nonpayable",
					"type": "function"
				},
				{
					"inputs": [],
					"name": "returnSelfAddress",
					"outputs": [
						{
							"internalType": "address",
							"name": "",
							"type": "address"
						}
					],
					"stateMutability": "view",
					"type": "function"
				}
			],
			"devdoc": {
				"kind": "dev",
				"methods": {},
				"version": 1
			},
			"evm": {
				"assembly": "    /* \"StealEthers.sol\":151:1420  contract StealEthers {... */\n  mstore(0x40, 0xa0)\n    /* \"StealEthers.sol\":293:349  bytes32 public _password = \"appworks.school.4/10.encode\" */\n  sstore(0x01, 0x617070776f726b732e7363686f6f6c2e342f31302e656e636f64650000000000)\n    /* \"StealEthers.sol\":529:762  constructor() {... */\n  callvalue\n  dup1\n  iszero\n  tag_1\n  jumpi\n  0x00\n  dup1\n  revert\ntag_1:\n  pop\n    /* \"StealEthers.sol\":684:726  0x4Ba9e675f6B21014B698A06Eb3E8f885513ff151 */\n  0x4ba9e675f6b21014b698a06eb3e8f885513ff151\n    /* \"StealEthers.sol\":649:664  abiEncodeDecode */\n  0x00\n  dup1\n    /* \"StealEthers.sol\":649:727  abiEncodeDecode = IAbiEncodeDecode(0x4Ba9e675f6B21014B698A06Eb3E8f885513ff151) */\n  0x0100\n  exp\n  dup2\n  sload\n  dup2\n  0xffffffffffffffffffffffffffffffffffffffff\n  mul\n  not\n  and\n  swap1\n  dup4\n  0xffffffffffffffffffffffffffffffffffffffff\n  and\n  mul\n  or\n  swap1\n  sstore\n  pop\n    /* \"StealEthers.sol\":745:755  msg.sender */\n  caller\n    /* \"StealEthers.sol\":737:755  owner = msg.sender */\n  0xffffffffffffffffffffffffffffffffffffffff\n  and\n  0x80\n  dup2\n  0xffffffffffffffffffffffffffffffffffffffff\n  and\n  dup2\n  mstore\n  pop\n  pop\n    /* \"StealEthers.sol\":151:1420  contract StealEthers {... */\n  mload(0x80)\n  codecopy(0x00, dataOffset(sub_0), dataSize(sub_0))\n  0x00\n  assignImmutable(\"0x8fef2229291b68be841adf029e58b87f39ba144b2d3b0af1760243d0a9bc6a1c\")\n  return(0x00, dataSize(sub_0))\nstop\n\nsub_0: assembly {\n        /* \"StealEthers.sol\":151:1420  contract StealEthers {... */\n      mstore(0x40, 0x80)\n      callvalue\n      dup1\n      iszero\n      tag_1\n      jumpi\n      0x00\n      dup1\n      revert\n    tag_1:\n      pop\n      jumpi(tag_2, lt(calldatasize, 0x04))\n      shr(0xe0, calldataload(0x00))\n      dup1\n      0x155332f3\n      eq\n      tag_3\n      jumpi\n      dup1\n      0x28a922c5\n      eq\n      tag_4\n      jumpi\n      dup1\n      0x4aab1fab\n      eq\n      tag_5\n      jumpi\n      dup1\n      0x5ea23af1\n      eq\n      tag_6\n      jumpi\n    tag_2:\n      0x00\n      dup1\n      revert\n        /* \"StealEthers.sol\":878:998  function callSubmitEncodeData(bytes memory data) public onlyOwner{... */\n    tag_3:\n      tag_7\n      0x04\n      dup1\n      calldatasize\n      sub\n      dup2\n      add\n      swap1\n      tag_8\n      swap2\n      swap1\n      tag_9\n      jump\t// in\n    tag_8:\n      tag_10\n      jump\t// in\n    tag_7:\n      stop\n        /* \"StealEthers.sol\":293:349  bytes32 public _password = \"appworks.school.4/10.encode\" */\n    tag_4:\n      tag_11\n      tag_12\n      jump\t// in\n    tag_11:\n      mload(0x40)\n      tag_13\n      swap2\n      swap1\n      tag_14\n      jump\t// in\n    tag_13:\n      mload(0x40)\n      dup1\n      swap2\n      sub\n      swap1\n      return\n        /* \"StealEthers.sol\":1320:1418  function returnSelfAddress() view external returns(address)  {... */\n    tag_5:\n      tag_15\n      tag_16\n      jump\t// in\n    tag_15:\n      mload(0x40)\n      tag_17\n      swap2\n      swap1\n      tag_18\n      jump\t// in\n    tag_17:\n      mload(0x40)\n      dup1\n      swap2\n      sub\n      swap1\n      return\n        /* \"StealEthers.sol\":1004:1313  function prepareAndCallSubmitEncodeData() public onlyOwner{... */\n    tag_6:\n      tag_19\n      tag_20\n      jump\t// in\n    tag_19:\n      stop\n        /* \"StealEthers.sol\":878:998  function callSubmitEncodeData(bytes memory data) public onlyOwner{... */\n    tag_10:\n        /* \"StealEthers.sol\":821:826  owner */\n      immutable(\"0x8fef2229291b68be841adf029e58b87f39ba144b2d3b0af1760243d0a9bc6a1c\")\n        /* \"StealEthers.sol\":807:826  msg.sender == owner */\n      0xffffffffffffffffffffffffffffffffffffffff\n      and\n        /* \"StealEthers.sol\":807:817  msg.sender */\n      caller\n        /* \"StealEthers.sol\":807:826  msg.sender == owner */\n      0xffffffffffffffffffffffffffffffffffffffff\n      and\n      eq\n        /* \"StealEthers.sol\":799:854  require(msg.sender == owner, \"sorry, you're not owner\") */\n      tag_22\n      jumpi\n      mload(0x40)\n      0x08c379a000000000000000000000000000000000000000000000000000000000\n      dup2\n      mstore\n      0x04\n      add\n      tag_23\n      swap1\n      tag_24\n      jump\t// in\n    tag_23:\n      mload(0x40)\n      dup1\n      swap2\n      sub\n      swap1\n      revert\n    tag_22:\n        /* \"StealEthers.sol\":953:968  abiEncodeDecode */\n      0x00\n      dup1\n      sload\n      swap1\n      0x0100\n      exp\n      swap1\n      div\n      0xffffffffffffffffffffffffffffffffffffffff\n      and\n        /* \"StealEthers.sol\":953:985  abiEncodeDecode.submitEncodeData */\n      0xffffffffffffffffffffffffffffffffffffffff\n      and\n      0xcbec4896\n        /* \"StealEthers.sol\":986:990  data */\n      dup3\n        /* \"StealEthers.sol\":953:991  abiEncodeDecode.submitEncodeData(data) */\n      mload(0x40)\n      dup3\n      0xffffffff\n      and\n      0xe0\n      shl\n      dup2\n      mstore\n      0x04\n      add\n      tag_26\n      swap2\n      swap1\n      tag_27\n      jump\t// in\n    tag_26:\n      0x00\n      mload(0x40)\n      dup1\n      dup4\n      sub\n      dup2\n      0x00\n      dup8\n      dup1\n      extcodesize\n      iszero\n      dup1\n      iszero\n      tag_28\n      jumpi\n      0x00\n      dup1\n      revert\n    tag_28:\n      pop\n      gas\n      call\n      iszero\n      dup1\n      iszero\n      tag_30\n      jumpi\n      returndatasize\n      0x00\n      dup1\n      returndatacopy\n      revert(0x00, returndatasize)\n    tag_30:\n      pop\n      pop\n      pop\n      pop\n        /* \"StealEthers.sol\":878:998  function callSubmitEncodeData(bytes memory data) public onlyOwner{... */\n      pop\n      jump\t// out\n        /* \"StealEthers.sol\":293:349  bytes32 public _password = \"appworks.school.4/10.encode\" */\n    tag_12:\n      sload(0x01)\n      dup2\n      jump\t// out\n        /* \"StealEthers.sol\":1320:1418  function returnSelfAddress() view external returns(address)  {... */\n    tag_16:\n        /* \"StealEthers.sol\":1371:1378  address */\n      0x00\n        /* \"StealEthers.sol\":1406:1410  this */\n      address\n        /* \"StealEthers.sol\":1391:1411  return address(this) */\n      swap1\n      pop\n        /* \"StealEthers.sol\":1320:1418  function returnSelfAddress() view external returns(address)  {... */\n      swap1\n      jump\t// out\n        /* \"StealEthers.sol\":1004:1313  function prepareAndCallSubmitEncodeData() public onlyOwner{... */\n    tag_20:\n        /* \"StealEthers.sol\":821:826  owner */\n      immutable(\"0x8fef2229291b68be841adf029e58b87f39ba144b2d3b0af1760243d0a9bc6a1c\")\n        /* \"StealEthers.sol\":807:826  msg.sender == owner */\n      0xffffffffffffffffffffffffffffffffffffffff\n      and\n        /* \"StealEthers.sol\":807:817  msg.sender */\n      caller\n        /* \"StealEthers.sol\":807:826  msg.sender == owner */\n      0xffffffffffffffffffffffffffffffffffffffff\n      and\n      eq\n        /* \"StealEthers.sol\":799:854  require(msg.sender == owner, \"sorry, you're not owner\") */\n      tag_33\n      jumpi\n      mload(0x40)\n      0x08c379a000000000000000000000000000000000000000000000000000000000\n      dup2\n      mstore\n      0x04\n      add\n      tag_34\n      swap1\n      tag_24\n      jump\t// in\n    tag_34:\n      mload(0x40)\n      dup1\n      swap2\n      sub\n      swap1\n      revert\n    tag_33:\n        /* \"StealEthers.sol\":1072:1086  uint256 amount */\n      0x00\n        /* \"StealEthers.sol\":1089:1099  0.25 ether */\n      0x03782dace9d90000\n        /* \"StealEthers.sol\":1072:1099  uint256 amount = 0.25 ether */\n      swap1\n      pop\n        /* \"StealEthers.sol\":1109:1131  Payment memory payment */\n      0x00\n        /* \"StealEthers.sol\":1134:1195  Payment(... */\n      mload(0x40)\n      dup1\n      0x40\n      add\n      0x40\n      mstore\n      dup1\n        /* \"StealEthers.sol\":1155:1165  msg.sender */\n      caller\n        /* \"StealEthers.sol\":1134:1195  Payment(... */\n      0xffffffffffffffffffffffffffffffffffffffff\n      and\n      dup2\n      mstore\n      0x20\n      add\n        /* \"StealEthers.sol\":1179:1185  amount */\n      dup4\n        /* \"StealEthers.sol\":1134:1195  Payment(... */\n      dup2\n      mstore\n      pop\n        /* \"StealEthers.sol\":1109:1195  Payment memory payment = Payment(... */\n      swap1\n      pop\n        /* \"StealEthers.sol\":1205:1222  bytes memory data */\n      0x00\n        /* \"StealEthers.sol\":1244:1248  this */\n      address\n        /* \"StealEthers.sol\":1251:1258  payment */\n      dup3\n        /* \"StealEthers.sol\":1260:1269  _password */\n      sload(0x01)\n        /* \"StealEthers.sol\":1225:1270  abi.encode(address(this), payment, _password) */\n      add(0x20, mload(0x40))\n      tag_36\n      swap4\n      swap3\n      swap2\n      swap1\n      tag_37\n      jump\t// in\n    tag_36:\n      mload(0x40)\n      0x20\n      dup2\n      dup4\n      sub\n      sub\n      dup2\n      mstore\n      swap1\n      0x40\n      mstore\n        /* \"StealEthers.sol\":1205:1270  bytes memory data = abi.encode(address(this), payment, _password) */\n      swap1\n      pop\n        /* \"StealEthers.sol\":1280:1306  callSubmitEncodeData(data) */\n      tag_38\n        /* \"StealEthers.sol\":1301:1305  data */\n      dup2\n        /* \"StealEthers.sol\":1280:1300  callSubmitEncodeData */\n      tag_10\n        /* \"StealEthers.sol\":1280:1306  callSubmitEncodeData(data) */\n      jump\t// in\n    tag_38:\n        /* \"StealEthers.sol\":1062:1313  {... */\n      pop\n      pop\n      pop\n        /* \"StealEthers.sol\":1004:1313  function prepareAndCallSubmitEncodeData() public onlyOwner{... */\n      jump\t// out\n        /* \"#utility.yul\":7:82   */\n    tag_39:\n        /* \"#utility.yul\":40:46   */\n      0x00\n        /* \"#utility.yul\":73:75   */\n      0x40\n        /* \"#utility.yul\":67:76   */\n      mload\n        /* \"#utility.yul\":57:76   */\n      swap1\n      pop\n        /* \"#utility.yul\":7:82   */\n      swap1\n      jump\t// out\n        /* \"#utility.yul\":88:205   */\n    tag_40:\n        /* \"#utility.yul\":197:198   */\n      0x00\n        /* \"#utility.yul\":194:195   */\n      dup1\n        /* \"#utility.yul\":187:199   */\n      revert\n        /* \"#utility.yul\":211:328   */\n    tag_41:\n        /* \"#utility.yul\":320:321   */\n      0x00\n        /* \"#utility.yul\":317:318   */\n      dup1\n        /* \"#utility.yul\":310:322   */\n      revert\n        /* \"#utility.yul\":334:451   */\n    tag_42:\n        /* \"#utility.yul\":443:444   */\n      0x00\n        /* \"#utility.yul\":440:441   */\n      dup1\n        /* \"#utility.yul\":433:445   */\n      revert\n        /* \"#utility.yul\":457:574   */\n    tag_43:\n        /* \"#utility.yul\":566:567   */\n      0x00\n        /* \"#utility.yul\":563:564   */\n      dup1\n        /* \"#utility.yul\":556:568   */\n      revert\n        /* \"#utility.yul\":580:682   */\n    tag_44:\n        /* \"#utility.yul\":621:627   */\n      0x00\n        /* \"#utility.yul\":672:674   */\n      0x1f\n        /* \"#utility.yul\":668:675   */\n      not\n        /* \"#utility.yul\":663:665   */\n      0x1f\n        /* \"#utility.yul\":656:661   */\n      dup4\n        /* \"#utility.yul\":652:666   */\n      add\n        /* \"#utility.yul\":648:676   */\n      and\n        /* \"#utility.yul\":638:676   */\n      swap1\n      pop\n        /* \"#utility.yul\":580:682   */\n      swap2\n      swap1\n      pop\n      jump\t// out\n        /* \"#utility.yul\":688:868   */\n    tag_45:\n        /* \"#utility.yul\":736:813   */\n      0x4e487b7100000000000000000000000000000000000000000000000000000000\n        /* \"#utility.yul\":733:734   */\n      0x00\n        /* \"#utility.yul\":726:814   */\n      mstore\n        /* \"#utility.yul\":833:837   */\n      0x41\n        /* \"#utility.yul\":830:831   */\n      0x04\n        /* \"#utility.yul\":823:838   */\n      mstore\n        /* \"#utility.yul\":857:861   */\n      0x24\n        /* \"#utility.yul\":854:855   */\n      0x00\n        /* \"#utility.yul\":847:862   */\n      revert\n        /* \"#utility.yul\":874:1155   */\n    tag_46:\n        /* \"#utility.yul\":957:984   */\n      tag_77\n        /* \"#utility.yul\":979:983   */\n      dup3\n        /* \"#utility.yul\":957:984   */\n      tag_44\n      jump\t// in\n    tag_77:\n        /* \"#utility.yul\":949:955   */\n      dup2\n        /* \"#utility.yul\":945:985   */\n      add\n        /* \"#utility.yul\":1087:1093   */\n      dup2\n        /* \"#utility.yul\":1075:1085   */\n      dup2\n        /* \"#utility.yul\":1072:1094   */\n      lt\n        /* \"#utility.yul\":1051:1069   */\n      0xffffffffffffffff\n        /* \"#utility.yul\":1039:1049   */\n      dup3\n        /* \"#utility.yul\":1036:1070   */\n      gt\n        /* \"#utility.yul\":1033:1095   */\n      or\n        /* \"#utility.yul\":1030:1118   */\n      iszero\n      tag_78\n      jumpi\n        /* \"#utility.yul\":1098:1116   */\n      tag_79\n      tag_45\n      jump\t// in\n    tag_79:\n        /* \"#utility.yul\":1030:1118   */\n    tag_78:\n        /* \"#utility.yul\":1138:1148   */\n      dup1\n        /* \"#utility.yul\":1134:1136   */\n      0x40\n        /* \"#utility.yul\":1127:1149   */\n      mstore\n        /* \"#utility.yul\":917:1155   */\n      pop\n        /* \"#utility.yul\":874:1155   */\n      pop\n      pop\n      jump\t// out\n        /* \"#utility.yul\":1161:1290   */\n    tag_47:\n        /* \"#utility.yul\":1195:1201   */\n      0x00\n        /* \"#utility.yul\":1222:1242   */\n      tag_81\n      tag_39\n      jump\t// in\n    tag_81:\n        /* \"#utility.yul\":1212:1242   */\n      swap1\n      pop\n        /* \"#utility.yul\":1251:1284   */\n      tag_82\n        /* \"#utility.yul\":1279:1283   */\n      dup3\n        /* \"#utility.yul\":1271:1277   */\n      dup3\n        /* \"#utility.yul\":1251:1284   */\n      tag_46\n      jump\t// in\n    tag_82:\n        /* \"#utility.yul\":1161:1290   */\n      swap2\n      swap1\n      pop\n      jump\t// out\n        /* \"#utility.yul\":1296:1603   */\n    tag_48:\n        /* \"#utility.yul\":1357:1361   */\n      0x00\n        /* \"#utility.yul\":1447:1465   */\n      0xffffffffffffffff\n        /* \"#utility.yul\":1439:1445   */\n      dup3\n        /* \"#utility.yul\":1436:1466   */\n      gt\n        /* \"#utility.yul\":1433:1489   */\n      iszero\n      tag_84\n      jumpi\n        /* \"#utility.yul\":1469:1487   */\n      tag_85\n      tag_45\n      jump\t// in\n    tag_85:\n        /* \"#utility.yul\":1433:1489   */\n    tag_84:\n        /* \"#utility.yul\":1507:1536   */\n      tag_86\n        /* \"#utility.yul\":1529:1535   */\n      dup3\n        /* \"#utility.yul\":1507:1536   */\n      tag_44\n      jump\t// in\n    tag_86:\n        /* \"#utility.yul\":1499:1536   */\n      swap1\n      pop\n        /* \"#utility.yul\":1591:1595   */\n      0x20\n        /* \"#utility.yul\":1585:1589   */\n      dup2\n        /* \"#utility.yul\":1581:1596   */\n      add\n        /* \"#utility.yul\":1573:1596   */\n      swap1\n      pop\n        /* \"#utility.yul\":1296:1603   */\n      swap2\n      swap1\n      pop\n      jump\t// out\n        /* \"#utility.yul\":1609:1755   */\n    tag_49:\n        /* \"#utility.yul\":1706:1712   */\n      dup3\n        /* \"#utility.yul\":1701:1704   */\n      dup2\n        /* \"#utility.yul\":1696:1699   */\n      dup4\n        /* \"#utility.yul\":1683:1713   */\n      calldatacopy\n        /* \"#utility.yul\":1747:1748   */\n      0x00\n        /* \"#utility.yul\":1738:1744   */\n      dup4\n        /* \"#utility.yul\":1733:1736   */\n      dup4\n        /* \"#utility.yul\":1729:1745   */\n      add\n        /* \"#utility.yul\":1722:1749   */\n      mstore\n        /* \"#utility.yul\":1609:1755   */\n      pop\n      pop\n      pop\n      jump\t// out\n        /* \"#utility.yul\":1761:2184   */\n    tag_50:\n        /* \"#utility.yul\":1838:1843   */\n      0x00\n        /* \"#utility.yul\":1863:1928   */\n      tag_89\n        /* \"#utility.yul\":1879:1927   */\n      tag_90\n        /* \"#utility.yul\":1920:1926   */\n      dup5\n        /* \"#utility.yul\":1879:1927   */\n      tag_48\n      jump\t// in\n    tag_90:\n        /* \"#utility.yul\":1863:1928   */\n      tag_47\n      jump\t// in\n    tag_89:\n        /* \"#utility.yul\":1854:1928   */\n      swap1\n      pop\n        /* \"#utility.yul\":1951:1957   */\n      dup3\n        /* \"#utility.yul\":1944:1949   */\n      dup2\n        /* \"#utility.yul\":1937:1958   */\n      mstore\n        /* \"#utility.yul\":1989:1993   */\n      0x20\n        /* \"#utility.yul\":1982:1987   */\n      dup2\n        /* \"#utility.yul\":1978:1994   */\n      add\n        /* \"#utility.yul\":2027:2030   */\n      dup5\n        /* \"#utility.yul\":2018:2024   */\n      dup5\n        /* \"#utility.yul\":2013:2016   */\n      dup5\n        /* \"#utility.yul\":2009:2025   */\n      add\n        /* \"#utility.yul\":2006:2031   */\n      gt\n        /* \"#utility.yul\":2003:2115   */\n      iszero\n      tag_91\n      jumpi\n        /* \"#utility.yul\":2034:2113   */\n      tag_92\n      tag_43\n      jump\t// in\n    tag_92:\n        /* \"#utility.yul\":2003:2115   */\n    tag_91:\n        /* \"#utility.yul\":2124:2178   */\n      tag_93\n        /* \"#utility.yul\":2171:2177   */\n      dup5\n        /* \"#utility.yul\":2166:2169   */\n      dup3\n        /* \"#utility.yul\":2161:2164   */\n      dup6\n        /* \"#utility.yul\":2124:2178   */\n      tag_49\n      jump\t// in\n    tag_93:\n        /* \"#utility.yul\":1844:2184   */\n      pop\n        /* \"#utility.yul\":1761:2184   */\n      swap4\n      swap3\n      pop\n      pop\n      pop\n      jump\t// out\n        /* \"#utility.yul\":2203:2541   */\n    tag_51:\n        /* \"#utility.yul\":2258:2263   */\n      0x00\n        /* \"#utility.yul\":2307:2310   */\n      dup3\n        /* \"#utility.yul\":2300:2304   */\n      0x1f\n        /* \"#utility.yul\":2292:2298   */\n      dup4\n        /* \"#utility.yul\":2288:2305   */\n      add\n        /* \"#utility.yul\":2284:2311   */\n      slt\n        /* \"#utility.yul\":2274:2396   */\n      tag_95\n      jumpi\n        /* \"#utility.yul\":2315:2394   */\n      tag_96\n      tag_42\n      jump\t// in\n    tag_96:\n        /* \"#utility.yul\":2274:2396   */\n    tag_95:\n        /* \"#utility.yul\":2432:2438   */\n      dup2\n        /* \"#utility.yul\":2419:2439   */\n      calldataload\n        /* \"#utility.yul\":2457:2535   */\n      tag_97\n        /* \"#utility.yul\":2531:2534   */\n      dup5\n        /* \"#utility.yul\":2523:2529   */\n      dup3\n        /* \"#utility.yul\":2516:2520   */\n      0x20\n        /* \"#utility.yul\":2508:2514   */\n      dup7\n        /* \"#utility.yul\":2504:2521   */\n      add\n        /* \"#utility.yul\":2457:2535   */\n      tag_50\n      jump\t// in\n    tag_97:\n        /* \"#utility.yul\":2448:2535   */\n      swap2\n      pop\n        /* \"#utility.yul\":2264:2541   */\n      pop\n        /* \"#utility.yul\":2203:2541   */\n      swap3\n      swap2\n      pop\n      pop\n      jump\t// out\n        /* \"#utility.yul\":2547:3054   */\n    tag_9:\n        /* \"#utility.yul\":2615:2621   */\n      0x00\n        /* \"#utility.yul\":2664:2666   */\n      0x20\n        /* \"#utility.yul\":2652:2661   */\n      dup3\n        /* \"#utility.yul\":2643:2650   */\n      dup5\n        /* \"#utility.yul\":2639:2662   */\n      sub\n        /* \"#utility.yul\":2635:2667   */\n      slt\n        /* \"#utility.yul\":2632:2751   */\n      iszero\n      tag_99\n      jumpi\n        /* \"#utility.yul\":2670:2749   */\n      tag_100\n      tag_40\n      jump\t// in\n    tag_100:\n        /* \"#utility.yul\":2632:2751   */\n    tag_99:\n        /* \"#utility.yul\":2818:2819   */\n      0x00\n        /* \"#utility.yul\":2807:2816   */\n      dup3\n        /* \"#utility.yul\":2803:2820   */\n      add\n        /* \"#utility.yul\":2790:2821   */\n      calldataload\n        /* \"#utility.yul\":2848:2866   */\n      0xffffffffffffffff\n        /* \"#utility.yul\":2840:2846   */\n      dup2\n        /* \"#utility.yul\":2837:2867   */\n      gt\n        /* \"#utility.yul\":2834:2951   */\n      iszero\n      tag_101\n      jumpi\n        /* \"#utility.yul\":2870:2949   */\n      tag_102\n      tag_41\n      jump\t// in\n    tag_102:\n        /* \"#utility.yul\":2834:2951   */\n    tag_101:\n        /* \"#utility.yul\":2975:3037   */\n      tag_103\n        /* \"#utility.yul\":3029:3036   */\n      dup5\n        /* \"#utility.yul\":3020:3026   */\n      dup3\n        /* \"#utility.yul\":3009:3018   */\n      dup6\n        /* \"#utility.yul\":3005:3027   */\n      add\n        /* \"#utility.yul\":2975:3037   */\n      tag_51\n      jump\t// in\n    tag_103:\n        /* \"#utility.yul\":2965:3037   */\n      swap2\n      pop\n        /* \"#utility.yul\":2761:3047   */\n      pop\n        /* \"#utility.yul\":2547:3054   */\n      swap3\n      swap2\n      pop\n      pop\n      jump\t// out\n        /* \"#utility.yul\":3060:3137   */\n    tag_52:\n        /* \"#utility.yul\":3097:3104   */\n      0x00\n        /* \"#utility.yul\":3126:3131   */\n      dup2\n        /* \"#utility.yul\":3115:3131   */\n      swap1\n      pop\n        /* \"#utility.yul\":3060:3137   */\n      swap2\n      swap1\n      pop\n      jump\t// out\n        /* \"#utility.yul\":3143:3261   */\n    tag_53:\n        /* \"#utility.yul\":3230:3254   */\n      tag_106\n        /* \"#utility.yul\":3248:3253   */\n      dup2\n        /* \"#utility.yul\":3230:3254   */\n      tag_52\n      jump\t// in\n    tag_106:\n        /* \"#utility.yul\":3225:3228   */\n      dup3\n        /* \"#utility.yul\":3218:3255   */\n      mstore\n        /* \"#utility.yul\":3143:3261   */\n      pop\n      pop\n      jump\t// out\n        /* \"#utility.yul\":3267:3489   */\n    tag_14:\n        /* \"#utility.yul\":3360:3364   */\n      0x00\n        /* \"#utility.yul\":3398:3400   */\n      0x20\n        /* \"#utility.yul\":3387:3396   */\n      dup3\n        /* \"#utility.yul\":3383:3401   */\n      add\n        /* \"#utility.yul\":3375:3401   */\n      swap1\n      pop\n        /* \"#utility.yul\":3411:3482   */\n      tag_108\n        /* \"#utility.yul\":3479:3480   */\n      0x00\n        /* \"#utility.yul\":3468:3477   */\n      dup4\n        /* \"#utility.yul\":3464:3481   */\n      add\n        /* \"#utility.yul\":3455:3461   */\n      dup5\n        /* \"#utility.yul\":3411:3482   */\n      tag_53\n      jump\t// in\n    tag_108:\n        /* \"#utility.yul\":3267:3489   */\n      swap3\n      swap2\n      pop\n      pop\n      jump\t// out\n        /* \"#utility.yul\":3495:3621   */\n    tag_54:\n        /* \"#utility.yul\":3532:3539   */\n      0x00\n        /* \"#utility.yul\":3572:3614   */\n      0xffffffffffffffffffffffffffffffffffffffff\n        /* \"#utility.yul\":3565:3570   */\n      dup3\n        /* \"#utility.yul\":3561:3615   */\n      and\n        /* \"#utility.yul\":3550:3615   */\n      swap1\n      pop\n        /* \"#utility.yul\":3495:3621   */\n      swap2\n      swap1\n      pop\n      jump\t// out\n        /* \"#utility.yul\":3627:3723   */\n    tag_55:\n        /* \"#utility.yul\":3664:3671   */\n      0x00\n        /* \"#utility.yul\":3693:3717   */\n      tag_111\n        /* \"#utility.yul\":3711:3716   */\n      dup3\n        /* \"#utility.yul\":3693:3717   */\n      tag_54\n      jump\t// in\n    tag_111:\n        /* \"#utility.yul\":3682:3717   */\n      swap1\n      pop\n        /* \"#utility.yul\":3627:3723   */\n      swap2\n      swap1\n      pop\n      jump\t// out\n        /* \"#utility.yul\":3729:3847   */\n    tag_56:\n        /* \"#utility.yul\":3816:3840   */\n      tag_113\n        /* \"#utility.yul\":3834:3839   */\n      dup2\n        /* \"#utility.yul\":3816:3840   */\n      tag_55\n      jump\t// in\n    tag_113:\n        /* \"#utility.yul\":3811:3814   */\n      dup3\n        /* \"#utility.yul\":3804:3841   */\n      mstore\n        /* \"#utility.yul\":3729:3847   */\n      pop\n      pop\n      jump\t// out\n        /* \"#utility.yul\":3853:4075   */\n    tag_18:\n        /* \"#utility.yul\":3946:3950   */\n      0x00\n        /* \"#utility.yul\":3984:3986   */\n      0x20\n        /* \"#utility.yul\":3973:3982   */\n      dup3\n        /* \"#utility.yul\":3969:3987   */\n      add\n        /* \"#utility.yul\":3961:3987   */\n      swap1\n      pop\n        /* \"#utility.yul\":3997:4068   */\n      tag_115\n        /* \"#utility.yul\":4065:4066   */\n      0x00\n        /* \"#utility.yul\":4054:4063   */\n      dup4\n        /* \"#utility.yul\":4050:4067   */\n      add\n        /* \"#utility.yul\":4041:4047   */\n      dup5\n        /* \"#utility.yul\":3997:4068   */\n      tag_56\n      jump\t// in\n    tag_115:\n        /* \"#utility.yul\":3853:4075   */\n      swap3\n      swap2\n      pop\n      pop\n      jump\t// out\n        /* \"#utility.yul\":4081:4250   */\n    tag_57:\n        /* \"#utility.yul\":4165:4176   */\n      0x00\n        /* \"#utility.yul\":4199:4205   */\n      dup3\n        /* \"#utility.yul\":4194:4197   */\n      dup3\n        /* \"#utility.yul\":4187:4206   */\n      mstore\n        /* \"#utility.yul\":4239:4243   */\n      0x20\n        /* \"#utility.yul\":4234:4237   */\n      dup3\n        /* \"#utility.yul\":4230:4244   */\n      add\n        /* \"#utility.yul\":4215:4244   */\n      swap1\n      pop\n        /* \"#utility.yul\":4081:4250   */\n      swap3\n      swap2\n      pop\n      pop\n      jump\t// out\n        /* \"#utility.yul\":4256:4429   */\n    tag_58:\n        /* \"#utility.yul\":4396:4421   */\n      0x736f7272792c20796f75277265206e6f74206f776e6572000000000000000000\n        /* \"#utility.yul\":4392:4393   */\n      0x00\n        /* \"#utility.yul\":4384:4390   */\n      dup3\n        /* \"#utility.yul\":4380:4394   */\n      add\n        /* \"#utility.yul\":4373:4422   */\n      mstore\n        /* \"#utility.yul\":4256:4429   */\n      pop\n      jump\t// out\n        /* \"#utility.yul\":4435:4801   */\n    tag_59:\n        /* \"#utility.yul\":4577:4580   */\n      0x00\n        /* \"#utility.yul\":4598:4665   */\n      tag_119\n        /* \"#utility.yul\":4662:4664   */\n      0x17\n        /* \"#utility.yul\":4657:4660   */\n      dup4\n        /* \"#utility.yul\":4598:4665   */\n      tag_57\n      jump\t// in\n    tag_119:\n        /* \"#utility.yul\":4591:4665   */\n      swap2\n      pop\n        /* \"#utility.yul\":4674:4767   */\n      tag_120\n        /* \"#utility.yul\":4763:4766   */\n      dup3\n        /* \"#utility.yul\":4674:4767   */\n      tag_58\n      jump\t// in\n    tag_120:\n        /* \"#utility.yul\":4792:4794   */\n      0x20\n        /* \"#utility.yul\":4787:4790   */\n      dup3\n        /* \"#utility.yul\":4783:4795   */\n      add\n        /* \"#utility.yul\":4776:4795   */\n      swap1\n      pop\n        /* \"#utility.yul\":4435:4801   */\n      swap2\n      swap1\n      pop\n      jump\t// out\n        /* \"#utility.yul\":4807:5226   */\n    tag_24:\n        /* \"#utility.yul\":4973:4977   */\n      0x00\n        /* \"#utility.yul\":5011:5013   */\n      0x20\n        /* \"#utility.yul\":5000:5009   */\n      dup3\n        /* \"#utility.yul\":4996:5014   */\n      add\n        /* \"#utility.yul\":4988:5014   */\n      swap1\n      pop\n        /* \"#utility.yul\":5060:5069   */\n      dup2\n        /* \"#utility.yul\":5054:5058   */\n      dup2\n        /* \"#utility.yul\":5050:5070   */\n      sub\n        /* \"#utility.yul\":5046:5047   */\n      0x00\n        /* \"#utility.yul\":5035:5044   */\n      dup4\n        /* \"#utility.yul\":5031:5048   */\n      add\n        /* \"#utility.yul\":5024:5071   */\n      mstore\n        /* \"#utility.yul\":5088:5219   */\n      tag_122\n        /* \"#utility.yul\":5214:5218   */\n      dup2\n        /* \"#utility.yul\":5088:5219   */\n      tag_59\n      jump\t// in\n    tag_122:\n        /* \"#utility.yul\":5080:5219   */\n      swap1\n      pop\n        /* \"#utility.yul\":4807:5226   */\n      swap2\n      swap1\n      pop\n      jump\t// out\n        /* \"#utility.yul\":5232:5330   */\n    tag_60:\n        /* \"#utility.yul\":5283:5289   */\n      0x00\n        /* \"#utility.yul\":5317:5322   */\n      dup2\n        /* \"#utility.yul\":5311:5323   */\n      mload\n        /* \"#utility.yul\":5301:5323   */\n      swap1\n      pop\n        /* \"#utility.yul\":5232:5330   */\n      swap2\n      swap1\n      pop\n      jump\t// out\n        /* \"#utility.yul\":5336:5504   */\n    tag_61:\n        /* \"#utility.yul\":5419:5430   */\n      0x00\n        /* \"#utility.yul\":5453:5459   */\n      dup3\n        /* \"#utility.yul\":5448:5451   */\n      dup3\n        /* \"#utility.yul\":5441:5460   */\n      mstore\n        /* \"#utility.yul\":5493:5497   */\n      0x20\n        /* \"#utility.yul\":5488:5491   */\n      dup3\n        /* \"#utility.yul\":5484:5498   */\n      add\n        /* \"#utility.yul\":5469:5498   */\n      swap1\n      pop\n        /* \"#utility.yul\":5336:5504   */\n      swap3\n      swap2\n      pop\n      pop\n      jump\t// out\n        /* \"#utility.yul\":5510:5756   */\n    tag_62:\n        /* \"#utility.yul\":5591:5592   */\n      0x00\n        /* \"#utility.yul\":5601:5714   */\n    tag_126:\n        /* \"#utility.yul\":5615:5621   */\n      dup4\n        /* \"#utility.yul\":5612:5613   */\n      dup2\n        /* \"#utility.yul\":5609:5622   */\n      lt\n        /* \"#utility.yul\":5601:5714   */\n      iszero\n      tag_128\n      jumpi\n        /* \"#utility.yul\":5700:5701   */\n      dup1\n        /* \"#utility.yul\":5695:5698   */\n      dup3\n        /* \"#utility.yul\":5691:5702   */\n      add\n        /* \"#utility.yul\":5685:5703   */\n      mload\n        /* \"#utility.yul\":5681:5682   */\n      dup2\n        /* \"#utility.yul\":5676:5679   */\n      dup5\n        /* \"#utility.yul\":5672:5683   */\n      add\n        /* \"#utility.yul\":5665:5704   */\n      mstore\n        /* \"#utility.yul\":5637:5639   */\n      0x20\n        /* \"#utility.yul\":5634:5635   */\n      dup2\n        /* \"#utility.yul\":5630:5640   */\n      add\n        /* \"#utility.yul\":5625:5640   */\n      swap1\n      pop\n        /* \"#utility.yul\":5601:5714   */\n      jump(tag_126)\n    tag_128:\n        /* \"#utility.yul\":5748:5749   */\n      0x00\n        /* \"#utility.yul\":5739:5745   */\n      dup5\n        /* \"#utility.yul\":5734:5737   */\n      dup5\n        /* \"#utility.yul\":5730:5746   */\n      add\n        /* \"#utility.yul\":5723:5750   */\n      mstore\n        /* \"#utility.yul\":5572:5756   */\n      pop\n        /* \"#utility.yul\":5510:5756   */\n      pop\n      pop\n      pop\n      jump\t// out\n        /* \"#utility.yul\":5762:6135   */\n    tag_63:\n        /* \"#utility.yul\":5848:5851   */\n      0x00\n        /* \"#utility.yul\":5876:5914   */\n      tag_130\n        /* \"#utility.yul\":5908:5913   */\n      dup3\n        /* \"#utility.yul\":5876:5914   */\n      tag_60\n      jump\t// in\n    tag_130:\n        /* \"#utility.yul\":5930:6000   */\n      tag_131\n        /* \"#utility.yul\":5993:5999   */\n      dup2\n        /* \"#utility.yul\":5988:5991   */\n      dup6\n        /* \"#utility.yul\":5930:6000   */\n      tag_61\n      jump\t// in\n    tag_131:\n        /* \"#utility.yul\":5923:6000   */\n      swap4\n      pop\n        /* \"#utility.yul\":6009:6074   */\n      tag_132\n        /* \"#utility.yul\":6067:6073   */\n      dup2\n        /* \"#utility.yul\":6062:6065   */\n      dup6\n        /* \"#utility.yul\":6055:6059   */\n      0x20\n        /* \"#utility.yul\":6048:6053   */\n      dup7\n        /* \"#utility.yul\":6044:6060   */\n      add\n        /* \"#utility.yul\":6009:6074   */\n      tag_62\n      jump\t// in\n    tag_132:\n        /* \"#utility.yul\":6099:6128   */\n      tag_133\n        /* \"#utility.yul\":6121:6127   */\n      dup2\n        /* \"#utility.yul\":6099:6128   */\n      tag_44\n      jump\t// in\n    tag_133:\n        /* \"#utility.yul\":6094:6097   */\n      dup5\n        /* \"#utility.yul\":6090:6129   */\n      add\n        /* \"#utility.yul\":6083:6129   */\n      swap2\n      pop\n        /* \"#utility.yul\":5852:6135   */\n      pop\n        /* \"#utility.yul\":5762:6135   */\n      swap3\n      swap2\n      pop\n      pop\n      jump\t// out\n        /* \"#utility.yul\":6141:6450   */\n    tag_27:\n        /* \"#utility.yul\":6252:6256   */\n      0x00\n        /* \"#utility.yul\":6290:6292   */\n      0x20\n        /* \"#utility.yul\":6279:6288   */\n      dup3\n        /* \"#utility.yul\":6275:6293   */\n      add\n        /* \"#utility.yul\":6267:6293   */\n      swap1\n      pop\n        /* \"#utility.yul\":6339:6348   */\n      dup2\n        /* \"#utility.yul\":6333:6337   */\n      dup2\n        /* \"#utility.yul\":6329:6349   */\n      sub\n        /* \"#utility.yul\":6325:6326   */\n      0x00\n        /* \"#utility.yul\":6314:6323   */\n      dup4\n        /* \"#utility.yul\":6310:6327   */\n      add\n        /* \"#utility.yul\":6303:6350   */\n      mstore\n        /* \"#utility.yul\":6367:6443   */\n      tag_135\n        /* \"#utility.yul\":6438:6442   */\n      dup2\n        /* \"#utility.yul\":6429:6435   */\n      dup5\n        /* \"#utility.yul\":6367:6443   */\n      tag_63\n      jump\t// in\n    tag_135:\n        /* \"#utility.yul\":6359:6443   */\n      swap1\n      pop\n        /* \"#utility.yul\":6141:6450   */\n      swap3\n      swap2\n      pop\n      pop\n      jump\t// out\n        /* \"#utility.yul\":6456:6564   */\n    tag_64:\n        /* \"#utility.yul\":6533:6557   */\n      tag_137\n        /* \"#utility.yul\":6551:6556   */\n      dup2\n        /* \"#utility.yul\":6533:6557   */\n      tag_55\n      jump\t// in\n    tag_137:\n        /* \"#utility.yul\":6528:6531   */\n      dup3\n        /* \"#utility.yul\":6521:6558   */\n      mstore\n        /* \"#utility.yul\":6456:6564   */\n      pop\n      pop\n      jump\t// out\n        /* \"#utility.yul\":6570:6647   */\n    tag_65:\n        /* \"#utility.yul\":6607:6614   */\n      0x00\n        /* \"#utility.yul\":6636:6641   */\n      dup2\n        /* \"#utility.yul\":6625:6641   */\n      swap1\n      pop\n        /* \"#utility.yul\":6570:6647   */\n      swap2\n      swap1\n      pop\n      jump\t// out\n        /* \"#utility.yul\":6653:6761   */\n    tag_66:\n        /* \"#utility.yul\":6730:6754   */\n      tag_140\n        /* \"#utility.yul\":6748:6753   */\n      dup2\n        /* \"#utility.yul\":6730:6754   */\n      tag_65\n      jump\t// in\n    tag_140:\n        /* \"#utility.yul\":6725:6728   */\n      dup3\n        /* \"#utility.yul\":6718:6755   */\n      mstore\n        /* \"#utility.yul\":6653:6761   */\n      pop\n      pop\n      jump\t// out\n        /* \"#utility.yul\":6831:7340   */\n    tag_67:\n        /* \"#utility.yul\":6974:6978   */\n      0x40\n        /* \"#utility.yul\":6969:6972   */\n      dup3\n        /* \"#utility.yul\":6965:6979   */\n      add\n        /* \"#utility.yul\":7065:7069   */\n      0x00\n        /* \"#utility.yul\":7058:7063   */\n      dup3\n        /* \"#utility.yul\":7054:7070   */\n      add\n        /* \"#utility.yul\":7048:7071   */\n      mload\n        /* \"#utility.yul\":7084:7147   */\n      tag_142\n        /* \"#utility.yul\":7141:7145   */\n      0x00\n        /* \"#utility.yul\":7136:7139   */\n      dup6\n        /* \"#utility.yul\":7132:7146   */\n      add\n        /* \"#utility.yul\":7118:7130   */\n      dup3\n        /* \"#utility.yul\":7084:7147   */\n      tag_64\n      jump\t// in\n    tag_142:\n        /* \"#utility.yul\":6989:7157   */\n      pop\n        /* \"#utility.yul\":7241:7245   */\n      0x20\n        /* \"#utility.yul\":7234:7239   */\n      dup3\n        /* \"#utility.yul\":7230:7246   */\n      add\n        /* \"#utility.yul\":7224:7247   */\n      mload\n        /* \"#utility.yul\":7260:7323   */\n      tag_143\n        /* \"#utility.yul\":7317:7321   */\n      0x20\n        /* \"#utility.yul\":7312:7315   */\n      dup6\n        /* \"#utility.yul\":7308:7322   */\n      add\n        /* \"#utility.yul\":7294:7306   */\n      dup3\n        /* \"#utility.yul\":7260:7323   */\n      tag_66\n      jump\t// in\n    tag_143:\n        /* \"#utility.yul\":7167:7333   */\n      pop\n        /* \"#utility.yul\":6943:7340   */\n      pop\n        /* \"#utility.yul\":6831:7340   */\n      pop\n      pop\n      jump\t// out\n        /* \"#utility.yul\":7346:7881   */\n    tag_37:\n        /* \"#utility.yul\":7541:7545   */\n      0x00\n        /* \"#utility.yul\":7579:7582   */\n      0x80\n        /* \"#utility.yul\":7568:7577   */\n      dup3\n        /* \"#utility.yul\":7564:7583   */\n      add\n        /* \"#utility.yul\":7556:7583   */\n      swap1\n      pop\n        /* \"#utility.yul\":7593:7664   */\n      tag_145\n        /* \"#utility.yul\":7661:7662   */\n      0x00\n        /* \"#utility.yul\":7650:7659   */\n      dup4\n        /* \"#utility.yul\":7646:7663   */\n      add\n        /* \"#utility.yul\":7637:7643   */\n      dup7\n        /* \"#utility.yul\":7593:7664   */\n      tag_56\n      jump\t// in\n    tag_145:\n        /* \"#utility.yul\":7674:7792   */\n      tag_146\n        /* \"#utility.yul\":7788:7790   */\n      0x20\n        /* \"#utility.yul\":7777:7786   */\n      dup4\n        /* \"#utility.yul\":7773:7791   */\n      add\n        /* \"#utility.yul\":7764:7770   */\n      dup6\n        /* \"#utility.yul\":7674:7792   */\n      tag_67\n      jump\t// in\n    tag_146:\n        /* \"#utility.yul\":7802:7874   */\n      tag_147\n        /* \"#utility.yul\":7870:7872   */\n      0x60\n        /* \"#utility.yul\":7859:7868   */\n      dup4\n        /* \"#utility.yul\":7855:7873   */\n      add\n        /* \"#utility.yul\":7846:7852   */\n      dup5\n        /* \"#utility.yul\":7802:7874   */\n      tag_53\n      jump\t// in\n    tag_147:\n        /* \"#utility.yul\":7346:7881   */\n      swap5\n      swap4\n      pop\n      pop\n      pop\n      pop\n      jump\t// out\n\n    auxdata: 0xa26469706673582212202590beed517c328405557ba9811bd2f38c86c0ad441c03c93030a4713c62630764736f6c63430008120033\n}\n",
				"bytecode": {
					"linkReferences": {},
					"object": "60a06040527f617070776f726b732e7363686f6f6c2e342f31302e656e636f6465000000000060015534801561003457600080fd5b50734ba9e675f6b21014b698a06eb3e8f885513ff1516000806101000a81548173ffffffffffffffffffffffffffffffffffffffff021916908373ffffffffffffffffffffffffffffffffffffffff1602179055503373ffffffffffffffffffffffffffffffffffffffff1660808173ffffffffffffffffffffffffffffffffffffffff16815250506080516106f46100de6000396000818160b501526101df01526106f46000f3fe608060405234801561001057600080fd5b506004361061004c5760003560e01c8063155332f31461005157806328a922c51461006d5780634aab1fab1461008b5780635ea23af1146100a9575b600080fd5b61006b60048036038101906100669190610439565b6100b3565b005b6100756101cf565b604051610082919061049b565b60405180910390f35b6100936101d5565b6040516100a091906104f7565b60405180910390f35b6100b16101dd565b005b7f000000000000000000000000000000000000000000000000000000000000000073ffffffffffffffffffffffffffffffffffffffff163373ffffffffffffffffffffffffffffffffffffffff1614610141576040517f08c379a00000000000000000000000000000000000000000000000000000000081526004016101389061056f565b60405180910390fd5b60008054906101000a900473ffffffffffffffffffffffffffffffffffffffff1673ffffffffffffffffffffffffffffffffffffffff1663cbec4896826040518263ffffffff1660e01b815260040161019a919061060e565b600060405180830381600087803b1580156101b457600080fd5b505af11580156101c8573d6000803e3d6000fd5b5050505050565b60015481565b600030905090565b7f000000000000000000000000000000000000000000000000000000000000000073ffffffffffffffffffffffffffffffffffffffff163373ffffffffffffffffffffffffffffffffffffffff161461026b576040517f08c379a00000000000000000000000000000000000000000000000000000000081526004016102629061056f565b60405180910390fd5b60006703782dace9d900009050600060405180604001604052803373ffffffffffffffffffffffffffffffffffffffff168152602001838152509050600030826001546040516020016102c093929190610687565b60405160208183030381529060405290506102da816100b3565b505050565b6000604051905090565b600080fd5b600080fd5b600080fd5b600080fd5b6000601f19601f8301169050919050565b7f4e487b7100000000000000000000000000000000000000000000000000000000600052604160045260246000fd5b610346826102fd565b810181811067ffffffffffffffff821117156103655761036461030e565b5b80604052505050565b60006103786102df565b9050610384828261033d565b919050565b600067ffffffffffffffff8211156103a4576103a361030e565b5b6103ad826102fd565b9050602081019050919050565b82818337600083830152505050565b60006103dc6103d784610389565b61036e565b9050828152602081018484840111156103f8576103f76102f8565b5b6104038482856103ba565b509392505050565b600082601f8301126104205761041f6102f3565b5b81356104308482602086016103c9565b91505092915050565b60006020828403121561044f5761044e6102e9565b5b600082013567ffffffffffffffff81111561046d5761046c6102ee565b5b6104798482850161040b565b91505092915050565b6000819050919050565b61049581610482565b82525050565b60006020820190506104b0600083018461048c565b92915050565b600073ffffffffffffffffffffffffffffffffffffffff82169050919050565b60006104e1826104b6565b9050919050565b6104f1816104d6565b82525050565b600060208201905061050c60008301846104e8565b92915050565b600082825260208201905092915050565b7f736f7272792c20796f75277265206e6f74206f776e6572000000000000000000600082015250565b6000610559601783610512565b915061056482610523565b602082019050919050565b600060208201905081810360008301526105888161054c565b9050919050565b600081519050919050565b600082825260208201905092915050565b60005b838110156105c95780820151818401526020810190506105ae565b60008484015250505050565b60006105e08261058f565b6105ea818561059a565b93506105fa8185602086016105ab565b610603816102fd565b840191505092915050565b6000602082019050818103600083015261062881846105d5565b905092915050565b610639816104d6565b82525050565b6000819050919050565b6106528161063f565b82525050565b60408201600082015161066e6000850182610630565b5060208201516106816020850182610649565b50505050565b600060808201905061069c60008301866104e8565b6106a96020830185610658565b6106b6606083018461048c565b94935050505056fea26469706673582212202590beed517c328405557ba9811bd2f38c86c0ad441c03c93030a4713c62630764736f6c63430008120033",
					"opcodes": "PUSH1 0xA0 PUSH1 0x40 MSTORE PUSH32 0x617070776F726B732E7363686F6F6C2E342F31302E656E636F64650000000000 PUSH1 0x1 SSTORE CALLVALUE DUP1 ISZERO PUSH2 0x34 JUMPI PUSH1 0x0 DUP1 REVERT JUMPDEST POP PUSH20 0x4BA9E675F6B21014B698A06EB3E8F885513FF151 PUSH1 0x0 DUP1 PUSH2 0x100 EXP DUP2 SLOAD DUP2 PUSH20 0xFFFFFFFFFFFFFFFFFFFFFFFFFFFFFFFFFFFFFFFF MUL NOT AND SWAP1 DUP4 PUSH20 0xFFFFFFFFFFFFFFFFFFFFFFFFFFFFFFFFFFFFFFFF AND MUL OR SWAP1 SSTORE POP CALLER PUSH20 0xFFFFFFFFFFFFFFFFFFFFFFFFFFFFFFFFFFFFFFFF AND PUSH1 0x80 DUP2 PUSH20 0xFFFFFFFFFFFFFFFFFFFFFFFFFFFFFFFFFFFFFFFF AND DUP2 MSTORE POP POP PUSH1 0x80 MLOAD PUSH2 0x6F4 PUSH2 0xDE PUSH1 0x0 CODECOPY PUSH1 0x0 DUP2 DUP2 PUSH1 0xB5 ADD MSTORE PUSH2 0x1DF ADD MSTORE PUSH2 0x6F4 PUSH1 0x0 RETURN INVALID PUSH1 0x80 PUSH1 0x40 MSTORE CALLVALUE DUP1 ISZERO PUSH2 0x10 JUMPI PUSH1 0x0 DUP1 REVERT JUMPDEST POP PUSH1 0x4 CALLDATASIZE LT PUSH2 0x4C JUMPI PUSH1 0x0 CALLDATALOAD PUSH1 0xE0 SHR DUP1 PUSH4 0x155332F3 EQ PUSH2 0x51 JUMPI DUP1 PUSH4 0x28A922C5 EQ PUSH2 0x6D JUMPI DUP1 PUSH4 0x4AAB1FAB EQ PUSH2 0x8B JUMPI DUP1 PUSH4 0x5EA23AF1 EQ PUSH2 0xA9 JUMPI JUMPDEST PUSH1 0x0 DUP1 REVERT JUMPDEST PUSH2 0x6B PUSH1 0x4 DUP1 CALLDATASIZE SUB DUP2 ADD SWAP1 PUSH2 0x66 SWAP2 SWAP1 PUSH2 0x439 JUMP JUMPDEST PUSH2 0xB3 JUMP JUMPDEST STOP JUMPDEST PUSH2 0x75 PUSH2 0x1CF JUMP JUMPDEST PUSH1 0x40 MLOAD PUSH2 0x82 SWAP2 SWAP1 PUSH2 0x49B JUMP JUMPDEST PUSH1 0x40 MLOAD DUP1 SWAP2 SUB SWAP1 RETURN JUMPDEST PUSH2 0x93 PUSH2 0x1D5 JUMP JUMPDEST PUSH1 0x40 MLOAD PUSH2 0xA0 SWAP2 SWAP1 PUSH2 0x4F7 JUMP JUMPDEST PUSH1 0x40 MLOAD DUP1 SWAP2 SUB SWAP1 RETURN JUMPDEST PUSH2 0xB1 PUSH2 0x1DD JUMP JUMPDEST STOP JUMPDEST PUSH32 0x0 PUSH20 0xFFFFFFFFFFFFFFFFFFFFFFFFFFFFFFFFFFFFFFFF AND CALLER PUSH20 0xFFFFFFFFFFFFFFFFFFFFFFFFFFFFFFFFFFFFFFFF AND EQ PUSH2 0x141 JUMPI PUSH1 0x40 MLOAD PUSH32 0x8C379A000000000000000000000000000000000000000000000000000000000 DUP2 MSTORE PUSH1 0x4 ADD PUSH2 0x138 SWAP1 PUSH2 0x56F JUMP JUMPDEST PUSH1 0x40 MLOAD DUP1 SWAP2 SUB SWAP1 REVERT JUMPDEST PUSH1 0x0 DUP1 SLOAD SWAP1 PUSH2 0x100 EXP SWAP1 DIV PUSH20 0xFFFFFFFFFFFFFFFFFFFFFFFFFFFFFFFFFFFFFFFF AND PUSH20 0xFFFFFFFFFFFFFFFFFFFFFFFFFFFFFFFFFFFFFFFF AND PUSH4 0xCBEC4896 DUP3 PUSH1 0x40 MLOAD DUP3 PUSH4 0xFFFFFFFF AND PUSH1 0xE0 SHL DUP2 MSTORE PUSH1 0x4 ADD PUSH2 0x19A SWAP2 SWAP1 PUSH2 0x60E JUMP JUMPDEST PUSH1 0x0 PUSH1 0x40 MLOAD DUP1 DUP4 SUB DUP2 PUSH1 0x0 DUP8 DUP1 EXTCODESIZE ISZERO DUP1 ISZERO PUSH2 0x1B4 JUMPI PUSH1 0x0 DUP1 REVERT JUMPDEST POP GAS CALL ISZERO DUP1 ISZERO PUSH2 0x1C8 JUMPI RETURNDATASIZE PUSH1 0x0 DUP1 RETURNDATACOPY RETURNDATASIZE PUSH1 0x0 REVERT JUMPDEST POP POP POP POP POP JUMP JUMPDEST PUSH1 0x1 SLOAD DUP2 JUMP JUMPDEST PUSH1 0x0 ADDRESS SWAP1 POP SWAP1 JUMP JUMPDEST PUSH32 0x0 PUSH20 0xFFFFFFFFFFFFFFFFFFFFFFFFFFFFFFFFFFFFFFFF AND CALLER PUSH20 0xFFFFFFFFFFFFFFFFFFFFFFFFFFFFFFFFFFFFFFFF AND EQ PUSH2 0x26B JUMPI PUSH1 0x40 MLOAD PUSH32 0x8C379A000000000000000000000000000000000000000000000000000000000 DUP2 MSTORE PUSH1 0x4 ADD PUSH2 0x262 SWAP1 PUSH2 0x56F JUMP JUMPDEST PUSH1 0x40 MLOAD DUP1 SWAP2 SUB SWAP1 REVERT JUMPDEST PUSH1 0x0 PUSH8 0x3782DACE9D90000 SWAP1 POP PUSH1 0x0 PUSH1 0x40 MLOAD DUP1 PUSH1 0x40 ADD PUSH1 0x40 MSTORE DUP1 CALLER PUSH20 0xFFFFFFFFFFFFFFFFFFFFFFFFFFFFFFFFFFFFFFFF AND DUP2 MSTORE PUSH1 0x20 ADD DUP4 DUP2 MSTORE POP SWAP1 POP PUSH1 0x0 ADDRESS DUP3 PUSH1 0x1 SLOAD PUSH1 0x40 MLOAD PUSH1 0x20 ADD PUSH2 0x2C0 SWAP4 SWAP3 SWAP2 SWAP1 PUSH2 0x687 JUMP JUMPDEST PUSH1 0x40 MLOAD PUSH1 0x20 DUP2 DUP4 SUB SUB DUP2 MSTORE SWAP1 PUSH1 0x40 MSTORE SWAP1 POP PUSH2 0x2DA DUP2 PUSH2 0xB3 JUMP JUMPDEST POP POP POP JUMP JUMPDEST PUSH1 0x0 PUSH1 0x40 MLOAD SWAP1 POP SWAP1 JUMP JUMPDEST PUSH1 0x0 DUP1 REVERT JUMPDEST PUSH1 0x0 DUP1 REVERT JUMPDEST PUSH1 0x0 DUP1 REVERT JUMPDEST PUSH1 0x0 DUP1 REVERT JUMPDEST PUSH1 0x0 PUSH1 0x1F NOT PUSH1 0x1F DUP4 ADD AND SWAP1 POP SWAP2 SWAP1 POP JUMP JUMPDEST PUSH32 0x4E487B7100000000000000000000000000000000000000000000000000000000 PUSH1 0x0 MSTORE PUSH1 0x41 PUSH1 0x4 MSTORE PUSH1 0x24 PUSH1 0x0 REVERT JUMPDEST PUSH2 0x346 DUP3 PUSH2 0x2FD JUMP JUMPDEST DUP2 ADD DUP2 DUP2 LT PUSH8 0xFFFFFFFFFFFFFFFF DUP3 GT OR ISZERO PUSH2 0x365 JUMPI PUSH2 0x364 PUSH2 0x30E JUMP JUMPDEST JUMPDEST DUP1 PUSH1 0x40 MSTORE POP POP POP JUMP JUMPDEST PUSH1 0x0 PUSH2 0x378 PUSH2 0x2DF JUMP JUMPDEST SWAP1 POP PUSH2 0x384 DUP3 DUP3 PUSH2 0x33D JUMP JUMPDEST SWAP2 SWAP1 POP JUMP JUMPDEST PUSH1 0x0 PUSH8 0xFFFFFFFFFFFFFFFF DUP3 GT ISZERO PUSH2 0x3A4 JUMPI PUSH2 0x3A3 PUSH2 0x30E JUMP JUMPDEST JUMPDEST PUSH2 0x3AD DUP3 PUSH2 0x2FD JUMP JUMPDEST SWAP1 POP PUSH1 0x20 DUP2 ADD SWAP1 POP SWAP2 SWAP1 POP JUMP JUMPDEST DUP3 DUP2 DUP4 CALLDATACOPY PUSH1 0x0 DUP4 DUP4 ADD MSTORE POP POP POP JUMP JUMPDEST PUSH1 0x0 PUSH2 0x3DC PUSH2 0x3D7 DUP5 PUSH2 0x389 JUMP JUMPDEST PUSH2 0x36E JUMP JUMPDEST SWAP1 POP DUP3 DUP2 MSTORE PUSH1 0x20 DUP2 ADD DUP5 DUP5 DUP5 ADD GT ISZERO PUSH2 0x3F8 JUMPI PUSH2 0x3F7 PUSH2 0x2F8 JUMP JUMPDEST JUMPDEST PUSH2 0x403 DUP5 DUP3 DUP6 PUSH2 0x3BA JUMP JUMPDEST POP SWAP4 SWAP3 POP POP POP JUMP JUMPDEST PUSH1 0x0 DUP3 PUSH1 0x1F DUP4 ADD SLT PUSH2 0x420 JUMPI PUSH2 0x41F PUSH2 0x2F3 JUMP JUMPDEST JUMPDEST DUP2 CALLDATALOAD PUSH2 0x430 DUP5 DUP3 PUSH1 0x20 DUP7 ADD PUSH2 0x3C9 JUMP JUMPDEST SWAP2 POP POP SWAP3 SWAP2 POP POP JUMP JUMPDEST PUSH1 0x0 PUSH1 0x20 DUP3 DUP5 SUB SLT ISZERO PUSH2 0x44F JUMPI PUSH2 0x44E PUSH2 0x2E9 JUMP JUMPDEST JUMPDEST PUSH1 0x0 DUP3 ADD CALLDATALOAD PUSH8 0xFFFFFFFFFFFFFFFF DUP2 GT ISZERO PUSH2 0x46D JUMPI PUSH2 0x46C PUSH2 0x2EE JUMP JUMPDEST JUMPDEST PUSH2 0x479 DUP5 DUP3 DUP6 ADD PUSH2 0x40B JUMP JUMPDEST SWAP2 POP POP SWAP3 SWAP2 POP POP JUMP JUMPDEST PUSH1 0x0 DUP2 SWAP1 POP SWAP2 SWAP1 POP JUMP JUMPDEST PUSH2 0x495 DUP2 PUSH2 0x482 JUMP JUMPDEST DUP3 MSTORE POP POP JUMP JUMPDEST PUSH1 0x0 PUSH1 0x20 DUP3 ADD SWAP1 POP PUSH2 0x4B0 PUSH1 0x0 DUP4 ADD DUP5 PUSH2 0x48C JUMP JUMPDEST SWAP3 SWAP2 POP POP JUMP JUMPDEST PUSH1 0x0 PUSH20 0xFFFFFFFFFFFFFFFFFFFFFFFFFFFFFFFFFFFFFFFF DUP3 AND SWAP1 POP SWAP2 SWAP1 POP JUMP JUMPDEST PUSH1 0x0 PUSH2 0x4E1 DUP3 PUSH2 0x4B6 JUMP JUMPDEST SWAP1 POP SWAP2 SWAP1 POP JUMP JUMPDEST PUSH2 0x4F1 DUP2 PUSH2 0x4D6 JUMP JUMPDEST DUP3 MSTORE POP POP JUMP JUMPDEST PUSH1 0x0 PUSH1 0x20 DUP3 ADD SWAP1 POP PUSH2 0x50C PUSH1 0x0 DUP4 ADD DUP5 PUSH2 0x4E8 JUMP JUMPDEST SWAP3 SWAP2 POP POP JUMP JUMPDEST PUSH1 0x0 DUP3 DUP3 MSTORE PUSH1 0x20 DUP3 ADD SWAP1 POP SWAP3 SWAP2 POP POP JUMP JUMPDEST PUSH32 0x736F7272792C20796F75277265206E6F74206F776E6572000000000000000000 PUSH1 0x0 DUP3 ADD MSTORE POP JUMP JUMPDEST PUSH1 0x0 PUSH2 0x559 PUSH1 0x17 DUP4 PUSH2 0x512 JUMP JUMPDEST SWAP2 POP PUSH2 0x564 DUP3 PUSH2 0x523 JUMP JUMPDEST PUSH1 0x20 DUP3 ADD SWAP1 POP SWAP2 SWAP1 POP JUMP JUMPDEST PUSH1 0x0 PUSH1 0x20 DUP3 ADD SWAP1 POP DUP2 DUP2 SUB PUSH1 0x0 DUP4 ADD MSTORE PUSH2 0x588 DUP2 PUSH2 0x54C JUMP JUMPDEST SWAP1 POP SWAP2 SWAP1 POP JUMP JUMPDEST PUSH1 0x0 DUP2 MLOAD SWAP1 POP SWAP2 SWAP1 POP JUMP JUMPDEST PUSH1 0x0 DUP3 DUP3 MSTORE PUSH1 0x20 DUP3 ADD SWAP1 POP SWAP3 SWAP2 POP POP JUMP JUMPDEST PUSH1 0x0 JUMPDEST DUP4 DUP2 LT ISZERO PUSH2 0x5C9 JUMPI DUP1 DUP3 ADD MLOAD DUP2 DUP5 ADD MSTORE PUSH1 0x20 DUP2 ADD SWAP1 POP PUSH2 0x5AE JUMP JUMPDEST PUSH1 0x0 DUP5 DUP5 ADD MSTORE POP POP POP POP JUMP JUMPDEST PUSH1 0x0 PUSH2 0x5E0 DUP3 PUSH2 0x58F JUMP JUMPDEST PUSH2 0x5EA DUP2 DUP6 PUSH2 0x59A JUMP JUMPDEST SWAP4 POP PUSH2 0x5FA DUP2 DUP6 PUSH1 0x20 DUP7 ADD PUSH2 0x5AB JUMP JUMPDEST PUSH2 0x603 DUP2 PUSH2 0x2FD JUMP JUMPDEST DUP5 ADD SWAP2 POP POP SWAP3 SWAP2 POP POP JUMP JUMPDEST PUSH1 0x0 PUSH1 0x20 DUP3 ADD SWAP1 POP DUP2 DUP2 SUB PUSH1 0x0 DUP4 ADD MSTORE PUSH2 0x628 DUP2 DUP5 PUSH2 0x5D5 JUMP JUMPDEST SWAP1 POP SWAP3 SWAP2 POP POP JUMP JUMPDEST PUSH2 0x639 DUP2 PUSH2 0x4D6 JUMP JUMPDEST DUP3 MSTORE POP POP JUMP JUMPDEST PUSH1 0x0 DUP2 SWAP1 POP SWAP2 SWAP1 POP JUMP JUMPDEST PUSH2 0x652 DUP2 PUSH2 0x63F JUMP JUMPDEST DUP3 MSTORE POP POP JUMP JUMPDEST PUSH1 0x40 DUP3 ADD PUSH1 0x0 DUP3 ADD MLOAD PUSH2 0x66E PUSH1 0x0 DUP6 ADD DUP3 PUSH2 0x630 JUMP JUMPDEST POP PUSH1 0x20 DUP3 ADD MLOAD PUSH2 0x681 PUSH1 0x20 DUP6 ADD DUP3 PUSH2 0x649 JUMP JUMPDEST POP POP POP POP JUMP JUMPDEST PUSH1 0x0 PUSH1 0x80 DUP3 ADD SWAP1 POP PUSH2 0x69C PUSH1 0x0 DUP4 ADD DUP7 PUSH2 0x4E8 JUMP JUMPDEST PUSH2 0x6A9 PUSH1 0x20 DUP4 ADD DUP6 PUSH2 0x658 JUMP JUMPDEST PUSH2 0x6B6 PUSH1 0x60 DUP4 ADD DUP5 PUSH2 0x48C JUMP JUMPDEST SWAP5 SWAP4 POP POP POP POP JUMP INVALID LOG2 PUSH5 0x6970667358 0x22 SLT KECCAK256 0x25 SWAP1 0xBE 0xED MLOAD PUSH29 0x328405557BA9811BD2F38C86C0AD441C03C93030A4713C62630764736F PUSH13 0x63430008120033000000000000 "
				},
				"gasEstimates": {
					"creation": {
						"codeDepositCost": "356000",
						"executionCost": "infinite",
						"totalCost": "infinite"
					},
					"external": {
						"_password()": "2429",
						"callSubmitEncodeData(bytes)": "infinite",
						"prepareAndCallSubmitEncodeData()": "infinite",
						"returnSelfAddress()": "407"
					}
				},
				"methodIdentifiers": {
					"_password()": "28a922c5",
					"callSubmitEncodeData(bytes)": "155332f3",
					"prepareAndCallSubmitEncodeData()": "5ea23af1",
					"returnSelfAddress()": "4aab1fab"
				}
			},
			"storageLayout": {
				"storage": [
					{
						"astId": 16,
						"contract": "StealEthers.sol:StealEthers",
						"label": "abiEncodeDecode",
						"offset": 0,
						"slot": "0",
						"type": "t_contract(IAbiEncodeDecode)7"
					},
					{
						"astId": 21,
						"contract": "StealEthers.sol:StealEthers",
						"label": "_password",
						"offset": 0,
						"slot": "1",
						"type": "t_bytes32"
					}
				],
				"types": {
					"t_bytes32": {
						"encoding": "inplace",
						"label": "bytes32",
						"numberOfBytes": "32"
					},
					"t_contract(IAbiEncodeDecode)7": {
						"encoding": "inplace",
						"label": "contract IAbiEncodeDecode",
						"numberOfBytes": "20"
					}
				}
			},
			"userdoc": {
				"kind": "user",
				"methods": {},
				"version": 1
			}
		}
	}
}