{
	"data": {
		"bytecode": {
			"linkReferences": {},
			"object": "608060405234801561001057600080fd5b506102ad806100206000396000f3fe608060405234801561001057600080fd5b50600436106100365760003560e01c8063cd1e75291461003b578063e3d670d714610057575b600080fd5b61005560048036038101906100509190610132565b610087565b005b610071600480360381019061006c91906101bd565b6100df565b60405161007e91906101f9565b60405180910390f35b806000803373ffffffffffffffffffffffffffffffffffffffff1673ffffffffffffffffffffffffffffffffffffffff16815260200190815260200160002060008282546100d59190610243565b9250508190555050565b60006020528060005260406000206000915090505481565b600080fd5b6000819050919050565b61010f816100fc565b811461011a57600080fd5b50565b60008135905061012c81610106565b92915050565b600060208284031215610148576101476100f7565b5b60006101568482850161011d565b91505092915050565b600073ffffffffffffffffffffffffffffffffffffffff82169050919050565b600061018a8261015f565b9050919050565b61019a8161017f565b81146101a557600080fd5b50565b6000813590506101b781610191565b92915050565b6000602082840312156101d3576101d26100f7565b5b60006101e1848285016101a8565b91505092915050565b6101f3816100fc565b82525050565b600060208201905061020e60008301846101ea565b92915050565b7f4e487b7100000000000000000000000000000000000000000000000000000000600052601160045260246000fd5b600061024e826100fc565b9150610259836100fc565b925082820190508082111561027157610270610214565b5b9291505056fea264697066735822122021dab22921a0958ab3cd75ba492ee2ce65e3f1ee71a05c649a1d02006bebe26764736f6c63430008120033",
			"opcodes": "PUSH1 0x80 PUSH1 0x40 MSTORE CALLVALUE DUP1 ISZERO PUSH2 0x10 JUMPI PUSH1 0x0 DUP1 REVERT JUMPDEST POP PUSH2 0x2AD DUP1 PUSH2 0x20 PUSH1 0x0 CODECOPY PUSH1 0x0 RETURN INVALID PUSH1 0x80 PUSH1 0x40 MSTORE CALLVALUE DUP1 ISZERO PUSH2 0x10 JUMPI PUSH1 0x0 DUP1 REVERT JUMPDEST POP PUSH1 0x4 CALLDATASIZE LT PUSH2 0x36 JUMPI PUSH1 0x0 CALLDATALOAD PUSH1 0xE0 SHR DUP1 PUSH4 0xCD1E7529 EQ PUSH2 0x3B JUMPI DUP1 PUSH4 0xE3D670D7 EQ PUSH2 0x57 JUMPI JUMPDEST PUSH1 0x0 DUP1 REVERT JUMPDEST PUSH2 0x55 PUSH1 0x4 DUP1 CALLDATASIZE SUB DUP2 ADD SWAP1 PUSH2 0x50 SWAP2 SWAP1 PUSH2 0x132 JUMP JUMPDEST PUSH2 0x87 JUMP JUMPDEST STOP JUMPDEST PUSH2 0x71 PUSH1 0x4 DUP1 CALLDATASIZE SUB DUP2 ADD SWAP1 PUSH2 0x6C SWAP2 SWAP1 PUSH2 0x1BD JUMP JUMPDEST PUSH2 0xDF JUMP JUMPDEST PUSH1 0x40 MLOAD PUSH2 0x7E SWAP2 SWAP1 PUSH2 0x1F9 JUMP JUMPDEST PUSH1 0x40 MLOAD DUP1 SWAP2 SUB SWAP1 RETURN JUMPDEST DUP1 PUSH1 0x0 DUP1 CALLER PUSH20 0xFFFFFFFFFFFFFFFFFFFFFFFFFFFFFFFFFFFFFFFF AND PUSH20 0xFFFFFFFFFFFFFFFFFFFFFFFFFFFFFFFFFFFFFFFF AND DUP2 MSTORE PUSH1 0x20 ADD SWAP1 DUP2 MSTORE PUSH1 0x20 ADD PUSH1 0x0 KECCAK256 PUSH1 0x0 DUP3 DUP3 SLOAD PUSH2 0xD5 SWAP2 SWAP1 PUSH2 0x243 JUMP JUMPDEST SWAP3 POP POP DUP2 SWAP1 SSTORE POP POP JUMP JUMPDEST PUSH1 0x0 PUSH1 0x20 MSTORE DUP1 PUSH1 0x0 MSTORE PUSH1 0x40 PUSH1 0x0 KECCAK256 PUSH1 0x0 SWAP2 POP SWAP1 POP SLOAD DUP2 JUMP JUMPDEST PUSH1 0x0 DUP1 REVERT JUMPDEST PUSH1 0x0 DUP2 SWAP1 POP SWAP2 SWAP1 POP JUMP JUMPDEST PUSH2 0x10F DUP2 PUSH2 0xFC JUMP JUMPDEST DUP2 EQ PUSH2 0x11A JUMPI PUSH1 0x0 DUP1 REVERT JUMPDEST POP JUMP JUMPDEST PUSH1 0x0 DUP2 CALLDATALOAD SWAP1 POP PUSH2 0x12C DUP2 PUSH2 0x106 JUMP JUMPDEST SWAP3 SWAP2 POP POP JUMP JUMPDEST PUSH1 0x0 PUSH1 0x20 DUP3 DUP5 SUB SLT ISZERO PUSH2 0x148 JUMPI PUSH2 0x147 PUSH2 0xF7 JUMP JUMPDEST JUMPDEST PUSH1 0x0 PUSH2 0x156 DUP5 DUP3 DUP6 ADD PUSH2 0x11D JUMP JUMPDEST SWAP2 POP POP SWAP3 SWAP2 POP POP JUMP JUMPDEST PUSH1 0x0 PUSH20 0xFFFFFFFFFFFFFFFFFFFFFFFFFFFFFFFFFFFFFFFF DUP3 AND SWAP1 POP SWAP2 SWAP1 POP JUMP JUMPDEST PUSH1 0x0 PUSH2 0x18A DUP3 PUSH2 0x15F JUMP JUMPDEST SWAP1 POP SWAP2 SWAP1 POP JUMP JUMPDEST PUSH2 0x19A DUP2 PUSH2 0x17F JUMP JUMPDEST DUP2 EQ PUSH2 0x1A5 JUMPI PUSH1 0x0 DUP1 REVERT JUMPDEST POP JUMP JUMPDEST PUSH1 0x0 DUP2 CALLDATALOAD SWAP1 POP PUSH2 0x1B7 DUP2 PUSH2 0x191 JUMP JUMPDEST SWAP3 SWAP2 POP POP JUMP JUMPDEST PUSH1 0x0 PUSH1 0x20 DUP3 DUP5 SUB SLT ISZERO PUSH2 0x1D3 JUMPI PUSH2 0x1D2 PUSH2 0xF7 JUMP JUMPDEST JUMPDEST PUSH1 0x0 PUSH2 0x1E1 DUP5 DUP3 DUP6 ADD PUSH2 0x1A8 JUMP JUMPDEST SWAP2 POP POP SWAP3 SWAP2 POP POP JUMP JUMPDEST PUSH2 0x1F3 DUP2 PUSH2 0xFC JUMP JUMPDEST DUP3 MSTORE POP POP JUMP JUMPDEST PUSH1 0x0 PUSH1 0x20 DUP3 ADD SWAP1 POP PUSH2 0x20E PUSH1 0x0 DUP4 ADD DUP5 PUSH2 0x1EA JUMP JUMPDEST SWAP3 SWAP2 POP POP JUMP JUMPDEST PUSH32 0x4E487B7100000000000000000000000000000000000000000000000000000000 PUSH1 0x0 MSTORE PUSH1 0x11 PUSH1 0x4 MSTORE PUSH1 0x24 PUSH1 0x0 REVERT JUMPDEST PUSH1 0x0 PUSH2 0x24E DUP3 PUSH2 0xFC JUMP JUMPDEST SWAP2 POP PUSH2 0x259 DUP4 PUSH2 0xFC JUMP JUMPDEST SWAP3 POP DUP3 DUP3 ADD SWAP1 POP DUP1 DUP3 GT ISZERO PUSH2 0x271 JUMPI PUSH2 0x270 PUSH2 0x214 JUMP JUMPDEST JUMPDEST SWAP3 SWAP2 POP POP JUMP INVALID LOG2 PUSH5 0x6970667358 0x22 SLT KECCAK256 0x21 0xDA 0xB2 0x29 0x21 LOG0 SWAP6 DUP11 0xB3 0xCD PUSH22 0xBA492EE2CE65E3F1EE71A05C649A1D02006BEBE26764 PUSH20 0x6F6C634300081200330000000000000000000000 "
		},
		"gasEstimates": {
			"creation": {
				"codeDepositCost": "137000",
				"executionCost": "183",
				"totalCost": "137183"
			},
			"external": {
				"addbalance(uint256)": "infinite",
				"balance(address)": "2814"
			}
		},
		"methodIdentifiers": {
			"addbalance(uint256)": "cd1e7529",
			"balance(address)": "e3d670d7"
		}
	},
	"abi": [
		{
			"inputs": [
				{
					"internalType": "uint256",
					"name": "_n",
					"type": "uint256"
				}
			],
			"name": "addbalance",
			"outputs": [],
			"stateMutability": "nonpayable",
			"type": "function"
		},
		{
			"inputs": [
				{
					"internalType": "address",
					"name": "",
					"type": "address"
				}
			],
			"name": "balance",
			"outputs": [
				{
					"internalType": "uint256",
					"name": "",
					"type": "uint256"
				}
			],
			"stateMutability": "view",
			"type": "function"
		}
	]
}